:020000040800F2
:100000000000022051490008BD0A0008BF0A00088C
:10001000C10A0008C30A0008C50A00080000000061
:100020000000000000000000000000005132000845
:10003000C70A000800000000F1320008A72D0008E0
:10004000A1490008A1490008A1490008A1490008E8
:10005000A1490008A1490008A1490008A1490008D8
:10006000A1490008A1490008A1490008A1490008C8
:10007000A1490008A1490008A1490008A1490008B8
:10008000A1490008A1490008A1490008A1490008A8
:10009000A1490008A1490008A1490008A149000898
:1000A000A1490008A1490008A1490008A149000888
:1000B000C90A0008A1490008A1490008A14900088F
:1000C000A1490008A1490008A1490008A149000868
:1000D000A1490008A1490008A1490008A149000858
:1000E000A1490008A1490008A1490008A149000848
:1000F000A1490008A1490008A1490008A149000838
:10010000A1490008A1490008A1490008A149000827
:10011000A1490008A1490008A1490008A149000817
:10012000A1490008A1490008A1490008A149000807
:10013000A1490008A1490008A1490008A1490008F7
:10014000A1490008A1490008A1490008A1490008E7
:10015000A1490008A1490008A1490008A1490008D7
:10016000A1490008A1490008A1490008A1490008C7
:10017000A1490008A1490008A149000800000000A9
:08018000A1490008A149000893
:1001C000F0B400EB4003DFF8880000EBC30000F15F
:1001D00018063069F7687568874232D3B368DC1B4C
:1001E000631E934214D37D19D01900BF11F8013B4F
:1001F00005F8013B013A05D011F8013B05F8013B38
:10020000013AF3D1BFF35F8FF0600120F0BC70477B
:10021000C018904219D37819121B11F8013B00F84D
:10022000013B013CF9D1141C05D011F8013B05F844
:10023000013B013AF9D1BFF35F8FF4600120F0BCBC
:100240007047C01B01389042CDD20020F0BC7047EF
:10025000DC4D0020830730B547D0541E002A3ED025
:10026000CAB2034601E0013C39D303F8012B9D07D4
:10027000F9D1032C2CD9CDB205EB05250F2C05EBBC
:10028000054535D9A4F1100222F00F0C03F1100E30
:10029000E6444FEA121C1A46156055609560D56019
:1002A00010327245F8D10CF1010214F00C0F03EB7F
:1002B000021204F00F0C13D0ACF1040323F003037B
:1002C0000433134442F8045B9A42FBD10CF003045C
:1002D0002CB1C9B21C4403F8011B9C42FBD130BDB8
:1002E00064461346002CF4D1F9E703461446C0E7F0
:1002F0001A46A446E0E700BF70B50F4B0F4DAB4266
:10030000A3EB050607D0B610002455F8043B0134D2
:100310009847A642F9D804F095FC094D094B5E1B9D
:10032000AB424FEAA60606D0002455F8043B013440
:100330009847A642F9D870BD6C4F00086C4F000872
:100340006C4F0008704F0008844641EA000313F028
:1003500003036DD1403A41D351F8043B40F8043BCC
:1003600051F8043B40F8043B51F8043B40F8043B8F
:1003700051F8043B40F8043B51F8043B40F8043B7F
:1003800051F8043B40F8043B51F8043B40F8043B6F
:1003900051F8043B40F8043B51F8043B40F8043B5F
:1003A00051F8043B40F8043B51F8043B40F8043B4F
:1003B00051F8043B40F8043B51F8043B40F8043B3F
:1003C00051F8043B40F8043B51F8043B40F8043B2F
:1003D00051F8043B40F8043B403ABDD2303211D3CF
:1003E00051F8043B40F8043B51F8043B40F8043B0F
:1003F00051F8043B40F8043B51F8043B40F8043BFF
:10040000103AEDD20C3205D351F8043B40F8043BCE
:10041000043AF9D2043208D0D2071CBF11F8013BCC
:1004200000F8013B01D30B8803806046704700BF92
:10043000082A13D38B078DD010F003038AD0C3F1A1
:100440000403D21ADB071CBF11F8013B00F8013B83
:1004500080D331F8023B20F8023B7BE7043AD9D342
:10046000013A11F8013B00F8013BF9D20B78037017
:100470004B7843708B7883706046704700000000B3
:1004800030B490F800F020F007016FF0000C10F08D
:10049000070491F820F040F048804FF000046FF01E
:1004A0000700D1E9002391F840F000F1080082FA3A
:1004B0004CF2A4FA8CF283FA4CF3A2FA8CF34BBB05
:1004C000D1E9022382FA4CF200F10800A4FA8CF27E
:1004D00083FA4CF3A2FA8CF3E3B9D1E9042382FA4C
:1004E0004CF200F10800A4FA8CF283FA4CF3A2FA61
:1004F0008CF37BB9D1E9062301F1200182FA4CF299
:1005000000F10800A4FA8CF283FA4CF3A2FA8CF3FF
:10051000002BC6D0002A04BF04301A4612BAB2FA21
:1005200082F200EBD20030BC7047D1E9002304F026
:100530000305C4F100004FEAC50514F0040F91F85B
:1005400040F00CFA05F562EA05021CBF63EA0503F8
:1005500062464FF00004AAE781F0004102E000BFCC
:1005600083F0004330B54FEA41044FEA430594EA73
:10057000050F08BF90EA020F1FBF54EA000C55EAAE
:10058000020C7FEA645C7FEA655C00F0E2804FEA7F
:100590005454D4EB5555B8BF6D420CDD2C4480EA61
:1005A000020281EA030382EA000083EA010180EA91
:1005B000020281EA0303362D88BF30BD11F0004FDF
:1005C0004FEA01314FF4801C4CEA113102D0404215
:1005D00061EB410113F0004F4FEA03334CEA133350
:1005E00002D0524263EB430394EA050F00F0A78068
:1005F000A4F10104D5F1200E0DDB02FA0EFC22FA63
:1006000005F2801841F1000103FA0EF2801843FA56
:1006100005F359410EE0A5F120050EF1200E012A47
:1006200003FA0EFC28BF4CF0020C43FA05F3C01885
:1006300051EBE37101F0004507D54FF0000EDCF1FE
:10064000000C7EEB00006EEB0101B1F5801F1BD3A7
:10065000B1F5001F0CD349085FEA30004FEA3C0CAB
:1006600004F101044FEA445212F5800F80F09A80A1
:10067000BCF1004F08BF5FEA500C50F1000041EBA5
:10068000045141EA050130BD5FEA4C0C404141EBA9
:100690000101013C28BFB1F5801FE9D291F0000FA4
:1006A00004BF01460020B1FA81F308BF2033A3F153
:1006B0000B03B3F120020CDA0C3208DD02F1140C4A
:1006C000C2F10C0201FA0CF021FA02F10CE002F185
:1006D0001402D8BFC2F1200C01FA02F120FA0CFC7E
:1006E000DCBF41EA0C019040E41AA2BF01EB0451C7
:1006F000294330BD6FEA04041F3C1CDA0C340EDCC5
:1007000004F11404C4F1200220FA04F001FA02F307
:1007100040EA030021FA04F345EA030130BDC4F1C5
:100720000C04C4F1200220FA02F001FA04F340EABA
:100730000300294630BD21FA04F0294630BD94F06B
:10074000000F83F4801306BF81F480110134013D52
:100750004EE77FEA645C18BF7FEA655C29D094EAC3
:10076000050F08BF90EA020F05D054EA000C04BF41
:100770001946104630BD91EA030F1EBF002100202C
:1007800030BD5FEA545C05D14000494128BF41F0CB
:10079000004130BD14F580043CBF01F5801130BD2F
:1007A00001F0004545F0FE4141F470014FF00000BA
:1007B00030BD7FEA645C1ABF194610467FEA655C6B
:1007C0001CBF0B46024650EA013406BF52EA03350D
:1007D00091EA030F41F4002130BD00BF90F0000FFB
:1007E00004BF0021704730B54FF4806404F1320437
:1007F0004FF000054FF0000150E700BF90F0000FF0
:1008000004BF0021704730B54FF4806404F1320416
:1008100010F0004548BF40424FF000013EE700BFE6
:1008200042004FEAE2014FEA31014FEA02701FBF76
:1008300012F07F4393F07F4F81F06051704732F0A8
:100840007F4208BF704793F07F4F04BF41F40021FF
:10085000704730B54FF4607401F0004521F000415D
:100860001CE700BF50EA010208BF704730B54FF0E7
:1008700000050AE050EA010208BF704730B511F0E8
:10088000004502D5404261EB41014FF4806404F120
:1008900032045FEA915C3FF4D8AE4FF003025FEAA6
:1008A000DC0C18BF03325FEADC0C18BF033202EB2A
:1008B000DC02C2F1200300FA03FC20FA02F001FA84
:1008C00003FE40EA0E0021FA02F11444BDE600BF27
:1008D00053B94AB9002908BF00281CBF4FF0FF31A7
:1008E0004FF0FF3000F00CB8ADF1080C6DE904CE0C
:1008F00004F057F8DDF804E0DDE9022304B07047A6
:10090000704700BF10B5054C237833B9044B13B1C1
:100910000448AFF300800123237010BD10000020B5
:1009200000000000444C000808B5034B1BB103490C
:100930000348AFF3008008BD000000001400002051
:10094000444C000808B50368B3F1804F00D008BDDF
:1009500000F006FDFBE772B6FEE7000000B595B0BB
:100960003022002108A8FFF775FC002303930493AD
:100970000593069307930193204A116C41F080512F
:100980001164126C02F080520192019A02931C4B86
:100990001A6842F480421A601B6803F48043029391
:1009A000029B012308934FF48033099302220E9295
:1009B0004FF480030F9304231093A82111911292F6
:1009C000139308A800F0FCF898B90F2303930223AF
:1009D0000493002305934FF4A05306934FF48053E0
:1009E0000793052103A800F055FB20B915B05DF869
:1009F00004FBFFF7B0FFFFF7AEFF00BF0038024077
:100A00000070004000B583B000F090FCFFF7A6FF37
:100A100000F020F803F092FF0949002003F0C4F829
:100A2000084B0093084B094A0949002002F074FF63
:100A300002F0C6F900F032F802F0D4F9FEE700BF88
:100A40005C4C0008904C0008644C0008684C00089E
:100A5000704C000882B0002100910B4B1A6B42F0E1
:100A600080021A631A6B02F080020092009A0191D0
:100A70001A6B42F001021A631B6B03F0010301932E
:100A8000019B02B0704700BF0038024008B5024B1E
:100A9000186802F021FAFAE72C00002008B5044A91
:100AA0000021044802F0BAF9034B186008BD00BFEA
:100AB000F04E00088D0A00082C000020FEE7FEE73B
:100AC000FEE7FEE7FEE7704708B5024800F0A4FC29
:100AD00008BD00BF3000002000B583B000220092A6
:100AE0000D4B596C41F480415964596C01F48041BB
:100AF000009100990192196C41F0805119641B6CAE
:100B000003F080530193019B0F216FF0010000F06F
:100B1000F9FB03B05DF804FB0038024030B589B042
:100B2000044600230193224B1A6C42F001021A641E
:100B30001B6C03F001030193019B02A903A800F0C1
:100B40006FFB069BD3B900F05BFB0346194AA2FB7F
:100B500003239B0C013B18484FF08042026040F297
:100B6000E732C2604360002303618360836100F069
:100B70006FFD054630B1284609B030BD00F040FB9E
:100B80004300E3E70C4800F0FFFB05460028F2D1E4
:100B90001C2000F0C7FB0F2C01D90125EBE7002238
:100BA00021461C2000F0AEFB044B1C60E3E700BFB5
:100BB0000038024083DE1B43300000200400002088
:100BC000002800F0E08170B582B00446036813F09D
:100BD000010F3BD09F4B9B6803F00C03042B2CD0E0
:100BE0009C4B9B6803F00C03082B21D06368B3F582
:100BF000803F4FD0B3F5A02F52D0964B1A6822F405
:100C000080321A601A6822F480221A606368002B0E
:100C100050D000F0B1FB05468E4B1B6813F4003F2B
:100C200014D100F0A9FB401B6428F5D90320B1E1E1
:100C3000884B5B6813F4800FD8D0864B1B6813F485
:100C4000003F03D06368002B00F09F81236813F0FE
:100C5000020F54D07F4B9B6813F00C0F3ED07D4B9E
:100C60009B6803F00C03082B33D0E368002B68D09B
:100C7000794B01221A6000F07FFB0546754B1B681B
:100C800013F0020F54D100F077FB401B0228F5D976
:100C900003207FE16F4A136843F480331360B5E7A4
:100CA0006C4B1A6842F480221A601A6842F480324F
:100CB0001A60ABE700F060FB0546664B1B6813F457
:100CC000003FC3D000F058FB401B6428F5D9032037
:100CD00060E1604B5B6813F4800FC6D15D4B1B680D
:100CE00013F0020F03D0E368012B40F05081594A02
:100CF000136823F0F803216943EAC10313602368F2
:100D000013F0080F42D063696BB3534B0122C3F851
:100D1000802E00F031FB05464E4B5B6F13F0020F47
:100D200034D100F029FB401B0228F5D9032031E122
:100D3000484A136823F0F803216943EAC1031360AA
:100D4000DDE7454B00221A6000F016FB0546414BDB
:100D50001B6813F0020FD2D000F00EFB401B0228DC
:100D6000F5D9032016E13C4B0022C3F8802E00F099
:100D700003FB0546374B5B6F13F0020F06D000F004
:100D8000FBFA401B0228F5D9032003E1236813F086
:100D9000040F77D02F4B1B6C13F0805F33D10023EF
:100DA00001932C4B1A6C42F080521A641B6C03F0B6
:100DB00080530193019B0125284B1B6813F4807F0E
:100DC00023D0A368012B34D0052B38D0214B1A6FC8
:100DD00022F001021A671A6F22F004021A67A36850
:100DE000002B3DD000F0C8FA06461A4B1B6F13F0DB
:100DF000020F46D100F0C0FA801B41F288339842BE
:100E0000F3D90320C6E00025D6E7144A136843F45B
:100E10008073136000F0B0FA0646104B1B6813F4A1
:100E2000807FCED100F0A8FA801B0228F5D90320DC
:100E3000B0E0084A136F43F001031367CFE7054B97
:100E40001A6F42F004021A671A6F42F001021A6721
:100E5000C5E700BF00380240000047420070004074
:100E600000F08AFA0646524B1B6F13F0020F08D0AF
:100E700000F082FA801B41F288339842F3D90320B4
:100E800088E0EDB9A369002B00F08380484A92689E
:100E900002F00C02082A51D0022B17D0454B002239
:100EA0001A6600F069FA0446414B1B6813F0007F94
:100EB00042D000F061FA001B0228F5D9032069E056
:100EC0003B4A136C23F080531364DBE7394B002259
:100ED0001A6600F051FA0546354B1B6813F0007F87
:100EE00006D000F049FA401B0228F5D9032051E052
:100EF000E369226A1343626A43EA8213A26A5208D0
:100F0000013A43EA0243E26A43EA0263284A536031
:100F1000284B01221A6600F02FFA0446244B1B6866
:100F200013F0007F06D100F027FA001B0228F5D944
:100F300003202FE000202DE000202BE0012B2BD000
:100F40001B4B5B6803F48001E269914226D103F0F8
:100F50003F02216A8A4223D1616A47F6C0721A4071
:100F6000B2EB811F1ED103F44031A26A5208013A4C
:100F7000B1EB024F18D103F07063E26AB3EB026F7A
:100F800014D1002006E001207047012002E001207A
:100F900000E0002002B070BD0120FBE70120F9E76E
:100FA0000120F7E70120F5E70120F3E70120F1E751
:100FB000003802400000474208B5334B9B6803F0FD
:100FC0000C03042B5BD0082B5BD12F4B5A6802F02B
:100FD0003F025B6813F4800F2CD02B4B5868C0F392
:100FE00088104FEA401CBCEB000C6EEB0E0E4FEA73
:100FF0008E1343EA9C634FEA8C11B1EB0C0163EB57
:101000000E03DB0043EA5173C90011EB000C43F1FE
:101010000003590200234FEA4C2041EADC51FFF75C
:1010200057FC194B5B68C3F3014301335B00B0FB12
:10103000F3F008BD144B5868C0F388104FEA401C09
:10104000BCEB000C6EEB0E0E4FEA8E1343EA9C6372
:101050004FEA8C11B1EB0C0163EB0E03DB0043EAAA
:101060005173C90011EB000C43F1000399020023F6
:101070004FEA8C2041EA9C51FFF72AFCD1E7034854
:10108000D7E70348D5E700BF0038024000127A00D6
:101090000024F400002800F09B8070B50D46044643
:1010A0004F4B1B6803F007038B4208D2CBB24C4A6C
:1010B0001370136803F007038B4240F08B802368A2
:1010C00013F0020F17D013F0040F04D0454A9368B1
:1010D00043F4E0539360236813F0080F04D0414AAF
:1010E000936843F4604393603E4A936823F0F003AF
:1010F000A1680B439360236813F0010F32D063683B
:10110000012B21D09A1E012A25D9364A126812F0E5
:10111000020F61D033498A6822F0030213438B60C7
:1011200000F02AF906462F4B9B6803F00C03626817
:10113000B3EB820F16D000F01FF9801B41F2883309
:101140009842F0D9032042E0264A126812F4003F88
:10115000E0D101203BE0234A126812F0007FD9D190
:10116000012034E01E4B1B6803F00703AB4207D994
:10117000EAB21B4B1A701B6803F00703AB422DD178
:10118000236813F0040F06D0164A936823F4E05343
:10119000E1680B439360236813F0080F07D0114AEE
:1011A000936823F46043216943EAC1039360FFF726
:1011B00003FF0C4B9B68C3F303130B4AD35CD8406B
:1011C0000A4B18600A4B1868FFF7A8FC002070BD96
:1011D000012070470120FAE70120F8E70120F6E737
:1011E000003C0240003802401C4F0008080000206C
:1011F00004000020014B1868704700BF0800002061
:1012000008B5FFF7F7FF044B9B68C3F38223034A3B
:10121000D35CD84008BD00BF00380240144F00081E
:101220000F2303600B4B9A6802F0030242609A6836
:1012300002F0F00282609A6802F4E052C2609B6899
:10124000DB0803F4E0530361034B1B6803F007035F
:101250000B60704700380240003C0240002807DB6A
:1012600000F01F02400901239340024A42F8203057
:10127000704700BF00E100E0002808DB0901C9B2A7
:1012800000F1604000F5614080F80013704700F005
:101290000F000901C9B2014B1954704714ED00E069
:1012A00000B500F00700C0F1070CBCF1040F28BF27
:1012B0004FF0040C031D062B0FD9C31E4FF0FF3E49
:1012C0000EFA0CF021EA000199400EFA03FE22EA20
:1012D0000E0241EA02005DF804FB0023EEE7000085
:1012E000074AD36823F4E0631B041B0C000200F4DC
:1012F000E060034343F0BF6343F40033D3607047BF
:1013000000ED00E010B50446054BD868C0F302209C
:10131000FFF7C6FF01462046FFF7AEFF10BD00BF36
:1013200000ED00E008B5FFF799FF08BD08B50B4BCD
:101330001A6842F400721A601A6842F480621A60F5
:101340001A6842F480721A600320FFF7C9FF0F2069
:10135000FFF7E4FBFFF7C0FB002008BD003C0240A4
:10136000034A1168034B1B780B441360704700BF9E
:101370007800002000000020014B1868704700BF73
:10138000780000207047000090F83D30DBB2012B60
:1013900037D1022380F83D300268D36843F001035F
:1013A000D3600368194A934220D0B3F1804F1DD017
:1013B000A2F57C42934219D002F58062934215D087
:1013C00002F58062934211D002F5784293420DD02B
:1013D00002F57052934209D0A2F59432934205D09F
:1013E0001A6842F001021A60002070479A6802F001
:1013F0000702062A07D01A6842F001021A6000208C
:101400007047012070470020704700BF0000014076
:10141000704770477047704770B504460368DE68D0
:101420001D6915F0020F10D016F0020F0DD06FF0ED
:1014300002021A610123037703689B6913F0030F0B
:101440005ED0FFF7E6FF0023237715F0040F12D0DC
:1014500016F0040F0FD023686FF004021A61022304
:10146000237723689B6913F4407F4FD02046FFF712
:10147000D0FF0023237715F0080F12D016F0080FC5
:101480000FD023686FF008021A61042323772368C2
:10149000DB6913F0030F40D02046FFF7BAFF0023AB
:1014A000237715F0100F12D016F0100F0FD023680D
:1014B0006FF010021A61082323772368DB6913F4A5
:1014C000407F31D02046FFF7A4FF0023237715F09B
:1014D000010F02D016F0010F2DD115F0800F02D0B0
:1014E00016F0800F2FD115F0400F02D016F0400FEC
:1014F00031D115F0200F02D016F0200F33D170BD7E
:10150000FFF786FF2046FFF785FF9CE72046FFF7A1
:101510007FFF2046FFF77EFFABE72046FFF778FF0F
:101520002046FFF777FFBAE72046FFF771FF204616
:10153000FFF770FFC9E723686FF001021A612046C8
:10154000FFF700FAC9E723686FF080021A612046AE
:1015500000F0ABF8C7E723686FF040021A6120463D
:10156000FFF759FFC5E723686FF020021A61204694
:1015700000F09AF8C3E700000368344A904212D0A2
:10158000B0F1804F0FD0A2F57C4290420BD002F513
:101590008062904207D002F58062904203D002F54B
:1015A0007842904203D123F070034A681343274ADC
:1015B00090422AD0B0F1804F27D0A2F57C429042D1
:1015C00023D002F5806290421FD002F580629042E3
:1015D0001BD002F57842904217D002F5705290422B
:1015E00013D002F5806290420FD002F580629042E3
:1015F0000BD0A2F59832904207D002F5806290425B
:1016000003D002F58062904203D123F44073CA688C
:10161000134323F080034A69134303608B68C3625A
:101620000B688362094B984203D003F580639842AC
:1016300001D10B69036301234361036913F0010FB7
:1016400003D0036923F001030361704700000140E8
:1016500040B310B5044690F83D30F3B1022384F84E
:101660003D30214651F8040BFFF786FF012384F833
:10167000463084F83E3084F83F3084F8403084F8B7
:10168000413084F8423084F8433084F8443084F8A0
:10169000453084F83D30002010BD80F83C30FFF725
:1016A00071FEDBE70120704770477047034AD2F8AC
:1016B000883043F47003C2F88830704700ED00E0D2
:1016C00000F1080343604FF0FF328260C3600361A2
:1016D00000230360704700230361704743684B6039
:1016E0009A688A60516099600861036801330360F9
:1016F000704730B40D68B5F1FF3F11D000F1080319
:101700001C465B681A68AA42FAD963684B60996004
:101710008C606160086103680133036030BC70470E
:101720000469F2E70369416882688A604168516030
:101730005A68824206D0002202611A68013A1A6091
:101740001868704782685A60F5E710B5044601F0E2
:1017500091FDA26BE36B9A4204D0002401F0ACFD32
:10176000204610BD0124F9E710B5044601F082FDC2
:10177000A36B23B9012401F09FFD204610BD002476
:10178000F9E770B504461546866B026C5AB90368D2
:101790001BB100200136A66370BD806801F092F88D
:1017A0000023A360F6E76DB94068FEF7CDFD6368DE
:1017B000226C13446360A268934219D32368636068
:1017C0002846E7E7C068FEF7BFFDE368226C514298
:1017D0009B1AE3602268934202D2A3680B44E36041
:1017E000022D01D00020D5E726B1013E0020D1E72F
:1017F0002846CFE70020CDE70346026C6AB110B55A
:101800000846D9681144D9609C68A14201D319687F
:10181000D960D968FEF798FD10BD704738B5054608
:1018200001F028FD95F8454064B201E0013C64B246
:10183000002C0ADD6B6A43B105F1240000F08CFF37
:101840000028F3D001F01CF8F0E7FF2385F84530BD
:1018500001F032FD01F00EFD95F8444064B201E064
:10186000013C64B2002C0ADD2B6943B105F1100084
:1018700000F072FF0028F3D001F002F8F0E7FF2338
:1018800085F8443001F018FD38BD38B5E0B10D469B
:10189000044601F0EFFC2368E26B216C01FB02308F
:1018A000A0600020A0636360013A02FB0133E360A3
:1018B000FF2384F8443084F84530FDB9236963B9C7
:1018C00001F0FAFC012038BD4FF0500383F311887A
:1018D000BFF36F8FBFF34F8FFEE704F1100000F0EE
:1018E0003BFF0028ECD04FF0E0234FF08052C3F8CC
:1018F000042DBFF34F8FBFF36F8FE1E704F11000AA
:10190000FFF7DEFE04F12400FFF7DAFED8E738B572
:101910001D46049C0B4649B92460E0632364012101
:101920002046FFF7B2FF84F84C5038BD2260F4E740
:1019300040B94FF0500383F31188BFF36F8FBFF3AB
:101940004F8FFEE710B584B01C46844653B192B168
:1019500089B94FF0500383F31188BFF36F8FBFF342
:101960004F8FFEE74FF0500383F31188BFF36F8F63
:10197000BFF34F8FFEE76AB150230393039B502BB5
:1019800013D04FF0500383F31188BFF36F8FBFF371
:101990004F8FFEE70029EFD04FF0500383F31188FB
:1019A000BFF36F8FBFF34F8FFEE7039B012384F8D4
:1019B000463000949DF818306046FFF7A8FF204697
:1019C00004B010BDF0B585B0019288B10F461D4638
:1019D0000446B1B1022D20D1E36B012B1DD04FF095
:1019E000500383F31188BFF36F8FBFF34F8FFEE770
:1019F0004FF0500383F31188BFF36F8FBFF34F8F06
:101A0000FEE7036C002BE5D04FF0500383F3118801
:101A1000BFF36F8FBFF34F8FFEE700F043FF064623
:101A200058B9019B002B48D04FF0500383F3118825
:101A3000BFF36F8FBFF34F8FFEE700263DE02A46CE
:101A400039462046FFF79DFE636A7BB948B14FF0E7
:101A5000E0234FF08052C3F8042DBFF34F8FBFF344
:101A60006F8F01F029FC012005B0F0BD04F12400C6
:101A700000F072FE0028F4D04FF0E0234FF08052C7
:101A8000C3F8042DBFF34F8FBFF36F8FE9E701F069
:101A900013FC0020E8E702A800F0A4FE012619E0EC
:101AA000002384F8443021E0002384F8453023E00B
:101AB0002046FFF7B3FE00F02DFD01F0DBFBA26B2B
:101AC000E36B9A42BBD3022DB9D0019B002BDED031
:101AD000002EE0D001F0F0FB00F07AFC01F0CAFB30
:101AE00094F8442052B2B2F1FF3FD9D094F8452087
:101AF00052B2B2F1FF3FD7D001F0DEFB01A902A83C
:101B000000F07CFED8B92046FFF71FFE0028CFD09A
:101B1000019904F1100000F0EBFD2046FFF77EFE76
:101B200000F0F8FC0028C8D14FF0E0234FF08052BD
:101B3000C3F8042DBFF34F8FBFF36F8FBDE720466F
:101B4000FFF76CFE00F0E6FC00208DE72DE9F8437E
:101B500090B10F4616461C460546B1B1022C20D165
:101B6000EB6B012B1DD04FF0500383F31188BFF3B3
:101B70006F8FBFF34F8FFEE74FF0500383F3118851
:101B8000BFF36F8FBFF34F8FFEE7036C002BE5D0E1
:101B90004FF0500383F31188BFF36F8FBFF34F8F64
:101BA000FEE701F08DFCEFF311884FF0500383F353
:101BB0001188BFF36F8FBFF34F8FAA6BEB6B9A4205
:101BC00006D3022C04D0002088F31188BDE8F883E6
:101BD00095F845904FFA89F9AB6B2246394628466D
:101BE000FFF7CFFDB9F1FF3F06D009F101035BB26A
:101BF00085F845300120E7E76B6A0BB90120E3E780
:101C000005F1240000F0A8FD18B126B101203060D4
:101C1000DAE70120D8E70120D6E7F0B585B00192D8
:101C200090B10F460446C1B100F03CFE064600BB31
:101C3000019B002B5ED04FF0500383F31188BFF35C
:101C40006F8FBFF34F8FFEE74FF0500383F3118880
:101C5000BFF36F8FBFF34F8FFEE7036C002BE3D012
:101C60004FF0500383F31188BFF36F8FBFF34F8F93
:101C7000FEE700263EE039462046FFF7BDFD013D68
:101C8000A563236923B901F017FB012005B0F0BD5E
:101C900004F1100000F060FD0028F4D04FF0E023C4
:101CA0004FF08052C3F8042DBFF34F8FBFF36F8FF7
:101CB000E9E701F001FB0020E8E702A800F092FD4F
:101CC000012621E0002384F8443029E0002384F831
:101CD00045302BE02046FFF7A1FD00F01BFC09E09A
:101CE0002046FFF79BFD00F015FC2046FFF73CFD6A
:101CF00000283FD101F0BEFAA56B002DBBD1019B9E
:101D0000002BD6D0002ED8D001F0D6FA00F060FB20
:101D100001F0B0FA94F844305BB2B3F1FF3FD1D098
:101D200094F845305BB2B3F1FF3FCFD001F0C4FA75
:101D300001A902A800F062FD0028D1D12046FFF7DA
:101D400013FD0028C6D0019904F1240000F0D0FC56
:101D50002046FFF763FD00F0DDFB0028CAD14FF0FD
:101D6000E0234FF08052C3F8042DBFF34F8FBFF331
:101D70006F8FBFE7002089E70023072B0CD8074AA5
:101D800052F833200AB10133F7E7044A42F833101E
:101D900002EBC30250607047704700BF7C00002018
:101DA00070B504460D46164601F064FA94F84430C6
:101DB0005BB2B3F1FF3F0DD094F845305BB2B3F1A5
:101DC000FF3F0BD001F078FAA36B5BB12046FFF721
:101DD00025FD70BD002384F84430EDE7002384F82E
:101DE0004530EFE73246294604F1240000F098FC24
:101DF000ECE7002301E0013001330278A52AFAD094
:101E0000C3F38F0070470000084B1B681B6823B9A1
:101E1000074B4FF0FF321A607047044B1B68DB68BA
:101E2000DB685A68024B1A60704700BF2C01002023
:101E3000C40000202DE9F04780460D46174699461C
:101E4000089EDDF824A00A9C9200A521206BFEF7D5
:101E500001FA236B07F18042013A03EB820727F076
:101E60000707A5B34FF0000CBCF10F0F09D815F808
:101E70000C3004EB0C0282F8343013B10CF1010C7D
:101E8000F2E7002384F84330372E00D93726E66284
:101E9000E66400252565201DFFF71DFC04F11800F0
:101EA000FFF719FC2461C6F13806A6616462656516
:101EB00084F858504A464146384601F0ADF9206052
:101EC000BAF1000F01D0CAF80040BDE8F087002346
:101ED00084F83430D8E7000038B5002407E004EB7C
:101EE000840293000E481844FFF7EAFB0134372CB4
:101EF000F5D90C4D2846FFF7E3FB0B4C2046FFF7C6
:101F0000DFFB0A48FFF7DCFB0948FFF7D9FB09486C
:101F1000FFF7D6FB084B1D60084B1C6038BD00BFA7
:101F2000580100204401002030010020140100204D
:101F300000010020E80000202C01002028010020E2
:101F400010B5044601F096F9224A13680133136074
:101F5000214B1B685BB1214B1B686BB91E4B1B6887
:101F6000DA6AE36A9A4207D81B4B1C6004E01A4BFA
:101F70001C601368012B29D0194A136801331360C0
:101F80006364E06A174B1B68984201D9154B1860CF
:101F900000EB8000211D144B03EB8000FFF79EFB3C
:101FA00001F08AF90D4B1B687BB10B4B1B68DA6A99
:101FB000E36A9A4209D24FF0E0234FF08052C3F80F
:101FC000042DBFF34F8FBFF36F8F10BDFFF784FF5A
:101FD000D2E700BFE4000020B8050020D8000020B0
:101FE000C8000020DC0000205801002010B5044685
:101FF00090F8593063B1012B11D0022B0ED04FF065
:10200000500383F31188BFF36F8FBFF34F8FFEE749
:10201000006B01F085F8204601F082F810BD01F058
:102020007FF8FBE70F4B1B68D3B110B501F022F925
:102030000D4BDB68DC68201DFFF774FB0B4A13684F
:10204000013B1360074A1368013B136001F034F948
:102050002046FFF7CBFF034B1B68002BE6D110BDDA
:10206000704700BFFC00002000010020E4000020B9
:1020700008B5FFF7D7FF074B1B68012BF9D94FF0C5
:10208000E0234FF08052C3F8042DBFF34F8FBFF30E
:102090006F8FEEE75801002070B504460D46174BD0
:1020A0001E68174B18680430FFF73CFBB4F1FF3F84
:1020B0000DD03444124B1B685C60A64210D9114B02
:1020C00018680F4B19680431FFF713FB70BD002D22
:1020D000EFD00B4B196804310B48FFF7FFFAF5E717
:1020E0000A4B1868064B19680431FFF702FB084BCE
:1020F0001B68A342EAD9064B1C60E7E7E00000201A
:10210000B805002028010020E80000202C01002054
:10211000C400002030B587B00B9C7CB10C9DB5B1DC
:102120005C250495049D5C2D1AD04FF0500383F379
:102130001188BFF36F8FBFF34F8FFEE74FF050034F
:1021400083F31188BFF36F8FBFF34F8FFEE74FF01C
:10215000500383F31188BFF36F8FBFF34F8FFEE7F8
:10216000049D0C9D2C63022485F85940002403949F
:10217000029505AC01940A9C0094FFF75BFE0C9855
:10218000FFF7DEFE059807B030BD2DE9F04385B0BE
:102190000746884614461E46900000F03FFF08B3ED
:1021A00081465C2000F03AFF0546A8B1C0F83090A7
:1021B000002380F85930039302900D9B01930C9BF0
:1021C00000933346224641463846FFF733FE284601
:1021D000FFF7B6FE012007E0484600F0A1FF4FF0F0
:1021E000FF3001E04FF0FF3005B0BDE8F0830000A4
:1021F00038B5044601F03EF824B3251D2846FFF704
:1022000091FAA36A1BB104F11800FFF78BFA1F4A79
:102210001368013313601E4B1B68A34215D01D4A7F
:102220001368013B13602046FFF7E0FEFFF7ECFD6B
:1022300001F042F8184B1B681BB1154B1B68A342F9
:102240000CD038BD124B1C68D7E729461348FFF75E
:1022500045FA134A136801331360E9E7114B1B6811
:1022600043B14FF0500383F31188BFF36F8FBFF377
:102270004F8FFEE74FF0E0234FF08052C3F8042D5C
:10228000BFF34F8FBFF36F8FDBE700BFC8000020A5
:10229000B8050020E4000020D80000200001002044
:1022A000FC000020BC000020F8B5D0B104461D4B56
:1022B0001B6883422DD000F0DDFF65691A4B1E6854
:1022C0001A4B1F6800F0F8FFB54224D0BD4224D05D
:1022D000174B9D420ED0174B9D4220D0BDB101201F
:1022E00018E04FF0500383F31188BFF36F8FBFF3F3
:1022F0004F8FFEE7A36A0BB102200BE094F8583031
:10230000DBB2012B01D0032004E0022002E0042014
:1023100000E00020F8BD0220FCE70220FAE70420DC
:10232000F8E700BFB80500202C010020280100209C
:10233000E80000200001002010B588B000240594BA
:10234000069407AA06A905A800F0ECFD059B0293D8
:10235000069B019300942346079A17491748FFF7F5
:10236000D9FE174B1860C0B100F060FB012815D1F1
:102370004FF0500383F31188BFF36F8FBFF34F8F7C
:10238000104B4FF0FF321A600F4B01221A600F4BB7
:1023900000221A6001F008F803E00020B0F1FF3FCE
:1023A00001D008B010BD4FF0500383F31188BFF384
:1023B0006F8FBFF34F8FFEE7A44C00087120000819
:1023C000C0000020C4000020D8000020E000002051
:1023D000024A136801331360704700BFBC0000203D
:1023E000014B1868704700BFE000002008B501F0FD
:1023F00067F8014B186808BDE0000020F8B53A4BBB
:102400001B68002B69D1394B1D6801351D60C5B9AA
:10241000374B1B681B6843B14FF0500383F311889F
:10242000BFF36F8FBFF34F8FFEE7314A1168314B17
:10243000186810601960304A136801331360FFF7A1
:10244000E3FC2E4B1B68AB423DD900272C4B1B688D
:10245000DB6A03EB83039A002A4B9B58012B00D9BC
:102460000127294B1B68002B3CD001273AE00127AC
:102470001F4B1B681B6843B31D4B1B68DB68DC6884
:1024800063689D4226D3261D3046FFF74BF9A36AA9
:102490001BB104F11800FFF745F9E36A1B4A126803
:1024A000934201D9194A136003EB83039A00314622
:1024B00014481044FFF712F9E26A114B1B68DB6AFB
:1024C0009A42D4D2D4E70027D2E70C4B4FF0FF3228
:1024D0001A60BBE7094A1360B8E70D4A1368013375
:1024E000136000273846F8BDBC000020E000002043
:1024F0002C01002028010020CC000020C400002076
:10250000B805002058010020D0000020DC00002089
:10251000D400002038B5354B1B6843B94FF0500349
:1025200083F31188BFF36F8FBFF34F8FFEE700F087
:10253000A1FE2E4B1A68013A1A601B68002B4FD17E
:102540002B4B1B680BB900244BE00024294B1B6864
:102550001BB3284BDB68DC6804F11800FFF7E2F8D6
:10256000251D2846FFF7DEF8E06A234B1B689842DA
:1025700001D9214B186000EB800029461F4B03EB6B
:102580008000FFF7ABF8E26A1D4B1B68DB6A9A42DA
:10259000DCD31C4B01221A60D8E70CB1FFF734FCE6
:1025A000194B1C6884B9174B1C68D4B14FF0E02359
:1025B0004FF08052C3F8042DBFF34F8FBFF36F8FDE
:1025C00001240EE0013C07D0FFF718FF0028F9D0E6
:1025D0000C4B01221A60F5E70B4B00221A60E2E770
:1025E000002400F069FE204638BD00BFBC0000207A
:1025F000E400002014010020DC000020580100202D
:10260000B8050020D0000020D400002010B5A8B1EB
:102610000446104B1B6843B14FF0500383F31188FD
:10262000BFF36F8FBFF34F8FFEE7FFF7D1FE00219F
:102630002046FFF731FDFFF76DFF48B94FF0E0236B
:102640004FF08052C3F8042DBFF34F8FBFF36F8F4D
:1026500010BD00BFBC000020204B1B681BB1204BED
:1026600001221A6070471E4B00221A601D4B1B6826
:1026700003EB83018A001C498A585AB90BB1013B0C
:10268000F6E74FF0500383F31188BFF36F8FBFF36A
:102690004F8FFEE7084603EB83018A00024451682E
:1026A0004968516003EB830C4FEA8C020832024404
:1026B00091420BD003EB830291000B4A0A4452680B
:1026C000D1680A4A1160074A136070474868624639
:1026D0009100054A0A445060ECE700BFBC000020AE
:1026E000D0000020DC00002058010020B8050020A8
:1026F00058B110B50C46094A11681831FEF7F9FFB8
:1027000001212046FFF7C8FC10BD4FF0500383F3B2
:102710001188BFF36F8FBFF34F8FFEE7B80500201E
:1027200038B570B10D4614460A4A11681831FEF7E3
:10273000D5FF0CB14FF0FF3521462846FFF7ACFC22
:1027400038BD4FF0500383F31188BFF36F8FBFF391
:102750004F8FFEE7B805002038B5C368DC6824B3A6
:1027600004F118052846FEF7DDFF184B1B682BBB4C
:10277000251D2846FEF7D6FFE06A154B1B689842D8
:1027800001D9134B186000EB80002946114B03EB75
:102790008000FEF7A3FFE26A0F4B1B68DB6A9A42D8
:1027A00011D901200D4B186038BD4FF0500383F351
:1027B0001188BFF36F8FBFF34F8FFEE7294608489C
:1027C000FEF78CFFE7E70020EEE700BFBC0000202B
:1027D000DC00002058010020B8050020D0000020B7
:1027E00014010020034B1B680360034B1B6843600C
:1027F000704700BFCC000020E0000020F8B5C8B151
:102800000C460546F9B100F035FD1B4B19686B68A5
:10281000C81A2268B2F1FF3F26D0184E36682F68DA
:10282000B74201D08B4224D9824215D800232360BD
:1028300001241AE04FF0500383F31188BFF36F8F28
:10284000BFF34F8FFEE74FF0500383F31188BFF3C0
:102850006F8FBFF34F8FFEE75B1A13442360284648
:10286000FFF7C0FF002400E0002400F025FD204613
:10287000F8BD0124F9E700BFE0000020CC000020F3
:10288000014B01221A607047D000002008B50346B2
:1028900018B1186BFFF7ADFA08BD014B1B68F8E7DC
:1028A000B8050020054B1B6833B1054B1B680BB105
:1028B000002070470220704701207047D800002098
:1028C000BC00002000283BD038B504461E4B1B68D6
:1028D000834208D04FF0500383F31188BFF36F8F0A
:1028E000BFF34F8FFEE7036D43B94FF0500383F3FF
:1028F0001188BFF36F8FBFF34F8FFEE7013B036576
:10290000C16AC26C91421DD00BB1002038BD051DBB
:102910002846FEF707FFE06CE062C0F13803A361D0
:102920000A4B1B68984201D9084B186000EB8000E5
:102930002946074B03EB8000FEF7D0FE0120E5E7B8
:10294000002070470020E1E7B8050020DC000020EF
:1029500058010020064B1A6813682BB90123036045
:1029600023B9D368186870470023F8E70020704740
:10297000BC06002008B54160006191420CD8D21A13
:1029800083699A4201D3012008BD011D094B1868D3
:10299000FEF7AFFE0020F7E79A4201D2994206D235
:1029A000011D054B1868FEF7A4FE0020ECE701208E
:1029B000EAE700BFB8060020BC06002030B583B0AF
:1029C00000F058FC114B1B681BB100F075FC03B004
:1029D00030BD0F4D2846FEF773FE0E4C2046FEF725
:1029E0006FFE0D4B1D600D4B1C60002300930C4BC4
:1029F0000C4A10210A20FEF79BFF044B18600028A8
:102A0000E3D00949FFF7B8F9DFE700BFB4060020BB
:102A1000D4060020C0060020BC060020B806002016
:102A2000BC0500200C060020AC4C000810B588B096
:102A3000FFF7C4FF124B1B68CBB10024059406942A
:102A400007AA06A905A800F079FA059B0293069B40
:102A50000193022300932346079A0A490A48FFF785
:102A600059FB0A4B186010B1012008B010BD4FF09F
:102A7000500383F31188BFF36F8FBFF34F8FFEE7CF
:102A8000B4060020B44C0008912D0008B0060020C8
:102A9000B8B19C4603461848006858B300B585B0E5
:102AA00000910192029305291CDCFFF7FBFE02282E
:102AB00010D000231A4669460F480068FEF782FFCF
:102AC00015E04FF0500383F31188BFF36F8FBFF30E
:102AD0004F8FFEE70023069A694607480068FEF715
:102AE00071FF04E0002362466946FFF72FF805B046
:102AF0005DF804FB00207047B406002070B582B07A
:102B00001B4B1B681A6862B3DB681E68DC68251DF6
:102B10002846FEF707FE236A2046984794F8283097
:102B200013F0040FECD0A36933449E4207D26360D4
:102B3000246129460E4B1868FEF7DBFDE0E7002113
:102B400000910B4632462046FFF7A2FF0028D7D15E
:102B50004FF0500383F31188BFF36F8FBFF34F8F94
:102B6000FEE7044A106802490860136002B070BDB5
:102B7000BC060020B806002038B50546FFF730FC3B
:102B80000446074B1B68834205D800232B60044B87
:102B90001C60204638BDFFF7B1FF01232B60F6E72C
:102BA000AC06002070B582B006460D46174909688C
:102BB000C968CC68201DFEF7B5FD94F828C01CF04C
:102BC000040F08D12CF0010C84F828C0236A204699
:102BD000984702B070BDA16933462A463144204669
:102BE000FFF7C8FE0028F1D0002100910B463246C5
:102BF0002046FFF74DFF0028E8D14FF0500383F344
:102C00001188BFF36F8FBFF34F8FFEE7BC06002024
:102C100070B582B006460C46FFF7DAFB01A8FFF755
:102C2000ABFF019B33BB0546E4B9B04213D2224649
:102C3000711B124B1868FFF7B3F8FFF76BFCD8B99C
:102C40004FF0E0234FF08052C3F8042DBFF34F8FB5
:102C5000BFF36F8F10E0FFF75DFC29463046FFF7AA
:102C6000A1FF09E0064A126812680AB90124DEE7EA
:102C70001C46DCE7FFF74EFC02B070BDB406002036
:102C8000B806002010B588B002E0049B002B0FDAD4
:102C9000002204A93D4B1868FEF7BFFF002873D03F
:102CA000049B002BF1DA07990698059B9847ECE7FF
:102CB000069C636913B1201DFEF734FD03A8FFF7DE
:102CC0005BFF049B092BE3D8DFE803F00505053023
:102CD00037500505303794F8283043F0010384F865
:102CE0002830059BA169024619442046FFF742FEA1
:102CF0000028CDD0236A2046984794F8283013F056
:102D0000040FC5D0A269002100910B46059802442A
:102D10002046FFF7BDFE0028BAD14FF0500383F3E1
:102D20001188BFF36F8FBFF34F8FFEE794F8283001
:102D300023F0010384F82830AAE794F8283043F000
:102D4000010384F828300599A16131B10346024698
:102D500001442046FFF70EFE9AE74FF0500383F33D
:102D60001188BFF36F8FBFF34F8FFEE794F82830C1
:102D700013F0020F04D023F0010384F8283087E712
:102D8000204600F0CDF983E708B010BDB40600205E
:102D900000B583B001A8FFF7DDFD0199FFF738FF0B
:102DA000FFF770FFF6E708B54FF0E0231B69FFF768
:102DB00079FD012800D108BD00F0CCFAFBE7000046
:102DC000EFF305832BB9064B186828B901221A6066
:102DD00070476FF0050070474FF0FF30704700BF3D
:102DE000A00D0020EFF3058373B90A4B1B68012B7C
:102DF0000DD110B50024084BDC77064B02221A6077
:102E0000FFF79AFA204610BD6FF0050070474FF0AB
:102E1000FF307047A00D002000ED00E0F0B587B056
:102E200000240594EFF3058474BB68B322B31568DE
:102E3000936903B918235C1E372C49D8546814F0E1
:102E4000010F47D156696EB14FEA960C94682CB1C8
:102E5000D7685B2F02D9176907B1C6B92CB14FF0FB
:102E6000FF340EE04FF0800CF0E7D4688CB91469A1
:102E700094B14FF0FF3404E01546002418234FF0BE
:102E8000800C012C0AD0ACB1059807B0F0BD01242C
:102E9000F7E74FF0FF34F4E70024F2E71469926893
:102EA0000292019400930B4662462946FFF732F9DD
:102EB0000590E9E705AA019200930B461FFA8CF2F0
:102EC0002946FFF762F90128DED000230593DBE7EE
:102ED0000020DAE70020D8E7EFF305835BB910B5EF
:102EE000044658B1FFF7E0F904280AD02046FFF75E
:102EF0007FF9002010BD6FF0050070476FF00300F0
:102F0000F8E76FF00200F5E708B5EFF3058333B992
:102F100008B9002008BDFFF779FB0020FAE76FF041
:102F20000500F7E7034B0360034B0B60802313603E
:102F3000704700BF440D0020440B0020034B03608A
:102F4000034B0B604FF4807313607047E80A002056
:102F5000E8060020124A12F0070F1ED0D11D21F002
:102F60000701C1F5705313440A460E480260002160
:102F700041601344083B23F007030B48036059608A
:102F80001960991A51601360084B1960084B196059
:102F9000084B4FF000421A6070474FF47053E4E75B
:102FA000C40D0020BC0D0020B80D0020B00D002085
:102FB000B40D0020A40D0020164B1A461B68834256
:102FC000FBD3516802EB010C844509D0416800EB4A
:102FD000010C634509D00360904219D0106070471E
:102FE0004068014451601046F0E710B40A4C246870
:102FF000A3420BD05B681944416013681B680360EF
:10300000904200D010605DF8044B70470460F7E711
:10301000704700BFBC0D0020B80D002038B5044635
:10302000FFF7D6F9384B1B68B3B1384B1B681C420D
:1030300050D1002C50D004F1080214F0070F02D038
:1030400022F007020832002A55D0314B1B68934208
:1030500053D330490C6804E0FFF77CFFE5E72146D5
:103060001C466368934202D22368002BF7D1264B9B
:103070001B68A34243D00D68083523680B60636862
:103080009B1A102B10D9A01810F0070F08D04FF082
:10309000500383F31188BFF36F8FBFF34F8FFEE7A9
:1030A00043606260FFF788FF626819490B689B1AEA
:1030B0000B60194909688B4201D217490B60134B09
:1030C0001B681343636000232360144A13680133B1
:1030D000136002E0002500E00025FFF71BFA15F061
:1030E000070F0ED04FF0500383F31188BFF36F8F9B
:1030F000BFF34F8FFEE70025EFE70025EDE7002542
:10310000EBE7284638BD00BFB80D0020A40D002015
:10311000B40D0020BC0D0020B00D0020AC0D00202F
:10312000002834D038B50446A0F1080550F8043C16
:10313000174A1268134208D14FF0500383F31188E5
:10314000BFF36F8FBFF34F8FFEE750F8081C41B1FC
:103150004FF0500383F31188BFF36F8FBFF34F8F8E
:10316000FEE723EA020340F8043CFFF731F954F884
:10317000041C084A13680B4413602846FFF71CFF21
:10318000054A136801331360FFF7C4F938BD70476F
:10319000A40D0020B40D0020A80D002082B0002353
:1031A00001930D4B1B68B3F1FF3F08D04FF0500364
:1031B00083F31188BFF36F8FBFF34F8FFEE74FF09C
:1031C000500383F31188BFF36F8FBFF34F8F019BC1
:1031D000002BFCD002B070470C00002008480068AB
:1031E000006880F308884FF0000080F3148862B60E
:1031F00061B6BFF34F8FBFF36F8F00DF00BF0000DA
:1032000008ED00E0DFF80C00016841F47001016096
:103210007047000088ED00E04FF0807340F8043CF8
:1032200021F0010140F8081C054B40F80C3C40F827
:10323000202C6FF0020340F8243C4438704700BF54
:103240009D310008000000000000000000000000A8
:10325000074B19680868B0E8F04F80F30988BFF39E
:103260006F8F4FF0000080F311887047AFF300803C
:10327000B80500204FF0500383F31188BFF36F8F20
:10328000BFF34F8F0B4A136801331360012B00D03B
:1032900070474FF0E023D3F8043D13F0FF0FF7D051
:1032A0004FF0500383F31188BFF36F8FBFF34F8F3D
:1032B000FEE700BF0C000020094B1B6843B94FF02C
:1032C000500383F31188BFF36F8FBFF34F8FFEE777
:1032D000013B034A13600BB983F31188704700BFA9
:1032E0000C000020000000000000000000000000B2
:1032F000EFF30980BFF36F8F154B1A681EF0100FA4
:1033000008BF20ED108A20E9F04F10602DE9090078
:103310004FF0500080F31188BFF34F8FBFF36F8FD2
:10332000FFF79AF94FF0000080F3118809BC196883
:103330000868B0E8F04F1EF0100F08BFB0EC108A1C
:1033400080F30988BFF36F8F704700BFAFF3008031
:10335000B805002008B54FF0500383F31188BFF380
:103360006F8FBFF34F8FFFF749F828B14FF0E0237D
:103370004FF08052C3F8042D002383F3118808BD59
:103380004FF0E022002313619361054B1B68054950
:10339000A1FB03139B09013B536107231361704792
:1033A00008000020D34D62104FF0E023D3F8002D29
:1033B0003D4B9A421CD04FF0E023D3F8002D3B4BFD
:1033C0009A421ED030B583B0394B1A78D2B20192EE
:1033D000FF221A701B78DBB28DF803309DF80330A2
:1033E00003F05003334A1370334B07221A601BE07B
:1033F0004FF0500383F31188BFF36F8FBFF34F8FEC
:10340000FEE74FF0500383F31188BFF36F8FBFF3D4
:103410004F8FFEE7284A1368013B13609DF8033085
:103420005B00DBB28DF803309DF8033013F0800FA2
:10343000F0D1214B1B68032B08D04FF0500383F3CE
:103440001188BFF36F8FBFF34F8FFEE71B021A4A3D
:10345000136003F4E0631360019BDBB2144A137042
:103460004FF0E024D4F8203D43F47003C4F8203D2D
:10347000D4F8203D43F07043C4F8203DFFF780FFAF
:1034800000250E4B1D60FFF7BDFED4F8343F43F01E
:103490004043C4F8343FFFF7A1FEFFF7DDF8FFF724
:1034A0007DFE284603B030BD71C20F4170C20F418E
:1034B00000E400E0C8490020C44900200C000020BE
:1034C000EFF305830F2B0FD9114A9B5CDBB2114A36
:1034D00012789A4208D94FF0500383F31188BFF352
:1034E0006F8FBFF34F8FFEE74FF0E023D3F80C3D13
:1034F00003F4E063084A1268934208D94FF050037E
:1035000083F31188BFF36F8FBFF34F8FFEE77047D0
:10351000F0E300E0C8490020C449002010B504468B
:103520008268531C4068834205D820688154A36098
:10353000E3680133E360A26863689A4200D010BD7B
:103540002168206900F016FBA368984203D04FF071
:10355000FF33E360F3E70023A360F0E72DE9F84FC2
:1035600081460F4615461E46DDF828A00B9A0B46ED
:103570004FF0010803E0B3FBF5F308F10108AB429B
:10358000F9D2B04500D2B04612F0010B18D1BAF111
:10359000000F15D012F0020F02D0BEB1202400E0BF
:1035A0002024BAF1000F0BD0C24509D90AF1FF3A25
:1035B00021464846FFF7B2FFD9F80C30002BF0DA6D
:1035C000D9F80C30002B25DB012404E03024E8E797
:1035D000013E05FB04F4012EFAD8B7FBF4F39D423B
:1035E000F7D900E01C46B7FBF4F304FB1377124A4B
:1035F000D15C4846FFF792FFD9F80C30002B03DB73
:10360000B4FBF5F3AC42EDD2BBF1000F02D0BAF13E
:10361000000F01D1BDE8F88FBAF1000FFAD0C24512
:10362000F8D90AF1FF3A20214846FFF777FFD9F889
:103630000C30002BF0DAEDE72C4F00082DE9F047B5
:1036400082B007468846154699460A9EDDF82CA0AA
:1036500081EAE17CACEBE17C012402E09CFBF5FC1F
:1036600001346545FADD4C4500D24C4636B1B8F11F
:10367000000F02DB1AF0040F00D0013E1AF0020F17
:1036800002D0B9F1000F03D01AF0010F00D1AEB98A
:10369000FB68002B0FDBB8F1000F1CDB1AF0040FE6
:1036A00020D1FB68002B06DB0AF00303022B1ED09F
:1036B000FB68002B2DDA02B0BDE8F087002EE7D0C2
:1036C000A642E5D9013E20213846FFF727FFFB68D7
:1036D000002BF3DADCE7C8F100082D213846FFF7AC
:1036E0001DFFDEE72B213846FFF718FFD9E7B9F1B8
:1036F000000FDDD1002EDBD0002ED9D0A642D7D9C5
:10370000013E30213846FFF709FFFB68002BF3DA52
:10371000CEE7CDF804A000964B462A4641463846EF
:10372000FFF71CFFC7E70000F0B599B006460C464E
:10373000154603AB1393402314930023159317905E
:1037400016938BE00020012211E040F001000134CB
:103750000CE040F00200013408E040F004000134C5
:1037600004E040F00800013400E0002212B32378A6
:10377000233B0D2BF9D801A151F823F06337000842
:103780006B3700086B3700086B3700086B37000891
:103790006B3700086B3700086B3700085B37000891
:1037A0006B3700084B3700086B3700086B37000891
:1037B000533700082378A3F13001C9B2092907D88B
:1037C000013402EB820203EB4203A3F13002F1E782
:1037D0002E2B02D00023217814E00134002306E0D0
:1037E000013403EB830301EB4301A1F130032178A2
:1037F000A1F1300C5FFA8CFCBCF1090FF0D9EAE7BB
:1038000014F8011F6C29FBD06829F9D025296DD047
:1038100020D378291ED858291CD35839202919D8E3
:10382000DFE801F03D1818181818181818181811A2
:10383000271818181818181818181818571818488A
:10384000183218183D002B681A1D2A60197813A821
:10385000FFF764FE0134169B002B4CDB14F8011BB0
:10386000002948D025293FF46DAF13A8FFF756FE75
:10387000F1E729680F1D2F600968019000920A2264
:1038800013A8FFF7DBFEE5E729680F1D2F60096825
:10389000019000920A2213A8FFF760FEDAE7296878
:1038A0000F1D2F60096801900092102213A8FFF7E6
:1038B00055FECFE72B681A1D2A601F6817F8011BF9
:1038C0000029C7D013A8FFF729FE169B002BF5DAB5
:1038D000C0E72B681A1D2A6019680023019308238A
:1038E0000093102213A8FFF739FEB3E7252113A890
:1038F000FFF714FEAEE7169B002B05DD159A32B9D3
:10390000169B159A13441693169819B0F0BD03A987
:10391000304600F02FF9F3E70EB400B582B003ABE8
:1039200053F8041B019301AAFFF7FEFE02B05DF8F5
:1039300004EB03B070470369C268934204D88168FE
:103940008A1A1344581E7047981A013870472DE997
:10395000F843044688461646C5688768A7EB0509FC
:10396000914509D940682844FCF7EEFCBFF35F8F0E
:103970003544E560BDE8F88340684A462844FCF7D2
:10398000E3FCED1B35442A4608EB09016068FCF7AF
:10399000DBFCBFF35F8FE560ECE72DE9F8430646FB
:1039A00088461746C5684FF000091AE05B1B5A1E8F
:1039B000B3685C1B944228BF1446BC4228BF3C46F7
:1039C0007068224641462844FCF7BEFCA144A0444E
:1039D0003F1B2544B368AB420BD0BFF35F8FF5604C
:1039E0004FB133699D42E1D3B2685B1B1A44013A7F
:1039F000DEE70025F1E74846BDE8F88310B5154C31
:103A0000A82200212046FCF725FC032323616361E3
:103A1000114AA261114BE3614FF4806323620023DA
:103A2000A3626362E36222660D4A62661022A266A6
:103A30002367E3666367BFF35F8F06E0C3F10F029E
:103A40000849895C034AD15401330F2BF6D9BFF3DF
:103A50005F8F10BDDC4D0020BC4C0008DC4900200D
:103A6000CC4900203C4F00082DE9F0470446884629
:103A70009146244B1B78C3B104EB4402214B03EB6A
:103A8000C2031F6FDD6EAF4212D80026ED1B4D45FD
:103A900028BF4D463DBB2EB104EB4404194B03EB4C
:103AA000C4031F673046BDE8F087FFF7A7FFE3E7D1
:103AB0001346144A02EBC30ADAF86860F61B4E4557
:103AC00028BF4E46DAF86410324639444046FCF7C7
:103AD0003BFCB044A9EB06093744DAF86830BB4236
:103AE000D4D10027D2E704EB4402064B03EBC20318
:103AF000596E2A4639444046FCF726FC2E442F4492
:103B0000C9E700BFDC4D0020F8B50F461646441C3F
:103B100004EB4404164B03EBC40400EB400003EB3E
:103B2000C003DD6A012D0ED0022D1AD0F5B9204652
:103B3000FFF701FF864212D8324639462046FFF78A
:103B400006FF35460BE02046FFF7F5FE3546864278
:103B500028BF05462A4639462046FFF7F8FE284684
:103B6000F8BD2046FFF719FF0546F8E70025F6E700
:103B7000DC4D0020F8B504460D461646094B1B786F
:103B80006BB1EFF311874FF0200181F311883246BA
:103B900029462046FFF7B8FF87F31188F8BDFFF7E5
:103BA0002DFFEEE7DC4D002038B505460C460846F3
:103BB000FCF766FC024621462846FFF7DBFF38BDCE
:103BC000F8B507460E4615461C461F4B1B78002BC2
:103BD00034D0EFF311824FF0200181F311880020DF
:103BE00000F1010C0CEB4C0C174B03EBCC0CDCF88C
:103BF000043023B10130144B1B698342F0DC124BBB
:103C00001B6983421DDD104B411C01EB410C4FEA47
:103C1000CC0C43F80C7001EB410103EBC1014E6089
:103C200000EB400103EBC1031D6200219962596260
:103C3000DC62BFF35F8F82F31188F8BDFFF7DEFE11
:103C4000C7E74FF0FF30F6E7DC4D00202DE9F041EB
:103C50000446884617461E46174B1B7833B3022C82
:103C600027D8EFF311804FF0200181F311887CB148
:103C700004EB4403104D05EBC30CCCF86080CCF88A
:103C80006470CCF868600023CCF87030CCF86C30ED
:103C900004EB4404084B03EBC403069A5A67BFF3D2
:103CA0005F8F80F311880020BDE8F081FFF7A6FE4A
:103CB000D5E74FF0FF30F7E7DC4D002008B5FFF700
:103CC0009DFE08BD08B5FEF791FBC30E4101091A20
:103CD00063F100039B0043EA91738900091843F1E3
:103CE0000003DB00C80043EA517108BD10B586B07F
:103CF0000024019402940394049405940190029189
:103D000003920493089B059301A800F007FB06B0FB
:103D100010BD0000F0B583B0002511E00B4E05EB9F
:103D20008504A70006EB8404F059FEF7AFFD20617F
:103D30000090E368A2686168F059FFF7D7FF01358A
:103D4000034B1B68AB42E9D803B0F0BD884E00209E
:103D5000844E002084460B4629B310B4002100E0B5
:103D600001315C5C002CFBD1914200D80A46FE2A4E
:103D700004D8604600F8012B00210FE0FF218CF8E9
:103D800000108CF80120110A0CF103008CF80210CD
:103D9000F2E713F801CB00F801CB01319142F8D3DF
:103DA0005DF8044B7047002200F8012B002104E06D
:103DB00013F801CB00F801CB01319142F8D37047E1
:103DC0000430704710B584B001238DF80430184BCF
:103DD0005B690DF1050204E063F07F0102F8011B4D
:103DE000DB097F2BF8D802F8013B124B5C68104BC3
:103DF000DB68E31A04E063F07F0102F8011BDB09D2
:103E00007F2BF8D802F8013B01A9521A084B5878C9
:103E1000FCF7D6F930B1064BDC601A78013A1A701B
:103E200004B010BD024A536901335361F8E700BF83
:103E300010500020001000E02DE9F04782B0074646
:103E40000E4690461D46DFF8589000234FF48062DE
:103E50000F494846FFF7B4FEC0B20E4C60702076A2
:103E60004FF0000ACDF800A008230B4A4946FFF79F
:103E7000EDFEC4F810A0094B5B68E360C4F8208035
:103E80006760A660656284F800A002B0BDE8F087B4
:103E9000405000201050002038500020001000E05A
:103EA000C84C0008014B1861704700BF105000203B
:103EB00008B5034B1B6A13B15B6803B1984708BD93
:103EC0001050002010B5064B1C6824B910BD98474F
:103ED0002469002CFAD0E368002BF8D1F8E700BF82
:103EE0000C50002010B5EFF311844FF0200181F346
:103EF00011880B48FFF764FF0A4B1B78014604E06A
:103F000063F07F0201F8012BDB097F2BF8D801F861
:103F1000013B1B2200F0B2F884F3118810BD00BFF2
:103F2000284F00200B50002038B5294D01232B705D
:103F3000EFF311844FF0200181F311880A22254903
:103F40006878FCF73DF984F311880A2000F014F931
:103F5000EFF311844FF0200181F311881E48FFF721
:103F60002FFF6A68034604E062F07F0103F8011B3B
:103F7000D2097F2AF8D803F8012B154A926804E089
:103F800062F07F0103F8011BD2097F2AF8D803F8F9
:103F9000012B0F4A126904E062F07F0103F8011B54
:103FA000D2097F2AF8D8194601F8022B00225A704C
:103FB000182200F063F884F31188054B5B6A03B1A3
:103FC000984700F037F9FFF773FFFFF78BFF38BD15
:103FD00010500020584F0008284F002000B583B033
:103FE00001220DF10701244B187EFFF73DFD00284B
:103FF00022DD9DF80730072B0AD85AB28AB35A1E21
:10400000062A2ED8DFE802F0161B1E2124272A00DC
:104010007F2B11D0802B24D101220DF10701164BEB
:10402000187EFFF721FD002806DD9DF8070000F04F
:10403000F1F901E0FFF778FF03B05DF804FB00F051
:1040400011F9F9E700F0F6F8F6E7FFF731FFF3E7CB
:1040500000F024F9F0E7FFF745FFEDE7FFF732FF47
:10406000EAE713F0800FE7D001220DF10701024BC0
:10407000187EFFF7F9FCDFE71050002070B5064608
:104080000C461546394B1B78012B03D0002B4CD026
:10409000022B0DD01F2D12D8344BDB69EB4013F0EF
:1040A000010F42D1172D0AD8711E06F8015C1BE0E2
:1040B000FFF788FE2D4B1B78012B36D1EAE7A31BB7
:1040C0007F2B17D9DA0906F8012CB21E63F07F03A3
:1040D00006F8023C7F2D11D9EB0902F8013C911E34
:1040E00065F07F0502F8025C214B5D681F4BDB68C1
:1040F000EB1A0EE0721E06F8013CEBE7511E02F8C7
:10410000015CF1E7224663F07F0002F8010BDB0956
:1041100014467F2BF6D804F8013B621A134B5878EB
:10412000FCF74EF8A0B1114BDD60104B1B7E114A1D
:1041300003EB430102EBC101C96E03EB430302EB46
:10414000C302136F994202D0084B9B782BB170BD0C
:10415000064A137801331370E7E7044C0123A37078
:10416000FFF73CFF0023A370F1E700BF10500020D1
:10417000001000E0DC4D002038B50446EFF3118557
:104180004FF0200181F311880448FFF719FE014622
:104190002246FFF773FF85F3118838BD284F0020B2
:1041A00070B506460C46EFF311854FF0200181F300
:1041B00011880A48FFF704FE014604E064F07F031B
:1041C00001F8013BE4097F2CF8D801F8014B324695
:1041D000FFF754FF85F3118870BD00BF284F002002
:1041E000F8B506460F461446EFF311854FF020014F
:1041F00081F311880E48FFF7E3FD014604E067F004
:104200007F0301F8013BFF097F2FF8D801F8017BFC
:1042100004E064F07F0301F8013BE4097F2CF8D847
:1042200001F8014B3246FFF729FF85F31188F8BDED
:10423000284F002008B5094B1B6A43B11B6833B1F6
:1042400098470A4601460D20FFF7CAFF08BD044BF8
:1042500059680C20FFF7A4FFF8E700BF10500020BA
:10426000001000E010B5EFF311844FF0200181F34E
:1042700011880848FFF7A4FD074B1B7813B984F396
:10428000118810BD0B220146FFF7F8FE024B0022F9
:104290001A70F4E7284F00201050002010B5EFF3FB
:1042A00011844FF0200181F311881A48FFF788FD2F
:1042B000194B5A68034604E062F07F0103F8011BC2
:1042C000D2097F2AF8D803F8012B134A926804E038
:1042D00062F07F0103F8011BD2097F2AF8D803F8A6
:1042E000012B0D4A126904E062F07F0103F8011B03
:1042F000D2097F2AF8D8194601F8022B00225A70F9
:104300001822FFF7BBFE84F31188034B5B6A03B1ED
:10431000984710BD284F00201050002070B5064669
:10432000EFF311854FF0200181F311882A48FFF740
:1043300047FD04463368294A12699B1A04E063F07A
:104340007F0200F8012BDB097F2BF8D800F8013B36
:10435000B36804E063F07F0200F8012BDB097F2BD8
:10436000F8D800F8013B20227168FFF7F3FC014602
:1043700009222046FFF782FE3268184B1B69D21AC9
:10438000234604E062F07F0103F8011BD2097F2A73
:10439000F8D803F8012BF26804E062F07F0103F81B
:1043A000011BD2097F2AF8D803F8012B326904E0F7
:1043B00062F07F0103F8011BD2097F2AF8D8194661
:1043C00001F8022B00225A7015222046FFF756FEF4
:1043D00085F3118870BD00BF284F002010500020C9
:1043E00070B50546EFF311864FF0200181F3118877
:1043F0000748FFF7E5FC044680222946FFF7AAFCA0
:1044000001460E222046FFF739FE86F3118870BD63
:10441000284F0020F8B51B4B1C6894B300230746B7
:10442000984203D924690CB10133F8E74CB3EFF398
:1044300011864FF0200181F311881348FFF7C0FC6B
:10444000054604E067F07F0300F8013BFF097F2F7A
:10445000F8D800F8017BA36804E063F07F0200F85D
:10446000012BDB097F2BF8D800F8013B8022216863
:10447000FFF770FC014616222846FFF7FFFD86F382
:104480001188F8BD0C500020284F002008B50348C3
:10449000FFF7A6FF0248FFF7A3FF08BDD04C0008B6
:1044A000044D000808B5064B1868064B064A01463D
:1044B000FFF7C2FC4FF08050FFF7F4FC08BD00BFCF
:1044C000080000208D440008504F000808B5FFF791
:1044D000F5FB08BD0E4B1B78C3B982B00C4B012213
:1044E0001A700C4B5B680193019A0B4B1B689A4244
:1044F00003D20A4A136801331360064B5A68064B0D
:104500001A60034B00221A7002B07047704700BF58
:1045100058540020001000E0685400206C54002023
:1045200008B5124AD2F8FC3043F08073C2F8FC3070
:104530000F4B002159601A6842F001021A600D4BBE
:1045400003FB00F00C4B18600C4BA3FB00239B09F2
:104550000B4A13600B4BA3FB0030800C0A4B186016
:104560000A4B1960FFF7B6FF08BD00BF00ED00E081
:10457000001000E040420F0078540020D34D62103C
:104580007454002083DE1B43705400206C540020C0
:104590002DE9F04182B0294B5B680193FFF79AFF48
:1045A000274B1C6800266508E3071B1B65F1000507
:1045B000DB186D411C1945F10005019BE41845F11C
:1045C0000005204B1C605D601F4BD3F80080424605
:1045D000334620462946FCF77BF907461B4B1860FB
:1045E00059604246334620462946FCF771F9104689
:1045F0001C461546164B1A605C60DFF86480C8F8EC
:104600000070144B1F683A4633462146FCF760F9A8
:1046100080B2A8F8040000FB07F7E81B64F1000172
:104620000D4B186059600D4B1A683346FCF750F972
:10463000A8F8060002B0BDE8F08100BF001000E05D
:104640006C54002060540020785400205054002006
:10465000485400207454002040540020705400201E
:104660007C54002008B5FFF793FF0B4A116893882C
:104670004FF47A7000FB013300EE103AB8EE400AB6
:10468000D38807EE903AF8EEE77A9FED047A67EE6A
:10469000877A30EE270A08BD7C5400206F12833AD7
:1046A00000B585B0002425E001341D4B9C42FBDDA4
:1046B000FFF7D8FF1B4BD3ED007A30EE670A1A4B99
:1046C00083ED000AF7EE007AB4EEE70AF1EE10FA95
:1046D0000DDD164B029310EE100AFCF7A1F8CDE9A0
:1046E0000001134B134A14490020FFF715F902206B
:1046F000FEF70AFCFFF7B6FF0A4B83ED000A0B4DED
:1047000000950E4B0E4A0F490020FFF705F9009562
:10471000074B084A0C490020FFF7FEF8C5E700BF29
:10472000A08601009854002094540020904C00086A
:10473000344D0008384D0008644D0008644C0008F2
:10474000684C0008144D0008404D000800B585B0C5
:104750000FE0029510EE100AFCF762F8CDE90001B7
:10476000164B174A17490020FFF7D6F80120FEF72D
:10477000CBFBFFF777FF144C84ED000A134D009537
:10478000134B144A14490020FFF7C6F800950B4B51
:104790000B4A12490020FFF7BFF8FFF763FFD4ED83
:1047A000007A30EE670A0E4B83ED000AF7EE007ACE
:1047B000B4EEE70AF1EE10FACBDCD7E7344D00088F
:1047C000384D0008DC4D000890540020904C000843
:1047D000644C0008684C0008944D0008B44D000873
:1047E0008C54002000B585B00FE0029410EE100A42
:1047F000FCF716F8CDE900011A4B1B4A1B490020B3
:10480000FFF78AF80120FEF77FFBFFF72BFF184D1B
:1048100085ED000A174C0094174B184A18490020E0
:10482000FFF77AF800940F4B0F4A16490020FFF764
:1048300073F80094144B154A15490020FFF76CF8E3
:10484000FFF710FFD5ED007A30EE670A114B83EDCC
:10485000000AF7EE007AB4EEE70AF1EE10FAC4DCD3
:10486000D0E700BF344D0008384D00088C4E0008DA
:1048700088540020904C0008644C0008684C0008E4
:10488000104E0008304E0008584E00085C4E0008DC
:10489000644E00088454002008B5A820FFF740FEAD
:1048A000FFF714FE08BD000070B59CB02426324608
:1048B000002113A8FBF7CEFC174B13934FF40075A0
:1048C00018951824199413AA00211448FEF7A6FA83
:1048D000134B1860324600210AA8FBF7BBFC114BB2
:1048E0000A930F9510940AAA00210F48FEF796FA32
:1048F0000E4B18603246002101A8FBF7ABFC0C4BB5
:1049000001930695079401AA00210A48FEF786FA4A
:10491000094B18601CB070BDC04E0008A1460008CD
:10492000A4540020D04E00084D470008A054002099
:10493000E04E0008E54700089C54002008B572B618
:10494000FFF7B2FFFFF7A8FFFFF7ACFD62B608BDA7
:10495000DFF834D0FCF7AAFE0C480D490D4A0023BD
:1049600002E0D458C4500433C4188C42F9D30A4A24
:104970000A4C002301E013600432A242FBD3FBF790
:10498000BBFCFCF73FF8704700000220000000204D
:1049900010000020744F000810000020A8540020D0
:1049A000FEE72DE9F04786468C460846089E1546E8
:1049B00074461946002B40F0C2808542B2FA82F25A
:1049C00045D94AB1C2F1200300FA02FC2EFA03F3E2
:1049D000954043EA0C0C94404FEA154EA8B2BCFB3C
:1049E000FEF8230C0EFB18CC08FB00F943EA0C433D
:1049F000994528D9EB1808F1FF3704D2994502D917
:104A0000A8F102072B44A3EB0903A4B2B3FBFEFCFD
:104A10000EFB1C330CFB00F044EA0344A04214D903
:104A20002C190CF1FF3304D2A04202D9ACF10203DD
:104A30002C44241A43EA07401EB1D44000233460BA
:104A40007360BDE8F0874746DDE76346F1E792BB58
:104A5000431B01214FEA154EAFB2B3FBFEFC200C05
:104A60000EFB1C330CFB07F840EA0343984562D960
:104A7000EB180CF1FF3004D2984502D9ACF10200DA
:104A80002B44A3EB0803A4B2B3FBFEFC0EFB1C33C8
:104A90000CFB07F744EA0344A7424ED92C190CF14A
:104AA000FF3304D2A74202D9ACF102032C44E41B29
:104AB00043EA0040C0E7C2F1200320FA03F1954029
:104AC00090402EFA03F303434FEA154EAFB2B1FB09
:104AD000FEFC0EFB1C10190C0CFB07F841EA004110
:104AE000884504FA02F422D969180CF1FF3004D287
:104AF000884502D9ACF102002944A1EB08019BB220
:104B0000B1FBFEFC0EFB1C110CFB07F743EA014353
:104B10009F420ED9EB180CF1FF3104D29F4202D90B
:104B2000ACF102012B44DB1B41EA004192E76046F5
:104B3000E3E76146F7E76046A3E76346B7E78342EA
:104B400006D916B9002108467BE7C6E900E0F9E777
:104B5000B3FA83F78FB9834201D3724508D8BEEB0D
:104B6000020460EB030301209C461EB9002168E7A4
:104B70003846FAE7C6E9004CF8E7C7F1200CBB401D
:104B800022FA0CF41C432EFA0CF120FA0CF3B84074
:104B900001434FEA14490EFA07F5B3FBF9F81FFA7F
:104BA00084FE09FB18300B0C08FB0EFA43EA0043A5
:104BB0009A4502FA07F240D9E31808F1FF3004D20F
:104BC0009A4502D9A8F102002344A3EB0A0389B253
:104BD000B3FBF9F809FB183308FB0EFE41EA034169
:104BE0008E452CD9611808F1FF3304D28E4502D9C5
:104BF000A8F10203214443EA0040A0FB0298A1EB84
:104C00000E014145CE46434602D306D14D4504D25E
:104C1000B9EB020E68EB04030138002EA6D0B5EB09
:104C20000E0261EB030101FA0CFC22FA07F34CEAD5
:104C30000303F940C6E9003198E74046C5E743461B
:104C4000D9E70000F8B500BFF8BC08BC9E46704725
:0C4C5000F8B500BFF8BC08BC9E467047D9
:104C5C0020201B5B324A0000493A00001B5B313BB1
:104C6C0033326D00202025732573467265655254CE
:104C7C004F53206973205265616479210A0D0A250E
:104C8C00730000001B5B306D000000006465666102
:104C9C00756C745461736B0049444C450000000002
:104CAC00546D725100000000546D722053766300F5
:104CBC005465726D696E616C000000005379735617
:104CCC00696577004E3D4672656552544F532044DA
:104CDC00656D6F204170706C69636174696F6E2CC7
:104CEC00443D436F727465782D4D342C4F3D4672A4
:104CFC00656552544F530000492331353D53797348
:104D0C005469636B000000002020257325734C6FE1
:104D1C00675461736B2069732072756E6E696E6770
:104D2C00210D0A2573000000453A00001B5B313B46
:104D3C0033316D002020257325734C6F67546173DC
:104D4C006B2077696C6C20626520626C6F636B659D
:104D5C0064210D0A257300002020257325734C6FE8
:104D6C00675461736B206973206265696E672044B8
:104D7C00454C41592121212064743D205B25665D01
:104D8C00206D730D0A25730020202573257344654F
:104D9C006275675461736B2069732072756E6E69EE
:104DAC006E67210D0A257300202025732573446539
:104DBC006275675461736B2077696C6C2062652037
:104DCC00626C6F636B6564210D0A25730000000033
:104DDC0020202573257344656275675461736B20BD
:104DEC006973206265696E672044454C41592121E5
:104DFC00212064743D205B25665D206D730D0A25B2
:104E0C00730000002020257325734D6F746F72544E
:104E1C0061736B2069732072756E6E696E67210DFC
:104E2C000A2573002020257325734D6F746F7254FF
:104E3C0061736B2077696C6C20626520626C6F63A8
:104E4C006B6564210D0A257300000000573A0000C1
:104E5C001B5B313B33336D00202025732573506C65
:104E6C0065617365206D616B6520736F6D65207076
:104E7C00726F74656374696F6E210D0A257300007F
:104E8C002020257325734D6F746F725461736B20E2
:104E9C006973206265696E672044454C4159212134
:104EAC00212064743D205B25665D206D730D0A2501
:104EBC00730000004C6F675461736B48616E646CD7
:104ECC006500000044656275675461736B48616EE0
:104EDC00646C65004D6F746F725461736B48616ED6
:104EEC00646C6500984C0008000000000000000095
:104EFC00000000000000000000020000180000008C
:104F0C00000000000000000000000000010203048B
:104F1C00000000000000000001020304060708095D
:104F2C0030313233343536373839414243444546D3
:104F3C00000000000000545452205245474745538E
:104F4C0000000000C53C0008153D000800000000F2
:084F5C0000000000000000004D
:084F6400E4B3FF7F010000002F
:044F6C002909000807
:044F70000509000827
:104F740001000000100000000024F400AAAAAAAA5C
:040000050800495155
:00000001FF
