:020000040800F2
:100000000000022075EA00088540000887400008CB
:10001000894000088B4000088D4000080000000067
:10002000000000000000000000000000819E0008A9
:100030008F40000800000000219F0008919B0008ED
:10004000C5EA0008C5EA0008C5EA0008C5EA0008D4
:10005000C5EA0008C5EA0008C5EA000891400008A2
:10006000C5EA0008C5EA0008C5EA0008C5EA0008B4
:10007000C5EA00089D400008C5EA0008C5EA000876
:10008000AD400008BD400008C5EA0008C5EA000808
:10009000CD400008DD400008C5EA0008C5EA0008B8
:1000A000C5EA0008C5EA0008C5EA0008C5EA000874
:1000B000ED400008C5EA0008C5EA0008C5EA0008E6
:1000C000C5EA0008C5EA0008C5EA0008C5EA000854
:1000D000C5EA0008FD40000819410008C5EA00080B
:1000E000C5EA0008C5EA0008C5EA0008C5EA000834
:1000F000C5EA0008C5EA0008C5EA0008C5EA000824
:10010000C5EA0008C5EA0008C5EA0008C5EA000813
:1001100029410008C5EA0008C5EA0008C5EA000848
:10012000C5EA0008C5EA000845410008C5EA00081C
:10013000C5EA0008C5EA0008C5EA0008C5EA0008E3
:100140005541000865410008C5EA000875410008EE
:10015000C5EA0008C5EA000885410008C5EA0008AC
:10016000C5EA0008C5EA0008C5EA0008C5EA0008B3
:10017000C5EA0008C5EA0008C5EA0008000000005A
:08018000C5EA0008C5EA000809
:1001900010B5054C237833B9044B13B10448AFF3C1
:1001A00000800123237010BDD00800200000000053
:1001B000F8F9000808B5034B1BB103490348AFF336
:1001C000008008BD00000000D4080020F8F90008F5
:1001D000F0B400EB4003DFF8880000EBC30000F14F
:1001E00018063069F7687568874232D3B368DC1B3C
:1001F000631E934214D37D19D01900BF11F8013B3F
:1002000005F8013B013A05D011F8013B05F8013B27
:10021000013AF3D1BFF35F8FF0600120F0BC70476B
:10022000C018904219D37819121B11F8013B00F83D
:10023000013B013CF9D1141C05D011F8013B05F834
:10024000013B013AF9D1BFF35F8FF4600120F0BCAC
:100250007047C01B01389042CDD20020F0BC7047DF
:100260003822012010F8012B11F8013B012A28BF88
:100270009A42F7D0D01A7047034613F8012B002A90
:10028000FBD1181A0138704781F0004102E000BF2D
:1002900083F0004330B54FEA41044FEA430594EA46
:1002A000050F08BF90EA020F1FBF54EA000C55EA81
:1002B000020C7FEA645C7FEA655C00F0E2804FEA52
:1002C0005454D4EB5555B8BF6D420CDD2C4480EA34
:1002D000020281EA030382EA000083EA010180EA64
:1002E000020281EA0303362D88BF30BD11F0004FB2
:1002F0004FEA01314FF4801C4CEA113102D04042E8
:1003000061EB410113F0004F4FEA03334CEA133322
:1003100002D0524263EB430394EA050F00F0A7803A
:10032000A4F10104D5F1200E0DDB02FA0EFC22FA35
:1003300005F2801841F1000103FA0EF2801843FA29
:1003400005F359410EE0A5F120050EF1200E012A1A
:1003500003FA0EFC28BF4CF0020C43FA05F3C01858
:1003600051EBE37101F0004507D54FF0000EDCF1D1
:10037000000C7EEB00006EEB0101B1F5801F1BD37A
:10038000B1F5001F0CD349085FEA30004FEA3C0C7E
:1003900004F101044FEA445212F5800F80F09A8074
:1003A000BCF1004F08BF5FEA500C50F1000041EB78
:1003B000045141EA050130BD5FEA4C0C404141EB7C
:1003C0000101013C28BFB1F5801FE9D291F0000F77
:1003D00004BF01460020B1FA81F308BF2033A3F126
:1003E0000B03B3F120020CDA0C3208DD02F1140C1D
:1003F000C2F10C0201FA0CF021FA02F10CE002F158
:100400001402D8BFC2F1200C01FA02F120FA0CFC50
:10041000DCBF41EA0C019040E41AA2BF01EB045199
:10042000294330BD6FEA04041F3C1CDA0C340EDC97
:1004300004F11404C4F1200220FA04F001FA02F3DA
:1004400040EA030021FA04F345EA030130BDC4F198
:100450000C04C4F1200220FA02F001FA04F340EA8D
:100460000300294630BD21FA04F0294630BD94F03E
:10047000000F83F4801306BF81F480110134013D25
:100480004EE77FEA645C18BF7FEA655C29D094EA96
:10049000050F08BF90EA020F05D054EA000C04BF14
:1004A0001946104630BD91EA030F1EBF00210020FF
:1004B00030BD5FEA545C05D14000494128BF41F09E
:1004C000004130BD14F580043CBF01F5801130BD02
:1004D00001F0004545F0FE4141F470014FF000008D
:1004E00030BD7FEA645C1ABF194610467FEA655C3E
:1004F0001CBF0B46024650EA013406BF52EA0335E0
:1005000091EA030F41F4002130BD00BF90F0000FCD
:1005100004BF0021704730B54FF4806404F1320409
:100520004FF000054FF0000150E700BF90F0000FC2
:1005300004BF0021704730B54FF4806404F13204E9
:1005400010F0004548BF40424FF000013EE700BFB9
:1005500042004FEAE2014FEA31014FEA02701FBF49
:1005600012F07F4393F07F4F81F06051704732F07B
:100570007F4208BF704793F07F4F04BF41F40021D2
:10058000704730B54FF4607401F0004521F0004130
:100590001CE700BF50EA010208BF704730B54FF0BA
:1005A00000050AE050EA010208BF704730B511F0BB
:1005B000004502D5404261EB41014FF4806404F1F3
:1005C00032045FEA915C3FF4D8AE4FF003025FEA79
:1005D000DC0C18BF03325FEADC0C18BF033202EBFD
:1005E000DC02C2F1200300FA03FC20FA02F001FA57
:1005F00003FE40EA0E0021FA02F11444BDE600BFFA
:1006000070B54FF0FF0C4CF4E06C1CEA11541DBFA8
:100610001CEA135594EA0C0F95EA0C0F00F0DEF873
:100620002C4481EA030621EA4C5123EA4C5350EA58
:10063000013518BF52EA033541F4801143F48013A9
:1006400038D0A0FB02CE4FF00005E1FB02E506F03A
:100650000042E0FB03E54FF00006E1FB03569CF08F
:10066000000F18BF4EF0010EA4F1FF04B6F5007F95
:1006700064F5407404D25FEA4E0E6D4146EB060607
:1006800042EAC62141EA55514FEAC52040EA5E5090
:100690004FEACE2EB4F1FD0C88BFBCF5E06F1ED83A
:1006A000BEF1004F08BF5FEA500E50F1000041EB71
:1006B000045170BD06F0004646EA010140EA02001E
:1006C00081EA0301B4EB5C04C2BFD4EB0C0541EA40
:1006D000045170BD41F480114FF0000E013C00F355
:1006E000AB8014F1360FDEBF002001F0004170BD79
:1006F000C4F10004203C35DA0C341BDC04F1140492
:10070000C4F1200500FA05F320FA04F001FA05F21D
:1007100040EA020001F0004221F0004110EBD370EA
:1007200021FA04F642EB06015EEA430E08BF20EA16
:10073000D37070BDC4F10C04C4F1200500FA04F3B9
:1007400020FA05F001FA04F240EA020001F000414B
:1007500010EBD37041F100015EEA430E08BF20EABE
:10076000D37070BDC4F1200500FA05F24EEA020E06
:1007700020FA04F301FA05F243EA020321FA04F035
:1007800001F0004121FA04F220EA020000EBD370EC
:100790005EEA430E08BF20EAD37070BD94F0000FEC
:1007A0000FD101F00046400041EB010111F4801F20
:1007B00008BF013CF7D041EA060195F0000F18BFD1
:1007C000704703F00046520043EB030313F4801F0D
:1007D00008BF013DF7D043EA0603704794EA0C0FC7
:1007E0000CEA135518BF95EA0C0F0CD050EA4106DD
:1007F00018BF52EA4306D1D181EA030101F000415A
:100800004FF0000070BD50EA410606BF1046194681
:1008100052EA430619D094EA0C0F02D150EA01368D
:1008200013D195EA0C0F05D152EA03361CBF1046CE
:1008300019460AD181EA030101F0004141F0FE416D
:1008400041F470014FF0000070BD41F0FE4141F4F1
:10085000780170BD70B54FF0FF0C4CF4E06C1CEAF1
:1008600011541DBF1CEA135594EA0C0F95EA0C0FA6
:1008700000F0A7F8A4EB050481EA030E52EA033561
:100880004FEA013100F088804FEA03334FF0805582
:1008900045EA131343EA12634FEA022245EA1115AF
:1008A00045EA10654FEA00260EF000419D4208BF60
:1008B000964244F1FD0404F5407402D25B084FEA0D
:1008C0003202B61A65EB03055B084FEA32024FF4B9
:1008D00080104FF4002CB6EB020E75EB030E22BF16
:1008E000B61A754640EA0C005B084FEA3202B6EBD6
:1008F000020E75EB030E22BFB61A754640EA5C0085
:100900005B084FEA3202B6EB020E75EB030E22BF14
:10091000B61A754640EA9C005B084FEA3202B6EB15
:10092000020E75EB030E22BFB61A754640EADC00D4
:1009300055EA060E18D04FEA051545EA16754FEA36
:1009400006164FEAC30343EA52734FEAC2025FEA54
:100950001C1CC0D111F4801F0BD141EA00014FF0E3
:1009600000004FF0004CB6E711F4801F04BF0143B4
:100970000020B4F1FD0C88BFBCF5E06F3FF6AFAED0
:10098000B5EB030C04BFB6EB020C5FEA500C50F160
:10099000000041EB045170BD0EF0004E4EEA1131E3
:1009A00014EB5C04C2BFD4EB0C0541EA045170BDEA
:1009B00041F480114FF0000E013C90E645EA060E2E
:1009C0008DE60CEA135594EA0C0F08BF95EA0C0F5C
:1009D0003FF43BAF94EA0C0F0AD150EA01347FF4A4
:1009E00034AF95EA0C0F7FF425AF104619462CE77B
:1009F00095EA0C0F06D152EA03353FF4FDAE1046DE
:100A0000194622E750EA410618BF52EA43067FF42E
:100A1000C5AE50EA41047FF40DAF52EA43057FF4BE
:100A2000EBAE12E74FEA4102B2F1E04324BFB3F567
:100A3000001CDCF1FE5C0DD901F0004C4FEAC00255
:100A40004CEA5070B2F1004F40EB830008BF20F039
:100A50000100704711F0804F21D113F13872BCBFF3
:100A600001F00040704741F480114FEA5252C2F148
:100A70001802C2F1200C10FA0CF320FA02F018BF91
:100A800040F001004FEAC1234FEAD32303FA0CFCE4
:100A900040EA0C0023FA02F34FEA4303CCE77FEA73
:100AA000625307D150EA01331EBF4FF0FE4040F4BD
:100AB0004000704701F0004040F0FE4040F400006C
:100AC000704700BF53B94AB9002908BF00281CBFAE
:100AD0004FF0FF314FF0FF3001F0DEB8ADF1080C00
:100AE0006DE904CE00F006F8DDF804E0DDE902234C
:100AF00004B070472DE9F047089D04468E46002B50
:100B00004DD18A42944669D9B2FA82F252B101FAC1
:100B100002F3C2F1200120FA01F10CFA02FC41EAD1
:100B2000030E94404FEA1C48210CBEFBF8F61FFA56
:100B30008CF708FB16E341EA034306FB07F19942F1
:100B40000AD91CEB030306F1FF3080F01F819942A4
:100B500040F21C81023E63445B1AA4B2B3FBF8F07E
:100B600008FB103344EA034400FB07F7A7420AD905
:100B70001CEB040400F1FF3380F00A81A74240F22D
:100B800007816444023840EA0640E41B00261DB198
:100B9000D4400023C5E900433146BDE8F0878B42CD
:100BA00009D9002D00F0EF800026C5E9000130468C
:100BB0003146BDE8F087B3FA83F6002E4AD18B4266
:100BC00002D3824200F2F980841A61EB0303012010
:100BD0009E46002DE0D0C5E9004EDDE702B9FFDEFC
:100BE000B2FA82F2002A40F09280A1EB0C014FEAA7
:100BF0001C471FFA8CFE0126200CB1FBF7F307FB04
:100C0000131140EA01410EFB03F0884208D91CEBA6
:100C1000010103F1FF3802D2884200F2CB80434643
:100C2000091AA4B2B1FBF7F007FB101144EA014422
:100C30000EFB00FEA64508D91CEB040400F1FF31B1
:100C400002D2A64500F2BB800846A4EB0E0440EA9F
:100C500003409CE7C6F12007B34022FA07FC4CEAA8
:100C6000030C20FA07F401FA06F31C43F9404FEA9B
:100C70001C4900FA06F3B1FBF9F8200C1FFA8CFEB0
:100C800009FB181140EA014108FB0EF0884202FA04
:100C900006F20BD91CEB010108F1FF3A80F08880C5
:100CA000884240F28580A8F102086144091AA4B282
:100CB000B1FBF9F009FB101144EA014100FB0EFE03
:100CC0008E4508D91CEB010100F1FF346CD28E4532
:100CD0006AD90238614440EA0840A0FB0294A1EBC3
:100CE0000E01A142C846A64656D353D05DB1B3EB20
:100CF000080261EB0E0101FA07F722FA06F3F14050
:100D00001F43C5E9007100263146BDE8F087C2F1F6
:100D10002003D8400CFA02FC21FA03F3914001436E
:100D20004FEA1C471FFA8CFEB3FBF7F007FB1036A7
:100D30000B0C43EA064300FB0EF69E4204FA02F453
:100D400008D91CEB030300F1FF382FD29E422DD9A6
:100D5000023863449B1B89B2B3FBF7F607FB1633DB
:100D600041EA034106FB0EF38B4208D91CEB01015B
:100D700006F1FF3816D28B4214D9023E6144C91ADB
:100D800046EA004638E72E46284605E70646E3E6EB
:100D90001846F8E64B45A9D2B9EB020864EB0C0EF5
:100DA0000138A3E74646EAE7204694E74046D1E704
:100DB000D0467BE7023B614432E7304609E76444B2
:100DC000023842E703685A004CBF43F0004323F067
:100DD00000431844704700BF2DE9F84329B34F1E64
:100DE000044615463E464FF0000808EB060101EBAD
:100DF000D171491004EBC1094846FFF7E3FF0346F0
:100E0000C80008308F42204409D0AB4209D8FFF710
:100E1000D9FF0138A8420AD201F10108E5E7AB4247
:100E200005D9884501D04E1EDFE74FF0000948463E
:100E3000BDE8F883012807D0022807D0044B00281A
:100E40000CBF1846002070470248704702487047A0
:100E50000D150008111500081515000830B5234BB5
:100E600083B004468D1E3BB301A92846AFF3008032
:100E7000E8B101992A46FFF7AFFF0146B8B1FFF785
:100E8000A1FF4B68A064012B2CD0002B01F10400C2
:100E900024DBFFF797FF0023C4E913030368002B4B
:100EA00011DBFFF78FFF2061002003B030BD00236E
:100EB0000920236103B030BD0D4B0E49C91AC9107A
:100EC00018460191D6E7C3F30360FFF7B3FF00288C
:100ED000206114BF0020092003B030BD0123C4E904
:100EE0001303DBE7002323610520DEE70000000099
:100EF000C00C0108500E01080368DA0710B504465B
:100F000006D49B0700F1480009D500F05BFC23687C
:100F1000590709D51A070ED5DB0613D510BD00F009
:100F200049FC23685907F5D404F1D00000F052FCC5
:100F300023681A07F0D404F5A87000F053FC236866
:100F4000DB06EBD404F5E870BDE8104000F08EBC81
:100F5000092070470346006800B11844704700BF7D
:100F6000704700BF70B504460E46316C2046FFF74F
:100F700075FF054688B9326C6261236932462146A5
:100F8000012098470828F0D0072806D12846316C60
:100F9000FFF7E6FF301D00F001FC0EF02FFB00BF55
:100FA0002DE9F0470D1DD0F80C80D0F818900746B9
:100FB00014460FCDADF5727D0DF10C0CACE80F00B1
:100FC0000FCDACE80F000FCDACE80F0095E80F0097
:100FD00002AE4FF0000E8CE80F00C6F800E020E0F3
:100FE000336C7B614FF4F07231467AA80EF066FBE9
:100FF0003B697AAA394650469847889B73642146D4
:10100000CDE9006905463B463A460120C047044603
:10101000E0B94FF4F0727AA930460EF04FFB082D7C
:101020001AD1316C3846FFF719FF09345FFA84FA98
:1010300005460028D4D0B36B73643A46CDE9006905
:101040003B464AF010010120C04700B1092528465F
:101050000DF5727DBDE8F087072DF7D12046316C84
:10106000FFF77EFF03A800F099FB00BF406C7047BC
:10107000F0B5CB6B0B6401F1040C0E460546BCE8E1
:101080000F00F9B001AC0FC4BCE80F000FC4BCE8FE
:101090000F000FC49CE80F004FF0FF3784E80F00EB
:1010A000009706E02B696A462946984708280446B7
:1010B00008D110992846FFF7D1FE0028F2D0092068
:1010C00079B0F0BD6846FFF717FF062CF7D131461F
:1010D0002846FFF747FF00BFC160D96B82611964E2
:1010E000002219465CE700BF70B5C66843690B640F
:1010F000AEB903690A4604460D46014602209847E8
:10110000072805D008280FD129462046FFF72AFFD7
:101110003046296CFFF724FF281D00F03FFB012219
:10112000FFF73EFF0EF06AFA0EF068FAC2681AB1D5
:10113000CA6B0A64002233E79AE700BF704700BF1A
:10114000836801460BB1012018477047012912D06E
:1011500009D873B90F2A0CD800EB820218465368DD
:10116000009A136070470339012994BF01200220BF
:101170007047022070470846704700BF00B585B031
:101180000A46002303A900911946FFF7DFFF0398E1
:1011900005B05DF804FB00BF012912D009D873B96E
:1011A0000F2A0CD800EB8200009A126842601846A1
:1011B00070470339012994BF0120022070470220A3
:1011C00070470846704700BF10B584B0002303ACD9
:1011D000039200940A461946FFF7DEFF04B010BDE3
:1011E00070B5D36B136402F1040C05460C46BCE8E1
:1011F0000F00ADF50E7D0DF15C0EAEE80F00BCE802
:101200000F00AEE80F00BCE80F00AEE80F009CE84E
:101210000F004FF0FF368EE80F00169610E0FFF734
:10122000D3FF214616A8A847034616AA69460820F8
:1012300083B9049B9847052806460CD0092809D095
:1012400026996846FFF70AFE03466A460C2116A84F
:10125000002BE4D0092616A8FFF74EFE30460DF508
:101260000E7D70BD2DE9F04FCC6C89B01E4654F850
:10127000043B06940D46174600F00308002E79D073
:101280001A0C1B0405938DF81D200223D2B204EB27
:1012900082048DF81C302B6DB8F1020F08BFAC6BC7
:1012A00013F001030CD005A9384600F079FB18B9FA
:1012B000082009B0BDE8F08F092009B0BDE8F08F23
:1012C000D4F800A0BAF1000FEDD0019300F00803AC
:1012D0000293022E4AD0B4F800A0B4F8029004346D
:1012E000AB6C29F0010B0F2138469B44FFF746FFFA
:1012F000834539D82AF001039B44834594BF0020DD
:1013000001204FEA490303F002030AF0010A43EA0D
:101310000A03012B49D0022B32D0002BCCD1B8F1DB
:10132000000F02D0002840F0CD800434D4F800A093
:10133000BAF1000FCDD105A9384600F031FB0028E5
:10134000BAD1019B002BB3D00F213846FFF716FF0F
:101350000E2102463846FFF737FF38466A4A0F210A
:10136000FFF732FF0720A8E70020CAE7D4F804906F
:101370000834B5E71B0205930323ADF81C308AE758
:10138000236823F0004BB8F1000F45D128B1029A31
:10139000002A5CD0BBF1000F74D0002B00DA0434BB
:1013A0000BF1010B04EB8B04C0E7B8F1000F19D16E
:1013B000B0B163682268991C4FEAD2723FF47CAFE7
:1013C00005F158010133049100F09080201DFFF7D2
:1013D000C1FD04AB014628460DF0A4FC00285BD1FA
:1013E0000834A3E70D213846D5F82090FFF7C6FE54
:1013F0008145F5D1AB6A9C42F2D12046FFF7E2FC71
:101400000F2102463846FFF7DFFE38462A46002104
:10141000FFF7DAFE072050E70D213846D5F8209077
:10142000FFF7ACFE814501D02368B6E7AB6A9C426A
:10143000FAD104230022C5E90B23E318C5F828B02C
:101440006B632368002B59DB01230193A8E705F1A7
:101450005803CDF80C8004F1040AB04691461E46AC
:101460000EE050460496FFF775FD0022014604ABDE
:10147000284609F101090AF1040A0DF053FCE0B90C
:10148000D945EED10D213846FFF778FE049BAC62BA
:10149000C5E90803062010E781460D213846FFF70D
:1014A0006DFEB9F1020F286225D12B46049A43F84C
:1014B0002C2F6B62AC620620FFE646462368DDF8FF
:1014C0000C806AE72046FFF77DFC04340246AC63DB
:1014D000284614460DF084FC00283FF4EDAE384653
:1014E00022460F21FFF770FE0720E6E60D21384661
:1014F000FFF744FE2862049B6B62DBE70BF10100FF
:1015000004EB80007AE700BF49F500080023A9E654
:101510000123A7E60223A5E62DE9F0430646C3B062
:1015200015461C46042900F2BF80DFE801F09E57F3
:10153000BD2D0300002C40F0B780102A00F2B480CB
:101540000368D80600F1F98020AF384600F098F91A
:10155000B46B394600234FF0010C0CFA03F22A4217
:10156000204603F1010303D050F8042B0A6004461F
:10157000042B01F10401F0D13846B46300F076F990
:10158000002043B0BDE8F083032C40F08D8094B27E
:1015900004EB1243102B4FEA124500F285800368DA
:1015A0001F0700F1D28020AF384600F03DF9B26B42
:1015B00007EBC50154B10B46D01A01EBC401E4009E
:1015C0001D5843F8045B8B42FAD122443846B2637B
:1015D00000F008F9002043B0BDE8F083012C4FEA89
:1015E000124895B25CD0052C5ED108EB0509B9F123
:1015F000200F59D8B8F10F0F79D9A946002D40F026
:101600008A80B36B6DB320AF4FF0000907EBC807BA
:10161000043F03EBC50553F8041B47F8041FAB4216
:10162000F9D1B9F1000F0FD06F464146102938BFEC
:10163000102107EBC101843903EBC90553F8040BF2
:1016400041F8040FAB42F9D1012C00F08680B8F1CB
:101650000F0FB56347D9B9F1000F02D0684600F00B
:10166000B9F8002043B0BDE8F083ECB9806B2346A5
:101670001FFA82FC0124371D04FA03F212EA0C0F50
:10168000014604D051F8042B47F8232008460133C3
:10169000102BF1D115F40055E3D1B063284604E0D6
:1016A00008EB0503102B03D9022043B0BDE8F083FB
:1016B000B8F10F0FF8D83368DA0706D5304623F0B3
:1016C000030340F8483B00F079F820AF384600F0BB
:1016D00075F8B36B002D97D11D460435B5633846B8
:1016E00000F068F8BDE720A800F06CF8B3E7B9F1A6
:1016F000100F40D9A9F110093368D90708D523F094
:101700000103304643F0020340F8483B00F05EF826
:10171000B9F1000F32D033685A0720D4B8F10F0F57
:1017200025D96F463846C8F1100500F057F8002D4E
:10173000B36B7FF77AAF20AF68E723F01003336015
:1017400006F5E87000F09CF8FEE623F0080303605D
:1017500000F5A87000F068F825E720AFBDE7304637
:1017600023F0040340F8D03B00F038F8D6E720A877
:1017700000F02CF8D5E74FF00009BDE7B8F10F0FE6
:101780003FF63FAF20AF384600F020F8B36B002D96
:101790007FF43AAF384600F015F862E700F1340103
:1017A00091E838009C46A6464CF8045D90E8FF0F8F
:1017B000E54600BD90EC210B704700BF80EC210B8B
:1017C000704700BF90EC200B704700BF80EC200BEF
:1017D000704700BFD0EC200B704700BFC0EC200B5F
:1017E000704700BFF0EC0201F0EC0211F0EC0221B6
:1017F000F0EC0231F0EC0241F0EC0251F0EC02614D
:10180000F0EC0271F0EC0281F0EC0291F0EC02A13C
:10181000F0EC02B1F0EC02C1F0EC02D1F0EC02E12C
:10182000F0EC02F1704700BFE0EC0201E0EC0211C5
:10183000E0EC0221E0EC0231E0EC0241E0EC02518C
:10184000E0EC0261E0EC0271E0EC0281E0EC02917C
:10185000E0EC02A1E0EC02B1E0EC02C1E0EC02D16C
:10186000E0EC02E1E0EC02F1704700BFB0FC018166
:10187000B0FC0191B0FC01A1B0FC01B1704700BF08
:10188000A0FC0181A0FC0191A0FC01A1A0FC01B180
:10189000704700BFEC4600B52DE900502DE9FF1F51
:1018A0004FF000032DE90C0001A9FFF7E1FBDDF883
:1018B00040E012B0704700BFEC4600B52DE9005083
:1018C0002DE9FF1F4FF000032DE90C0001A9FFF7E0
:1018D0000BFCDDF840E012B0704700BFEC4600B5ED
:1018E0002DE900502DE9FF1F4FF000032DE90C00FA
:1018F00001A9FFF71BFCDDF840E012B0704700BF04
:10190000EC4600B52DE900502DE9FF1F4FF0000314
:101910002DE90C0001ABFFF7DFFBDDF840E012B072
:10192000704700BFEC4600B52DE900502DE9FF1FC0
:101930004FF000032DE90C0001AAFFF751FCDDF880
:1019400040E012B0704700BF027A03467AB9427A8B
:10195000A2B14168013A10B44272086803220C1D1A
:101960001A7202025C60000E10BC1A6070470068B8
:10197000013A1A7202021A60000E7047B0207047D6
:1019800000B585B0002303AA009219460C22FFF788
:10199000DDFB039805B05DF804FB00BFF0E700BF76
:1019A0002DE9F043054685B00E464FF0000830465D
:1019B000FFF7CAFFB028044600F0BA80070620D51A
:1019C00000F0F003802B4DD0902B36D0A02B60D0B0
:1019D000B02B74D0C02B00F08B8000F0F803D02B1C
:1019E0000BD100F007020132052342F4002201214D
:1019F0002846FFF791FD0028D9D0092005B0BDE8A1
:101A0000F0838300DBB21F1D0DF10C090023194682
:101A1000CDF800900D222846FFF798FB039BCDF8E8
:101A2000009060064CBFDF1BFF1800230D221946F3
:101A300028460397FFF7B0FBB9E700F00D030D2B25
:101A4000DBD003AF002300F00F02194600972846B1
:101A5000FFF77CFB002300970D2219462846FFF76D
:101A60009BFBA4E73046FFF76FFF24022043B0F54D
:101A7000004FC2D004010023A2B219462846FFF746
:101A80004BFD0028B9D114F4004F18BF4FF00108E6
:101A90008DE7C24302F007034FF47F621A4101074A
:101AA00002F47F624FF0000348BF42F480421946BF
:101AB0002846FFF731FD00283FF479AF9DE7B128B4
:101AC0003BD0B22800F09380B32841D000F0FC0353
:101AD000B42B92D000F007020132012342F400221D
:101AE00019462846FFF718FD00283FF460AF84E749
:101AF000C6284AD0C72854D000F0F803C02B63D0C2
:101B0000C82868D0C9287FF478AF3046FFF71CFF9B
:101B1000020300F00F0002F47022013002430121A1
:101B200005232846FFF7F8FC00283FF440AF64E7A0
:101B3000B8F1000F18D0002060E73046FFF704FF2F
:101B4000024600283FF459AF10F0F003C8D054E724
:101B50003046FFF7F9FE020300F00F03013302F4F1
:101B600070221A430123BBE703AC43460E224146D1
:101B700000942846FFF7EAFA009443460F224146B4
:101B80002846FFF709FB404638E73046FFF7DCFE02
:101B9000020300F00F03013302F470221A430323FF
:101BA0009EE73046FFF7D0FE024600283FF425AFFF
:101BB00010F0F0037FF421AF04212846FFF7ACFCBE
:101BC00000283FF4F4AE18E700F00F0201320323BF
:101BD00042F4202284E73046FFF7B6FE00F0F00220
:101BE00000F00F031032013343EA023297E700237B
:101BF0000DF10C090D221946CDF800902846FFF78B
:101C0000A5FA3046FFF7A0FE02064FF002040CD5FD
:101C1000039B00F07F00A040184403903046FFF77C
:101C200093FE030604F10704F2D4039BCDF8009061
:101C300000F07F02A24003F501731A4400230392CF
:101C400019460D222846FFF7A7FAB0E610B5C26C78
:101C5000536884B04FF0030C08321C0208461B0E78
:101C600001A9019402928DF80CC08DF80D30FFF798
:101C700097FE04B010BD00BF08B5FFF78FFE806C63
:101C800008BD00BF08B5FFF789FEC06CC3790233F9
:101C900000EB830008BD00BF704700BF7047000025
:101CA00084B08DED010ACDED020A8DED031A9FED92
:101CB000020A04B0704700BF000000007047704780
:101CC0007047704770477047014B0360704700BF13
:101CD00054FA0008024A0260024A0260704700BFDC
:101CE000A0FA000854FA000810B504460C300BF0B6
:101CF000D1FD04F1BF000BF0CDFD04F5B9700BF080
:101D0000C9FD04F225200BF0C5FD10BD30B585B02E
:101D100005460C468DED010ACDED020A8DED031A44
:101D20000379042B21D0A74B1B78BFF35B8F13F0F3
:101D3000010F05D1A3480DF02CFB002840F0BD8019
:101D4000A14B1B78BFF35B8F13F0010F00F0C08035
:101D5000012C00F0EB80022C00F00581002C00F03B
:101D6000C8809FED9A0A05B030BD994B1B78BFF330
:101D70005B8F13F0010F03D195480DF00AFB68B992
:101D8000944B1B78BFF35B8F13F0010F11D0032C22
:101D900000F20081DFE804F01D3A57749FED8E0ACF
:101DA0000CF0D8FE8D4B83ED000A89480DF000FB46
:101DB000E6E788480DF0EDFA0028E8D09FED860AA6
:101DC0000CF082FE864B83ED000A82480DF0F0FA9B
:101DD000DDE7824B93ED000ADDED017A20EE670A24
:101DE0007F4B93ED007ADDED027A67EE877A30EE75
:101DF000270A95EDD17ADDED037A67EE877A30EE2A
:101E0000270ADFED787A20EE270AACE7734B93EDD3
:101E1000000ADDED017A20EE670A714B93ED007A3E
:101E2000DDED027A67EE877A30EE670A95EDD17ABA
:101E3000DDED037A67EE877A30EE270ADFED697A07
:101E400020EE270A8FE7654BD3ED007A9DED010A5E
:101E500020EE270A624B93ED007ADDED027A67EE01
:101E6000877A30EE670A95EDD17ADDED037A67EE79
:101E7000877A30EE270ADFED5B7A20EE270A72E7D9
:101E8000564BD3ED007A9DED010A20EE270A544B04
:101E900093ED007ADDED027A67EE877A30EE270A5D
:101EA00095EDD17ADDED037A67EE877A30EE270A79
:101EB000DFED4C7A20EE270A55E79FED4B0A0CF038
:101EC00049FE4A4B83ED000A3E480DF071FA37E7B0
:101ED0003D480DF05EFA00283FF43AAF9FED420A0C
:101EE0000CF0F2FD424B83ED000A37480DF060FA2A
:101EF0002EE73E4B93ED000ADDED017A20EE670AF6
:101F00003B4B93ED007ADDED027A67EE877A30EE97
:101F1000270A95EDD17ADDED037A67EE877A30EE08
:101F2000270ADFED307A20EE270A1CE72F4BD3ED8E
:101F3000007A9DED010A20EE270A2D4B93ED007AE1
:101F4000DDED027A67EE877A30EE670A95EDD17A99
:101F5000DDED037A67EE877A30EE270ADFED217A2E
:101F600020EE270AFFE69DED010ADFED187A20EE4C
:101F7000270ADDED027A30EE270A95EDD17ADDED04
:101F8000037A67EE877A30EE270ADFED167A20EEC5
:101F9000270AE8E69FED0D0AE5E60D480DF005FA83
:101FA0000CF09CFE0B480DF000FA0CF097FE054873
:101FB0000DF0FBF90CF092FE03480DF0F6F90CF071
:101FC0008DFE00BFEC080020F40800200000000097
:101FD000F0080020F8080020DB0F493F0C09002022
:101FE0001409002014793C44920A063F0809002095
:101FF0001009002000000000D0B52DED068B04462E
:10200000B0EE409AB0EE608AF0EE419A0379042B6C
:1020100059D0DFED7D7A60EE277A9FED7CAA60EEE5
:102020008A8A77EEE87A61EE0AAA77EEEA7A17EE04
:10203000900AFEF78DFA72A3D3E90023FEF7E0FAC7
:10204000FEF7F0FCC4F8E402DFED717A69EE277A5E
:10205000DFED700A28EE208A37EE888A9FED6E1A2F
:1020600029EE811A78EE017A17EE900AFEF770FADF
:1020700063A3D3E90023FEF7C3FAFEF7D3FCC4F849
:10208000E80229EE0A0A38EE800A7AEE807A17EE24
:10209000900AFEF75DFA5AA3D3E90023FEF7B0FADF
:1020A00006460F46D4F84403FEF752FA02460B46A2
:1020B00030463946FEF7CEFBFEF7B4FCC4F8EC021E
:1020C000BDEC068BD0BDF0EE618A544B1B78BFF39C
:1020D0005B8F13F0010F04D150480DF05AF900281E
:1020E00068D14F4B1B78BFF35B8F13F0010F6CD09F
:1020F0004C4BD3ED007A27EEC97A67EEC86A37EE0B
:10210000267A67EEA96A37EE267A67EEA87A77EE26
:10211000277A17EE900AFEF71BFA39A3D3E90023BA
:10212000FEF76EFAFEF77EFCC4F8E4023E4BD3EDF8
:10213000007A27EE897A67EEC86A37EE267A67EE6C
:10214000E96A37EE267A67EEA87A77EE277A17EEF5
:10215000900AFEF7FDF92AA3D3E90023FEF750FA0F
:10216000FEF760FCC4F8E80239EE081A31EE291ACD
:1021700071EE287A17EE900AFEF7EAF920A3D3E968
:102180000023FEF73DFA06460F4694EDD17AF1EEB4
:10219000007A67EE277A17EE900AFEF7D9F9024621
:1021A0000B4630463946FEF755FBFEF73BFCC4F8BC
:1021B000EC0285E79FED1D0A0CF0CCFC194B83ED7A
:1021C000000A16480DF0F4F88BE715480DF0E1F819
:1021D00000288DD09FED150A0CF076FC124B83ED94
:1021E000000A0F480DF0E4F882E70C480DF0DDF826
:1021F0000CF074FD0A480DF0D8F80CF06FFD00BF2C
:102200001111111189BB553FABAA2A3FABAAAA3EB7
:10221000000000003ACD13BF3ACD133FFC08002068
:1022200000090020180900201C090020DB0F493F8D
:1022300010B5044600F5377001F090FA84EDB80A45
:10224000F2EE047AB4EEE70AF1EE10FA05DB0023B1
:1022500084F8D8320023C4F8E03210BD10B504462B
:102260000C300BF0E3FC04F1BF000BF0DFFC04F5D5
:10227000B9700BF0DBFC04F225200BF0D7FC10BD8D
:1022800010B50446044B0360044B03604FF45671D1
:102290000CF022FD204610BDA0FA000854FA0008F8
:1022A00010B50446034B03604FF451710CF014FD5C
:1022B000204610BD54FA00080878104201D00020D2
:1022C000704702430A7022EA03020A700120704735
:1022D0000B78934202D00A700120704700207047AB
:1022E00070B52DED028B044690F8D8327BB15A1EA2
:1022F000D2B2012A13D900231D461E46C4F8246316
:10230000C4F82853C4F82C33BDEC028B70BD0023F5
:10231000C0F82433C0F82833C0F82C33F4E7022B7C
:102320001CD0D4EDBF0A94EDB90A04F10C000BF0F7
:10233000DDFA10EE106AD4EDC00A94EDBA0A04F189
:10234000BF000BF0D3FA10EE105A94F8D932012BDB
:1023500048D0022B68D083B30023CFE7D0F83C33BA
:102360001B6800EE103ADFED418A20EE280A0CF0DF
:10237000F1FBB0EE408AD4F83C331B6800EE103A13
:1023800020EE280A0CF0A0FBD4EDC27A28EE277AC2
:10239000D4EDC36A20EE266A37EE467A84EDBF7A22
:1023A00060EE277A28EE260A37EE800A84EDC00A0E
:1023B000D4F81033C4F80433B3E700222C49204684
:1023C000FFF786FF18B123685B6A20469847D4ED73
:1023D000C10A94EDBB0A04F5B9700BF087FA10EE50
:1023E000103A8BE70E23012221492046FFF764FFB4
:1023F00040B1D4F83C331B68C4F8303323685B6ABF
:1024000020469847D4F83C331B6800EE903ADFED45
:10241000191A9FED191A94EDCC0A04F225200BF03D
:102420006FFDD4F8613269E70D230222104920467E
:10243000FFF742FF40B1D4F83C331B68C4F8303397
:1024400023685B6A20469847D4F83C331B6800EE4B
:10245000903ADFED081A9FED081A94EDCC0A04F2C9
:1024600025200BF04DFDD4F8613247E735FA8E3C5C
:102470000409002000003343000033C37047704755
:1024800070477047704770470A784B7843EA0223D9
:10249000A0F8D43190F8DC21002A3ED090ED767A75
:1024A00007EE903AF8EEE77A77EEC77AFDEEE77A34
:1024B00017EE902A12B212F5805F25DAD0F81422B6
:1024C0000132C0F81422D0F8142203EB423207EE96
:1024D000902A90ED027AF8EEE77A77EEC77AFDEE71
:1024E000E77AF8EEE77A90ED877AC7EE876A90EDA3
:1024F000897AC6EE877AC0ED787A07EE903AF8EEE0
:10250000677AC0ED767A7047B2F5805FDBDDD0F890
:102510001422013AC0F81422D5E707EE903AF8EEFB
:10252000677AC0ED027A012280F8DC21E5E790F9B4
:102530002232B3F1FF3F11D0012B1FD08A78CB7824
:1025400043EA02231BB2D0ED896A07EE903AF8EE17
:10255000E77A87EEA67A80ED797A70478A78CB7829
:1025600043EA02231BB2D0ED896A07EE903AF8EEF7
:10257000E77A87EEA67A80ED797A70478A78CB7809
:1025800043EA02231BB207EE903AF8EEE77AC0ED79
:10259000797A7047D0F8EC31C0F8F031D0ED7D6A2F
:1025A000D0ED797A66EEA77AB1EE087A67EE877A8F
:1025B000B7EE007A37EE667AD0ED8A6A27EE267A91
:1025C00077EE877AC0ED7B7AC0ED8A7A70470A7918
:1025D0004B7943EA02231BB207EE903AF8EEE77A12
:1025E000C0ED807A704791F90630A0F80432704748
:1025F00090ED7B7AD0ED7C7A37EE677ADFED0D7A5D
:1026000027EE277AD0ED836AC7EE267AD0ED7D6A71
:1026100067EEA67AB7EE007A37EE667AD0ED8B6A6F
:1026200027EE267A77EE877AC0ED7F7AC0ED8B7A37
:10263000704700BF35FA8E3CB0F9202293B25B425E
:102640001BB2B0F90CC062451ADA8281B0F90C20D5
:10265000C369CB6008230B7483698B60037D0B71A6
:1026600003690B604FEA222C0379013B01EB430322
:1026700083F811C003795B00013B19444A74704729
:102680006345E3DD8381E1E738B504460D46036821
:102690001B6A984723685B6A294620469847236847
:1026A0009B6A204698472368DB6A2946204698475C
:1026B00023681B6B29462046984738BDD1ED007A28
:1026C000FDEEE77A17EE903A1BB207EE903AF8EE7D
:1026D000E77A9FED057A67EE877AFDEEE77A17EEE7
:1026E000903A18B2704700BF17B7513F034A0260D3
:1026F000034A0260034A0260704700BFB0FB000853
:102700006C02010870FB000810B5064C05E0A4F54A
:102710000C7423681B6820469847034B9C42F6D1F3
:1027200010BD00BFC00800100000001010B5044626
:10273000054B0360054B0360054B03604FF40C71C0
:102740000CF0CAFA204610BDB0FB00086C0201086C
:1027500070FB000870B52DED028B04469446B0EE78
:10276000408A474A026001710025858100F1100608
:102770009E46BEE80F000FC69EE8070086E80700E9
:1027800004F12C0EBCE80F00AEE80F00BCE80F000F
:10279000AEE80F009CE80F008EE80F004FF4BC720B
:1027A000069904F15C000CF089FFA4F8D4510023D1
:1027B000C4F8D83184F8DC51C4F8E031C4F8E4310D
:1027C000C4F8E831C4F8EC31C4F8F0312D4AC4F84B
:1027D000F4212D4AC4F8F821C4F8FC31C4F80032C1
:1027E000A4F80452C4F80852C4F80C32C4F81032E9
:1027F000C4F814524FF40052A4F81822234AC4F823
:102800001C224FF48042A4F82022FDEEC87A17EE75
:10281000902A84F82222C4F82432C4F82832C4F85A
:102820002C32F7EE007AB4EE678AF1EE10FA13D18B
:10283000012384F82232164B2360164B236094F94F
:102840002232012B13D0B3F1FF3F15D084ED898ADA
:102850002046BDEC028B70BDFFEE007AB4EE678AB5
:10286000F1EE10FAE7D1FF2384F82232E3E74FF0CC
:102870007E53C4F82432EBE7074BC4F82432E7E771
:1028800070FB0008CDCC0C3F9A99593F610BB641C3
:102890006C020108B0FB000800009841012800D03C
:1028A00070474FF6FF739942FAD130B583B0354C7B
:1028B000354B0093BFEE000A344B354A01212046C8
:1028C000FFF748FF334B0093BFEE000A324B334A09
:1028D000022104F50C70FFF73DFF314B0093BFEE72
:1028E000000A304B304A032104F58C60FFF732FFB9
:1028F0002E4B0093BFEE000A2D4B2E4A042104F507
:10290000D260FFF727FF2C4D2A462C4900200CF0FF
:102910006BF92B4C2B4B2360042323712A4BA360B0
:10292000002384F8D83284F8D9320023C4F8E43282
:10293000C4F8E832C4F8EC32C4F8F032C4F8F43227
:10294000C4F8F832C4F8FC32C4F80033C4F80433D5
:10295000C4F80833C4F80C33C4F81033C4F8303367
:102960001A4B23601A4BC4F844331A4B04F5527CBB
:102970000FCB8CE80F002A46174920460CF034F99B
:1029800003B030BD00000010C8010020700300201B
:102990004003002050050020F8060020C806002053
:1029A0008C030020340500200405002004000020D2
:1029B000AC0100207C010020000000200927000855
:1029C0002409002054FA0008E3A59B3DA0FA000862
:1029D000CDCCCC3E10FA0008D51C00082DE9F84FEC
:1029E0002DED028B002403E064300AF053FF013424
:1029F000032C0FD857484FF40C7303FB040090F8D6
:102A0000D131022BF0D0042BF1D100F217100AF0D3
:102A100041FFECE7504C2046FFF766F94FF0B30951
:102A20004A46002104F10C000CF056FEB2EE0E8A6C
:102A300084ED048ADFF858B1C4F814B04FF07F5821
:102A4000C4F818804FF080466665444FA7654FF084
:102A50007E53A366424DE5664FF0730AA4F8ACA01E
:102A60004A46002104F1BF000CF036FE18EE103A81
:102A7000C4F8C330C4F8C7B0C4F8CB80C4F8076149
:102A8000C4F80B71374BC4F81731C4F81F514FF01D
:102A9000000884F85FA184F860814A46414604F545
:102AA000B9700CF019FE304BC4F876312F4BC4F8D6
:102AB0007A312F4BC4F87E31C4F8BA61C4F8BE71C4
:102AC000284BC4F8CA31C4F8D251A4F812A24A461D
:102AD000414604F225200CF0FFFD264BC4F82932B4
:102AE000254BC4F83132254BC4F86D32244BC4F861
:102AF0007132C4F87562C4F88552522384F8C53225
:102B000084F8C68201211F480BF056FDC4F8340337
:102B100001211D480BF050FDC4F83803042007F0D4
:102B200081FBC4F83C0358B10C2007F07BFB0A4B37
:102B3000C3F8400348B10120BDEC028BBDE8F88F1B
:102B40005821124801F028FAEEE75A210F4801F007
:102B500023FAF0E7000000102409002000008C4256
:102B60009A99593F9A99993F44E913414A0CB941BE
:102B7000B7B4EA3ECDCC4C3D75029A3C6666E63F62
:102B800000002041CCFA0008DCFA0008ECFA00084A
:102B90000000C84130B589B00546002409E04FF473
:102BA0000C7004FB00F02B58DB6901A928449847FE
:102BB0000134032CF3DD019B0C4A934204D00C4AF0
:102BC00093420AD009B030BD00234FF0FF3201A973
:102BD0000848006807F04AFDF4E700234FF0FF3291
:102BE00001A90548006807F041FDEBE788110020C6
:102BF000B0110020401000204810002030B52DED0D
:102C0000028B85B00446D0F834138B686846984729
:102C100002AB0098019903C3B1F1FF3F01D0C4F8A2
:102C20003C0394F8D832032B00F2D380DFE803F0A2
:102C3000021044A5002322799A4240F2CA80694AD0
:102C40004FF40C7101FB0322002191810133F2E763
:102C500023689A6A634B03F67C0503F24C6003F227
:102C60001C41D5ED001A90ED001AD1ED000A93ED4C
:102C70007B0A2046904723685B69204698470025D9
:102C80002379AB4240F2A5802368DB6894EDC90A42
:102C9000D4EDCA0A94EDCB1A294620469847514AEA
:102CA0004FF40C7305FB03F3D01880ED730AD3586F
:102CB0009B6998470135E3E723689A6A494B03F615
:102CC0007C0503F24C6003F21C41D5ED001A90ED37
:102CD000001AD1ED000A93ED7B0A20469047D4F804
:102CE0003C331B6800EE103ADFED3F8A20EE280AE5
:102CF0000BF030FFB0EE408AD4F83C331B6800EE96
:102D0000103A20EE280A0BF0DFFED4EDB96A68EE27
:102D1000267A94EDBA7A20EE076A77EEC67AC4ED89
:102D2000BC7A20EE260A28EE078A30EE080A84EDE7
:102D3000BD0AD4F8EC32C4F8F83223685B69204647
:102D4000984700252379AB4243D92368DB6894ED8B
:102D5000C90AD4EDCA0A94EDCB1A294620469847F1
:102D6000204A4FF40C7305FB03F3D01880ED730A6F
:102D7000D3589B6998470135E4E70025C4F8FC5215
:102D8000C4F80053C4F80453C4F80853C4F80C53EF
:102D9000C4F8105323685B69204698472379AB42F7
:102DA00017D92368DB6894EDC90AD4EDCA0A94EDFB
:102DB000CB1A2946204698470A4A4FF40C7305FB64
:102DC00003F3D01880ED730AD3589B6998470135F7
:102DD000E4E70448FFF7DEFE012005B0BDEC028BFE
:102DE00030BD00BF0000001035FA8E3C10B5FFF773
:102DF000F5FD054C2046FFF71BFA2046FFF7FEFEC7
:102E0000012006F075FFF4E72409002008B54FF60D
:102E1000FF710120FFF742FD08BD000010B502213F
:102E2000084800F045FD044648B1002120460AF05C
:102E3000F7F90AF057FA022006F05AFFF9E708F00E
:102E4000E1F8F2E70000024010B5064C064B9C4248
:102E500006D0A4F50F7423681B6820469847F5E751
:102E600010BD00BF38100020FC0D0020012800D04C
:102E700070474FF6FF739942FAD12DE9F041364C75
:102E8000364B23604FF0010884F804800027A781A7
:102E900004F11005324E0FCE0FC596E8070085E805
:102EA000070004F12C0C2F4D0FCDACE80F000FCD17
:102EB000ACE80F0095E80F008CE80F004FF4BC72EF
:102EC000294904F15C000CF0F9FBA4F8D47100234B
:102ED000C4F8D83184F8DC71C4F8E031C4F8E431C6
:102EE000C4F8E831C4F8EC31C4F8F0311F4AC4F832
:102EF000F4211F4AC4F8F821C4F8FC31C4F80032A8
:102F0000A4F80472C4F80872C4F80C32C4F8103281
:102F1000C4F814724FF40052A4F81822154AC4F8E9
:102F20001C22A4F8207284F82282C4F82432C4F847
:102F30002832C4F82C32104B236041F27073C4F86D
:102F40003432072384F838320C4A0D4938460BF0E6
:102F50004BFEBDE8F08100BFFC0D002070FB0008B7
:102F60004407002014070020840C0020CDCC0C3F27
:102F70009A99593F610BB6411402010800000020E4
:102F8000492E000830B589B005460024002C0ADC23
:102F90004FF40F7004FB00F02B58DB6901A92844A3
:102FA00098470134F2E7019B0C4A934204D00C4A43
:102FB00093420AD009B030BD00234FF0FF3201A97F
:102FC0000848006807F052FBF4E700234FF0FF3297
:102FD00001A90548006807F049FBEBE788110020CC
:102FE000B0110020401000204810002010B5064C01
:102FF0009FED060A20460AF01BFF2046FFF7C2FF9E
:10300000012006F075FEF2E7FC0D002000004843A9
:1030100008B54FF6FF710120FFF728FF08BD00003B
:1030200010B5A82000F062FB00F084FC0D4C0023DA
:103030001A461946204600F06DFA00231A460C2164
:10304000204600F067FA084C00231A4672212046F9
:1030500000F060FA00231A467E21204600F05AFA5A
:1030600010BD00BF88110020B011002070B5B6B0AF
:103070002426324600212DA80CF02EFB304B2D9338
:103080004FF400753295182433942DAA00212D4851
:1030900006F0B8FD2C4B18603246002124A80CF035
:1030A0001BFB2A4B249329952A9424AA0021284803
:1030B00006F0A8FD274B1860324600211BA80CF033
:1030C0000BFB254B1B93209521941BAA0021234821
:1030D00006F098FD224B18603246002112A80CF031
:1030E000FBFA204B12931795189412AA00211E4840
:1030F00006F088FD1D4B1860324600210DEB0600DE
:103100000CF0EAFA1A4B09930E950F940DEB060298
:103110000021184806F076FD174B18603246002152
:1031200068460CF0D9FA154B0093059506946A464B
:103130000021134806F066FD124B186036B070BDD2
:10314000ECFB00086533000854100020FCFB00086D
:10315000993200083C10002014FC0008E1320008FD
:10316000441000202CFC0008ED2F0008800C0020EB
:1031700040FC0008ED2D00082009002054FC000848
:103180001D2E00087C0C002008B572B6FFF748FF22
:103190000849094800F07AF90849094800F076F929
:1031A00000F010F8FFF71AFCFFF760FF08F0BAFD17
:1031B00062B608BDF5310008881100205D320008B4
:1031C000B011002008B500221C21102007F02AFAB7
:1031D000064B186000221C21102007F023FA044B34
:1031E00018600BF0CBF9012008BD00BF4010002093
:1031F0004810002008B5C3687BB94368A3F20123D7
:10320000032B0AD8DFE803F0020A141E124B1A68D7
:10321000926800F128011846904708BD0E4BD3F87C
:103220003022926800F1280103F50C709047F4E712
:10323000094BD3F86024926800F1280103F58C60F3
:103240009047EAE7044BD3F89026926800F12801F2
:1032500003F5D2609047E0E70000001010B5044687
:103260008368C3F30F22092A0AD0A06820F07844AB
:10327000C0F3C1600AF0F2FC20460AF0FAFC10BD6F
:10328000DBB2012BF1D1034803689B6804F12801EC
:103290009847EAE7FC0D002000B589B005E001A8D9
:1032A00000F0E6F9012006F023FD002201A90A4BF7
:1032B000186807F034FB0128F4D1084801F0D8FC65
:1032C00010F0FF0FF9D09DF80830002BE7D001A8CF
:1032D00000F0B6F9E6E700BF40100020881100209A
:1032E00000B589B005E001A800F0C2F9012006F0A0
:1032F000FFFC002201A90A4B186807F010FB012807
:10330000F4D1084801F0B4FC10F0FF0FF9D09DF89B
:103310000830002BE7D001A800F092F9E6E700BFE3
:1033200048100020B0110020A0B1026AA2B110B56F
:1033300090470B4B186888B108F0C6F8012801D0F7
:1033400001200CE0064C206807F05CFE002323609F
:10335000012004E00020704700207047012010BDCC
:103360005410002000B58BB0404B06AC0FCB84E866
:103370000F00204600F052FB3D4B186000282ED075
:1033800004AB3C4A92E8030083E8030018460AF0C5
:103390009BFE044630B314222146354B186809F0D1
:1033A0008BFD354B186000B3334B1B689868C368BE
:1033B0009847042006F036FF304B5860C0B10C200F
:1033C00006F030FF2D4BD860B8B12D480BF0E0F877
:1033D0002A4C20602B480BF0DBF8A06040E007F09F
:1033E00011FECDE707F00EFED5E707F00BFEDBE799
:1033F0007B21254800F0D0FDE1E77D21224800F047
:10340000CBFDE2E7C36998471B4D2B681A691B4C3B
:10341000636892681A6063680293042303932068C8
:10342000866802AB93E80600B0472B681A69E36828
:1034300012681A602B681969E268496851601A6954
:10344000E36892689A60E36800930C230193A06894
:1034500084686B4693E80600A047012006F048FC0C
:10346000054B18680028CDD1F7E700BF20FA000807
:103470005010002030FA00084C1000205810002096
:10348000CCFA0008DCFA000868FC000838B50D46E4
:103490000446D8B1204601F007FBE0B901212046DF
:1034A00001F0C8FCD0B90221204601F0C3FCC0B92C
:1034B0001021204601F0BEFCB0B92368104A9342A7
:1034C00015D0104A934216D0012038BD17210E485E
:1034D00000F062FDDEE700F0E6FCDFE700F0E3FC71
:1034E000E1E700F0E0FCE3E700F0DDFCE5E7074B97
:1034F0001D600020E9E7064B1D600020E5E700BFE6
:103500000064004000680040B8FC000884100020FF
:1035100088100020F0B58BB00C4615461E460746B5
:1035200010B314F0020F24D0EB040093630003F0F7
:10353000060343EAC5050195F204029243EAC60375
:103540000393E3080593C4F38004049401230893D0
:103550000022069207930E2309936946384601F02C
:103560009FF980B90BB0F0BD4421084800F014FD6C
:10357000D7E76D010095620002F006020192760124
:1035800002960392DDE700F08EFCEBE7B8FC000842
:1035900038B504460F4B984203D00F4B9C420CD0D9
:1035A00038BD0E4D05F128032A1D002101F07AFBDC
:1035B0000B4B1B6828469847EFE7084D05F1280399
:1035C0002A1D0021204601F06DFB064B1B68284692
:1035D0009847E5E788110020B0110020BC100020BA
:1035E000841000208810002038B504460F4B984204
:1035F00003D00F4B9C420CD038BD0E4D05F1280373
:103600002A1D012101F04EFB0B4B1B6828469847F1
:10361000EFE7084D05F128032A1D0121204601F09E
:1036200041FB064B1B6828469847E5E788110020B8
:10363000B01100208C100020841000208810002081
:1036400000B587B00246C3680193002300930421AC
:1036500002910393017C04918DF81430034653F8D2
:10366000080B1132694601F04DFA07B05DF804FB12
:1036700000B589B0024600230193C168029103930B
:1036800004930593017C06918DF81C3052F8110BC0
:1036900001AB02A901F036FA09B05DF804FB0000A5
:1036A0000E4B1B78C3B982B00C4B01221A700C4B25
:1036B0005B680193019A0B4B1B689A4203D20A4A3A
:1036C000136801331360064B5A68064B1A60034BAC
:1036D00000221A7002B07047704700BF30110020FE
:1036E000001000E0201100202411002008B5124A2B
:1036F000D2F8FC3043F08073C2F8FC300F4B00214D
:1037000059601A6842F001021A600D4B03FB00F089
:103710000C4B18600C4BA3FB00239B090B4A136056
:103720000B4BA3FB0030800C0A4B18600A4B19604E
:10373000FFF7B6FF08BD00BF00ED00E0001000E09D
:1037400040420F0008110020D34D62100C110020E0
:1037500083DE1B43101100202411002008B52DED3D
:10376000028B0B4B5A680368D31A07EE903AF8EEB7
:10377000677A084B93ED007AB8EE477A87EE878A2E
:103780000260FFF78DFFB0EE480ABDEC028B08BD6A
:10379000001000E0081100202DE9F04182B0274B15
:1037A0005B680193FFF77CFF254B1C6800266508CA
:1037B000E3071B1B65F10005DB186D411C1945F182
:1037C0000005019BE41845F100071E4B1C605F607B
:1037D0001D4B1D682A46334620463946FDF772F9CF
:1037E0001A4A10605160A5FB003205FB0125E41A5E
:1037F00067EB0505164B1C605D60DFF86480C8F858
:103800000000144B1F683A46334620462946FDF710
:1038100059F980B2A8F8040007FB00F0201A65F1FE
:1038200000010D4B186059600C4B1A683346FDF7C8
:1038300049F9A8F8060002B0BDE8F081001000E0E8
:10384000241100201811002008110020F010002081
:10385000F81000200C110020001100201011002091
:103860002811002008B5FFF797FF074A10689388D2
:103870004FF47A7101FB03F3044901FB0033D08854
:103880001844002108BD00BF2811002040420F004D
:1038900008B502F0A7F9012008BD08B502F086F9C5
:1038A000012008BD08B502F06DF9012008BD000037
:1038B00038B505460C4618200BF0E0FE0346A8B1CB
:1038C0000022026042608260C26002614261056063
:1038D0008480074A8260074AC260074A026107493A
:1038E0000A78501C0870064941F82230184638BD45
:1038F000A53800089B380008913800085C110020AA
:103900003411002008B50146002300E00133074AC6
:1039100012789A4209D9064A52F8230082888A42CC
:10392000F4D14269002AF1D0904708BD5C11002013
:103930003411002008B508F0C9FB08BD10B310B55C
:1039400082B0044600230193006803681A6801925C
:103950005B680193019B04F007F8E1882368DB6B47
:103960001B685B68C91A89B2084B1980E3685BB1B0
:1039700020469847E288A168206804F0E3FA012015
:1039800002B010BD002070470020F9E7821100202E
:1039900050B138B50446006840B10025456106F0D5
:1039A000BFFC2560012038BD002070470020FAE7E9
:1039B00068B310B582B0024601900024154B1B7805
:1039C000A34221D9144B53F82430934202D001343E
:1039D000E4B2F3E701A8FFF7DBFF07E0621C0E4B40
:1039E00053F8222043F824200134E4B2094B1B7819
:1039F0005A1E9442F2DB0849002041F82200134687
:103A0000044A1370012000E0002002B010BD002025
:103A1000704700BF801100206011002070B582B097
:103A20000446002840D0244B187807283ED80023AD
:103A3000984209D92168214A52F8232012689142FC
:103A400036D00133DBB2F3E7182006F0EBFB054676
:103A500000282ED00026066046608660C66006619B
:103A60004661E2883146A0680BF036FE94E80F000C
:103A700085E80F00124B6B61019603681A6801928A
:103A80005A680192019ADA6842F01002DA60EA8814
:103A9000A968286804F056FA074A1378591C11706F
:103AA000064A42F8235004E0054602E0002500E003
:103AB0000025284602B070BD801100206011002052
:103AC000B139000860B108B502681268126812F0D6
:103AD000100F01D1002008BDFFF730FF0120FAE7E9
:103AE0000020704708B50D480D4B03600323436069
:103AF00000238360C3604FF4002202614FF4401240
:103B00004261037643768376C3760377437700F08A
:103B100051FD00B908BD00F0C6F9FBE7881100208F
:103B20000064004008B50D480D4B0360032343605B
:103B300000238360C3604FF4002202614FF44012FF
:103B40004261037643768376C3760377437700F04A
:103B500031FD00B908BD00F0A6F9FBE7B011002067
:103B60000068004010B58AB00023059306930793C0
:103B7000089309930368464A934204D0454A934206
:103B80003CD00AB010BD444A136801331360012BC6
:103B900027D000240194414B1A6B42F008021A63AB
:103BA0001B6B03F008030193019B0323059302227F
:103BB000069208930923099305A9394801F06AFE82
:103BC00022460521142001F0A7FA142001F0EAFA98
:103BD00022460521152001F09FFA152001F0E2FA96
:103BE000CFE7002300932D4B1A6C42F000721A6449
:103BF0001B6C03F000730093009BCAE70023029341
:103C0000264B1A6C42F080621A641B6C03F08063CE
:103C10000293029B204A136801331360012B29D0C1
:103C2000002404941D4B1A6B42F002021A631B6BB2
:103C300003F002030493049B4FF4405305930223C3
:103C40000693032308930923099305A9154801F056
:103C500021FE22460521402001F05EFA402001F0BD
:103C6000A1FA22460521412001F056FA412001F037
:103C700099FA86E700230393084B1A6C42F000720E
:103C80001A641B6C03F000730393039BC8E700BF27
:103C900000640040006800408411002000380240A9
:103CA000000C02400004024010B582B000240094D1
:103CB0001E4B1A6B42F480021A631A6B02F48002E4
:103CC0000092009A01941A6B42F400121A631B6B63
:103CD00003F400130193019B224605210D2001F0FE
:103CE0001BFA0D2001F05EFA22460521102001F09A
:103CF00013FA102001F056FA22460521112001F096
:103D00000BFA112001F04EFA224605213A2001F06B
:103D100003FA3A2001F046FA22460521462001F036
:103D2000FBF9462001F03EFA02B010BD0038024017
:103D300008B50AF05FFC024B186805F0C1FFFAE70E
:103D4000D811002008B5044A0021044805F05AFFA4
:103D5000034B186008BD00BF0CFD0008313D000892
:103D6000D8110020F0B58DB0002407940894099470
:103D70000A940B940094434B1A6B42F020021A638E
:103D80001A6B02F020020092009A01941A6B42F022
:103D900080021A631A6B02F080020192019A029467
:103DA0001A6B42F001021A631A6B02F001020292CE
:103DB000029A03941A6B42F010021A631A6B02F013
:103DC00010020392039A04941A6B42F002021A63DF
:103DD0001A6B02F002020492049A05941A6B42F0E4
:103DE00004021A631A6B02F004020592059A069403
:103DF0001A6B42F008021A631B6B03F00803069368
:103E0000069B214F22464FF48071384601F0CEFECA
:103E10001E4E01224FF48051304601F0C7FE4FF490
:103E2000807307930125089509940A9407A93846D9
:103E300001F030FD022307934FF48813089309948F
:103E400007A9134801F026FD4FF400630793089477
:103E5000099507A9304601F01DFD4FF480530793E3
:103E60000895099503230A9307A9304601F012FD2E
:103E700022460521072001F04FF9072001F092F9B1
:103E80000DB0F0BD003802400014024000100240A6
:103E90000000024008B50368B3F1804F00D008BDB0
:103EA00000F062FBFBE772B6FEE7000000B595B0DC
:103EB0003022002108A80BF00FFC00230393049389
:103EC0000593069307930193204A116C41F08051AA
:103ED0001164126C02F080520192019A02931C4B01
:103EE0001A6842F480421A601B6803F4804302930C
:103EF000029B012308934FF48033099302230E930E
:103F00004FF480020F9204221092A8221192129371
:103F10000723139308A802F0D3FC98B90F23039347
:103F200002230493002305934FF4A05306934FF408
:103F300080530793052103A802F0AAFF20B915B00A
:103F40005DF804FBFFF7AFFFFFF7ADFF003802405D
:103F50000070004008B500F0EDFAFFF7A7FFFFF78B
:103F600001FFFFF7A1FEFFF7BDFDFFF7DBFD00F04E
:103F700069F900F04DF900F07FF9FFF705F90549FF
:103F8000002008F01DF805F00FFEFFF7DBFE05F03E
:103F90001DFEFEE730FD0008FEE7000000B583B01F
:103FA000002200920D4B596C41F480415964596CC8
:103FB00001F48041009100990192196C41F0805107
:103FC00019641B6C03F080530193019B0F216FF068
:103FD000010001F0A1F803B05DF804FB00380240D5
:103FE00030B589B0044600230193224B1A6C42F08D
:103FF00001021A641B6C03F001030193019B02A9E7
:1040000003A803F079F8069BD3B903F055F80346EB
:104010001948A0FB03239B0C013B18484FF080423A
:10402000026040F2E732C2604360002303618360B4
:10403000836103F025FA054630B1284609B030BD4A
:1040400003F03AF84300E3E70C4803F075F805463F
:104050000028F2D11C2001F0A5F80F2C01D9012570
:10406000EBE7002221461C2001F056F8044B1C60AF
:10407000E3E700BF0038024083DE1B43DC11002071
:1040800068070020FEE7FEE7FEE7FEE7FEE7704771
:1040900008B5022001F0BCFD08BD000008B50248CB
:1040A00001F00AFB08BD00BF2812002008B5024835
:1040B00001F002FB08BD00BF4813002008B502480C
:1040C00001F0FAFA08BD00BFA813002008B50248A5
:1040D00000F0DFFE08BD00BF8811002008B50248CF
:1040E00000F0D7FE08BD00BF8811002008B50248C7
:1040F00003F0AAF808BD00BFDC11002008B5044891
:1041000003F02EFD034B1868FFF7DCFC08BD00BF71
:10411000081400203810002008B5024803F020FDE4
:1041200008BD00BF5014002008B5044803F018FD76
:10413000034B1868FFF7C6FC08BD00BF98140020A9
:104140005010002008B5024801F0B6FA08BD00BFC3
:104150008812002008B5024800F09BFE08BD00BF91
:10416000B011002008B5024800F093FE08BD00BF62
:10417000B011002008B5024802F099F808BD00BF50
:10418000D843012008B5024801F096FA08BD00BFE7
:10419000E81200200120704708B50BF045FA1623FD
:1041A00003604FF0FF3008BD08B54FF0FF31FFF757
:1041B000F3FFFEE710B503460C4A0D490D480068B1
:1041C00040B10C4800680344521A934206D8094A89
:1041D000136010BD0748084C0460F2E70BF024FAA6
:1041E0000C2303604FF0FF30F3E700BF0000022014
:1041F0000004000024120020F84A0120034AD2F8EB
:10420000883043F47003C2F88830704700ED00E056
:1042100008B50A480A4B03604FF4E13343600023BA
:104220008360C36003610C2242618361C36103F058
:1042300005FB00B908BDFFF736FEFBE79814002028
:10424000004C004008B50A480A4B03604FF4E133C4
:10425000436000238360C36003610C224261836179
:10426000C36103F0EBFA00B908BDFFF71CFEFBE7E2
:10427000081400200010014008B50A480A4B0360EA
:104280004FF4E133436000238360C36003610C2279
:1042900042618361C36103F0D1FA00B908BDFFF741
:1042A00002FEFBE7501400200044004030B58DB002
:1042B000044600230793089309930A930B9303681A
:1042C0008B4A934208D08B4A93424AD08A4A9342FF
:1042D00000F0AB800DB030BD00250195874B1A6C06
:1042E00042F400221A641A6C02F400220192019A2C
:1042F00002951A6B42F004021A631B6B03F004036D
:104300000293029B4FF44063079302230893032315
:104310000A9308230B9307A9794801F0BBFA79485F
:10432000794B03604FF0006343608560C5604FF4D4
:104330008063036145618561C5610562456200F086
:10434000C9FF58B96F4BE3639C63002205213420F9
:1043500000F0E2FE342000F025FFBBE7FFF7A3FDED
:10436000F0E700250395654B5A6C42F010025A6441
:104370005A6C02F010020392039A04951A6B42F0F1
:1043800001021A631B6B03F001030493049B4FF4B7
:10439000C06307930223089303230A9307230B9315
:1043A00007A95A4801F076FA59485A4B03604FF072
:1043B0000063436040238360C5604FF48063036102
:1043C00045618561C5614FF480330362456200F049
:1043D00081FF20BB4E4BA3639C634F484F4B036050
:1043E0004FF00063436000238360C3604FF480623A
:1043F000026143618361C3614FF4803202624362B0
:1044000000F068FF70B9444BE3639C630022052110
:10441000252000F081FE252000F0C4FE5AE7FFF7BA
:1044200042FDD7E7FFF73FFDEDE700250595334B4C
:104430001A6C42F400321A641A6C02F400320592CB
:10444000059A06951A6B42F008021A631B6B03F07B
:1044500008030693069B6023079302230893032314
:104460000A9307230B9307A92D4801F013FA2D484F
:104470002D4B03604FF0006343608560C5604FF4CF
:1044800080630361456185614FF48073C361056298
:10449000456200F01FFF28BB224BE3639C63234867
:1044A000234B03604FF0006343604023836000238D
:1044B000C3604FF480620261436183614FF4807294
:1044C000C2610362436200F005FF70B9174BA3633A
:1044D0009C6300220521262000F01EFE262000F00D
:1044E00061FEF7E6FFF7DFFCD6E7FFF7DCFCEDE760
:1044F000004C0040001001400044004000380240E1
:1045000000080240281200204060024000000240E3
:10451000E8120020B8640240881200204064024083
:10452000000C02404813002088600240A8130020BD
:10453000A060024008B50B4B1A6842F400721A6082
:104540001A6842F480621A601A6842F480721A6033
:10455000032000F0C3FD0F20FFF742FDFFF71EFD13
:10456000002008BD003C0240034A1168034B1B7841
:104570000B441360704700BFE01400206407002064
:10458000014B1868704700BFE014002038B504469E
:10459000FFF7F6FF0546B4F1FF3F02D0044B1B784E
:1045A0001C44FFF7EDFF401BA042FAD338BD00BF0B
:1045B00064070020002800F0718138B504460368C4
:1045C000824A934208D002F58062934204D04FF4AD
:1045D0008F717F48FFF7E0FC237E012B00F296806D
:1045E000637E012B00F29880A37E012B00F29A805B
:1045F000E37E012B00F29C80237F012B00F29E8042
:10460000637F012B00F2A080A3684BB1B3F1804F10
:1046100006D0B3F1004F03D0B3F1404F40F09A8081
:10462000E3684BB1B3F1807F06D0B3F1007F03D0D4
:10463000B3F1407F40F09480236963B3B3F5803FCA
:1046400029D0B3F5003F26D0B3F5403F23D0B3F5D2
:10465000802F20D0B3F5A02F1DD0B3F5C02F1AD0D6
:10466000B3F5E02F17D0B3F5002F14D0B3F5102F0A
:1046700011D0B3F5202F0ED0B3F5302F0BD0B3F5FA
:10468000402F08D0B3F5502F05D0B3F5602F02D0DE
:10469000B3F5702F6AD16369A3B1B3F5801F11D050
:1046A000B3F5001F0ED0B3F5401F0BD0B3F5800F4C
:1046B00008D0B3F5A00F05D0B3F5C00F02D0B3F505
:1046C000E00F59D16368013BB3F5806F5AD294F87B
:1046D0002030002B5CD02268136843F00103136084
:1046E000FFF74EFF054623685A6812F0010F53D1B9
:1046F000FFF746FF401B0A28F5D9636A43F40033ED
:104700006362052384F82030012038BD40F21F1178
:104710002F48FFF741FC63E74FF490712C48FFF7F7
:104720003BFC61E740F221112948FFF735FC5FE7C8
:104730004FF491712648FFF72FFC5DE740F22311FB
:104740002348FFF729FC5BE74FF492712048FFF7FD
:1047500023FC59E740F225111D48FFF71DFC5FE7D8
:104760004FF493711A48FFF717FC65E740F22711E1
:104770001748FFF711FC8EE74FF494711448FFF7C8
:104780000BFC9FE740F229111148FFF705FC9EE75B
:104790002046FFF7E7F99EE71A6822F002021A6046
:1047A000FFF7EEFE054623685A6812F0020F11D09B
:1047B000FFF7E6FE401B0A28F5D9636A43F400338D
:1047C0006362052384F8203001209EE700640040E6
:1047D00050FD0008227E012A3DD01A6822F0800296
:1047E0001A60637E012B3BD02268136823F04003DC
:1047F0001360A37E012B39D02268136823F02003B5
:104800001360E37E012B37D02268136843F0100356
:104810001360237F012B35D02268136823F008032F
:104820001360637F012B33D02268136823F00403E5
:104830001360A368E2681343226913436269134358
:104840006268013A21681343CB6100206062012352
:1048500084F8203059E71A6842F080021A60C0E7F5
:104860002268136843F040031360C2E722681368AC
:1048700043F020031360C4E72268136823F0100399
:104880001360C6E72268136843F008031360C8E7A3
:104890002268136843F004031360CAE701207047DD
:1048A00090F82030013BDBB2012B05D9436A43F479
:1048B000802343620120704770B50C460B68B3F546
:1048C000803F80F083806368B3F5803F80F0848010
:1048D000A368B3F5803F80F08580E368B3F5803F3F
:1048E00080F08680A369012B00F28880E369012BA8
:1048F00000F28A802369012B00F28C80236A012B4D
:1049000000F28E8063691B2B00F29080636A1B2B80
:1049100000F29280624BD3F8002242F00102C3F809
:104920000022D3F8002222F47C52C3F80022D3F8EC
:104930000022616A42EA0122C3F80022626902F0A1
:104940001F02012101FA02F2D3F81C12D04321EA1E
:104950000201C3F81C12E369BBB9514BD3F80C1226
:104960000140C3F80C12A5886169E66845EA06456E
:10497000483143F83150A568218841EA054165690D
:1049800005F1480C03EBCC035960E369012B59D0C6
:10499000A369002B6ED14249D1F804320340C1F81B
:1049A00004322369002B6CD13D4BD3F8141208401C
:1049B000C3F81402236A012B6AD0394AD2F80032B4
:1049C00023F00103C2F80032002070BD40F25231E2
:1049D0003448FFF7E1FA76E740F253313148FFF708
:1049E000DBFA75E74FF455712E48FFF7D5FA74E7F7
:1049F00040F255312B48FFF7CFFA73E740F25631BA
:104A00002848FFF7C9FA71E740F257312548FFF708
:104A1000C3FA6FE74FF456712248FFF7BDFA6DE70E
:104A200040F259311F48FFF7B7FA6BE74FF45D7159
:104A30001C48FFF7B1FA69E740F275311948FFF7F2
:104A4000ABFA67E7164BD3F80C121143C3F80C12FC
:104A5000A5886169266845EA0645483143F8315022
:104A6000A1896569A66841EA0641483503EBC5039B
:104A700059608DE70A49D1F804321343C1F8043272
:104A80008FE70749D1F814321343C1F8143291E784
:104A90000349D1F81C321A43C1F81C228DE700BF2C
:104AA0000064004050FD000870B5044690F82050A6
:104AB000EDB2012D06D0436A43F400234362012581
:104AC000284670BD022380F820300268136823F066
:104AD00001031360FFF754FD064623685B6813F07B
:104AE000010F0CD0FFF74CFD831B0A2BF5D9636A2D
:104AF00043F400336362052384F82030E0E70025A7
:104B00006562DDE72DE9F84306460C4617469846F0
:104B100090F82050EDB20368D3F808908B680BB181
:104B2000042B5BD1E3680BB1022B5DD12369082B09
:104B300060D8A368002B69D12368B3F5006F5FD2FA
:104B4000237D012B6CD8013DEDB2012D00F2878051
:104B500019F0E05F7DD0C9F3016101238B40C8F8F3
:104B60000030A368002B61D12068E368326843EA13
:104B7000405001F118031B01D0503368226901F144
:104B8000180003EB00135A60237D012B59D0FA79EA
:104B9000BB791B0443EA02637A7943EA022338793A
:104BA0003268034302EB0112C2F88C31FA78BB7809
:104BB0001B0443EA02637A7843EA022338783268B6
:104BC000034302EB0112C2F888313268183109013F
:104BD000535843F001035350002045E040F2EA41AE
:104BE0002248FFF7D9F99DE740F2EB411F48FFF754
:104BF000D3F99BE740F2EC411C48FFF7CDF998E769
:104C000040F2EF411948FFF7C7F999E76368B3F13C
:104C1000005F95D340F2F3411448FFF7BDF98FE7E9
:104C200040F2F5411148FFF7B7F98CE7626843EAB3
:104C3000C203E2683068134301F118021201835085
:104C40009BE7336803EB00135A6842F480725A60A2
:104C50009DE7736A43F400137362012004E0736AF2
:104C600043F4802373620120BDE8F88350FD0008FF
:104C700090F82030013BDBB2012B01D900207047B6
:104C80000368986810F0806000D001209A6812F0E4
:104C9000006F00D001309B6813F0805FEFD00130CF
:104CA000704700002DE9F04104460D4690461F462E
:104CB00090F82060F6B2012910D8013EF6B2012E1C
:104CC00000F2AE8085B92368DB6813F0030F16D1BC
:104CD000636A43F4001363620120A6E040F2E951E5
:104CE0005348FFF759F9E8E723681B6913F0030FEE
:104CF00005D1636A43F400136362012095E02268E2
:104D000005F11B031B01D35803F00403C8F8083056
:104D1000002B6CD1226805F11B031B01D3585B0DDE
:104D2000C8F80030226805F11B031B01D25802F0BD
:104D30000202C8F80C20226813445B6813F0080FC5
:104D40005ED00823C8F81030226805F11B0102EB81
:104D500001125268C2F30722C8F81820236803EB37
:104D600001135B681B0CC8F81430236803EB0513B0
:104D7000D3F8B8313B70236803EB0513D3F8B8318F
:104D8000C3F307237B70236803EB0513D3F8B83113
:104D9000C3F30743BB70236803EB0513D3F8B831A3
:104DA0001B0EFB70236803EB0513D3F8BC313B717A
:104DB000236803EB0513D3F8BC31C3F307237B71DE
:104DC000236803EB0513D3F8BC31C3F30743BB716E
:104DD000236803EB0513D3F8BC311B0EFB71CDB96F
:104DE0002268D36843F02003D36000201DE02268CE
:104DF00005F11B031B01D358DB08C8F8043091E709
:104E000005F11B0302EB0312536803F00F03C8F80C
:104E1000103099E72268136943F020031361E4E737
:104E2000636A43F4802363620120BDE8F08100BF20
:104E300050FD000870B505460E4690F82040E4B2DB
:104E40000C4B994209D8013CE4B2012C0BD96B6A96
:104E500043F480236B62012070BD40F282610648FA
:104E6000FFF79AF8EFE72B6859690E435E6100205F
:104E7000F2E700BF7F8F030050FD000870477047C6
:104E8000704770477047704770477047704770476A
:104E900070472DE9F84F054603685C69D3F8048034
:104EA0009F68D3F80CB0D3F810A0D3F8189014F082
:104EB00001063BD017F0010616D001229A6017F0C8
:104EC000020F08D117F0040F0CD117F0080606D016
:104ED0004FF4805608E0FFF7D1FF002604E0FFF70B
:104EE000D0FF01E04FF4006617F4807F0DD02B68EF
:104EF0004FF480729A6017F4007F40F0868017F4B8
:104F0000806F00F0868046F4005617F4803F0DD085
:104F10002B684FF480329A6017F4003F40F0838092
:104F200017F4802F00F0838046F4004614F0080F39
:104F300007D01BF0100F04D046F400762B68102227
:104F4000DA6014F0040F02D01BF0080F79D114F0CE
:104F5000020F04D02B68DB6813F0030F78D114F034
:104F6000400F07D01AF0100F04D046F480662B686B
:104F700010221A6114F0200F02D01AF0080F6BD122
:104F800014F0100F04D02B681B6913F0030F6AD1C3
:104F900014F4003F02D018F0100F68D114F4803FD1
:104FA00002D018F0080F69D114F4004F7AD018F02D
:104FB000040F74D014F4807F04D019F0010F01D0D5
:104FC00046F0010614F4007F04D019F0020F01D05E
:104FD00046F0020614F4806F04D019F0040F01D0DB
:104FE00046F0040614F4006F59D019F0700956D039
:104FF000B9F1400F65D058D8B9F1200F5ED0B9F1A2
:10500000300F42D146F0200644E02846FFF737FF34
:105010007BE717F4006F02D046F4804675E7284618
:10502000FFF730FF71E72846FFF72AFF7EE717F406
:10503000002F02D046F4803678E72846FFF723FF9A
:1050400074E72B680822DA602846FFF71DFF7EE729
:105050002846FEF79DFA82E72B6808221A61284647
:10506000FFF713FF8CE72846FEF7BEFA90E72B68A0
:1050700010225A602846FFF709FF8FE72B680822A5
:105080005A602846FFF703FF8EE7B9F1100F01D1F0
:1050900046F008062A68936923F0700393612B6831
:1050A00004225A609EB9BDE8F88FB9F1500F0BD0B9
:1050B000B9F1600FEED146F48076EBE746F01006CA
:1050C000E8E746F04006E5E746F08006E2E76B6A6F
:1050D0001E436E622846FFF7DBFEE4E710B5044688
:1050E000C31E042B0FD80A4AD36823F4E0631B04C1
:1050F0001B0C240204F4E064234343F0BF6343F435
:105100000033D36010BD90210248FEF745FFEAE767
:1051100000ED00E0BCFD000870B505460C461646E3
:105120000F2A25D80F2C28D81B4BDB68C3F302238A
:10513000C3F10701042928BF04211A1D062A21D919
:10514000033B4FF0FF3202FA01F124EA01049C40D4
:1051500002FA03F326EA03063443002D14DB24018C
:10516000E4B205F1604505F5614585F8004370BD81
:10517000A8210A48FEF710FFD4E7A9210748FEF747
:105180000BFFD1E70023DCE705F00F052401E4B2B3
:10519000034B5C55EBE700BF00ED00E0BCFD0008F1
:1051A00014ED00E010B5041E0ADB002C07DB04F050
:1051B0001F02640901239340044A42F8243010BDC1
:1051C000BC210348FEF7E8FEEFE700BF00E100E086
:1051D000BCFD000830B405682C6824F480242C60E1
:1051E000046863608368402B05D003689960036896
:1051F000DA6030BC704703689A600368D960F8E7EA
:1052000010B40368D9B210390C4AA2FB014212094A
:105210000B4CA25CC2655F2909D923F47F7323F08C
:10522000030304338365806D5DF8044B704723F4FA
:105230007F7323F003038365F5E700BFABAAAAAA37
:1052400094FE0008836A826992B9012B0AD0022B6E
:1052500002D00BB100207047C36A13F0807F28D1C1
:1052600000207047C36AB3F1C07F24D0002070478C
:10527000B2F5005F09D0022B25D9032B25D1C36AD3
:1052800013F0807F23D100207047032B03D8DFE881
:1052900003F01404140A00207047C36A13F0807FDF
:1052A0000DD100207047C36AB3F1C07F09D0002040
:1052B000704701207047012070470120704701208E
:1052C000704701207047012070470020704701207F
:1052D0007047000070B50446FFF752F9002C00F04B
:1052E0003E8105462368954A934231D01832934255
:1052F0002ED0183293422BD01832934228D0183235
:10530000934225D01832934222D0183293421FD0B4
:10531000183293421CD002F55672934218D01832BC
:10532000934215D01832934212D0183293420FD0C4
:10533000183293420CD01832934209D0183293425B
:1053400006D01832934203D0B7217D48FEF724FEE1
:105350006368A3B1B3F1007F11D0B3F1806F0ED0B9
:10536000B3F1C06F0BD0B3F1006F08D0B3F1206F71
:1053700005D0B3F1406F02D0B3F1606F6DD1A36877
:105380001BB1402B01D0802B6CD1E368B3F5007FBB
:1053900001D0002B6BD12369B3F5806F01D0002BB6
:1053A0006AD163692BB1B3F5006F02D0B3F5805FAA
:1053B00067D1A3692BB1B3F5005F02D0B3F5804F7D
:1053C00064D1E36923B1B3F5807F01D0202B62D192
:1053D000236A43B1B3F5803F05D0B3F5003F02D057
:1053E000B3F5403F5CD1636A0BB1042B5DD1636AB6
:1053F000C3B1A36A032B5DD8E36A43B1B3F5000FD1
:1054000005D0B3F1807F02D0B3F1C07F57D1236BB9
:1054100043B1B3F5001F05D0B3F5800F02D0B3F54B
:10542000C00F51D1022384F83530002384F8343082
:105430002268136823F00103136023681A6812F0CE
:10544000010F46D0FFF79CF8401B0528F5D9202313
:105450006365032084F8350070BDB8213848FEF735
:105460009BFD8CE7B9213648FEF796FD8DE7BA2102
:105470003348FEF791FD8EE7BB213148FEF78CFDE6
:105480008FE7BC212E48FEF787FD92E7BD212C480F
:10549000FEF782FD95E7BE212948FEF77DFD97E7DF
:1054A000BF212748FEF778FD9DE7C0212448FEF77D
:1054B00073FD9CE7C5212248FEF76EFD9CE7C621DF
:1054C0001F48FEF769FDA2E7C7211D48FEF764FDEE
:1054D000A8E71A681B4810406168A2680A43E1689F
:1054E0000A4321690A4361690A43A1690A43E169E0
:1054F0000A43216A0A430243616A042924D01A60DC
:105500002668756925F00705636A1D43042B07D1DA
:10551000A36A1D43E36A1BB12046FFF793FEC0B99F
:1055200075612046FFF76CFEE26D3F239340836078
:1055300000206065012384F835308DE7106002405B
:1055400028FE00083F8010F0E16A206B01430A4307
:10555000D5E740236365012084F835007CE701200E
:105560007AE700BF2DE9F04104460E4617461D4676
:10557000D0F858805A1E4FF6FE739A4211D894F80C
:105580003430012B36D0012384F8343094F8353090
:10559000DBB2012B0BD0002384F834300220BDE8AD
:1055A000F08140F2CB111448FEF7F6FCE7E7022346
:1055B00084F83530002363652B463A463146204651
:1055C000FFF708FEE26D3F239340C8F808302268D9
:1055D000136843F016031360236C23B12268136829
:1055E00043F0080313602268136843F0010313605B
:1055F0000020D4E70220D2E728FE000870B5044658
:10560000866DFEF7BDFF94F83530DBB2022B06D075
:1056100080236365002384F83430012070BD054683
:105620002268136823F0160313602268536923F07D
:1056300080035361236CE3B12268136823F00803ED
:1056400013602268136823F00103136023681B684A
:1056500013F0010F11D0FEF793FF431B052BF5D973
:1056600020236365032084F83500002384F8343058
:10567000D4E7A36C002BDFD1E3E7E26D3F23934037
:10568000B360012384F83530002084F83400C5E786
:1056900090F83530DBB2022B03D080234365012024
:1056A0007047052380F835300268136823F0010342
:1056B0001360002070470000F0B583B0044600235B
:1056C0000193724B1D68724BA3FB0535AD0A876DC4
:1056D0003E68C26D08239340334210D003681A68B5
:1056E00012F0040F0BD01A6822F004021A60C26D87
:1056F00008239340BB60436D43F001034365E26DB3
:1057000001239340334209D02268526912F0800F7E
:1057100004D0BB60636D43F002036365E26D042354
:105720009340334209D02268126812F0020F04D06D
:10573000BB60636D43F004036365E26D1023934027
:10574000334224D02268126812F0080F1FD0BB60C9
:1057500023681A6812F4802F0DD01B6813F4002FF1
:1057600004D1236C9BB12046984710E0A36C73B121
:10577000204698470BE01A6812F4807F03D11A681C
:1057800022F008021A60236C0BB120469847E26DA4
:1057900020239340334255D02268126812F0100F34
:1057A00050D0BB6094F83530DBB2052B0ED02368A7
:1057B0001A6812F4802F33D01B6813F4002F2AD1FB
:1057C000636C002B3ED0204698473BE0226813686C
:1057D00023F0160313602268536923F0800353619A
:1057E000236CA3B12268136823F008031360E26DF1
:1057F0003F239340BB60012384F83530002384F8B5
:105800003430236D002B3FD0204698473CE0A36CFA
:10581000002BE7D1EBE7E36BA3B12046984711E0FB
:105820001A6812F4807F09D11A6822F010021A60F7
:10583000012384F83530002384F83430E36B0BB156
:1058400020469847636DFBB1636D13F0010F17D0CD
:10585000052384F835302268136823F001031360B0
:10586000019B01330193AB4204D823681B6813F0FA
:10587000010FF5D1012384F83530002384F834304A
:10588000E36C0BB12046984703B0F0BD60070020E1
:10589000B5814E1B2DE9F04182B007460E46564BAE
:1058A000984223D003F5806398421FD003F58063AC
:1058B00098421BD003F58063984217D003F58063AC
:1058C000984213D003F5806398420FD003F58063AC
:1058D00098420BD003F58063984207D003F58063AC
:1058E000984203D0AC214548FEF756FB33689AB284
:1058F00012B11B0C1B041BB1AD214048FEF74CFB41
:105900007368012B19D9112B17D0022B15D0122B2C
:1059100013D0B3F5881F10D0B3F5041F0DD0B3F525
:10592000441F0AD0B3F5901F07D0B3F5081F04D069
:10593000B3F5481F01D0032B01D1002496E0AE211E
:105940002E48FEF729FBF8E7F368032B13D8BA6853
:10595000610003238B4022EA0302F3688B40134368
:10596000BB607A6822EA05027368C3F30015A5409C
:1059700015437D608BE0C0212048FEF70DFBE6E774
:10598000D1211E48FEF708FB8AE03369DBB1092B01
:1059900019D0012B17D0022B15D0032B13D0042BB9
:1059A00011D0052B0FD0062B0DD0072B0BD0082BB9
:1059B00009D00A2B07D00B2B05D00C2B03D00D2BB5
:1059C00001D00F2B10D1E208083257F8220004F062
:1059D000070399000F238B4020EA030033698B40B3
:1059E000034347F822306BE0DE210448FEF7D4FA87
:1059F000E9E7072305E000BF000002409CFE000825
:105A000000238B40034302325A4941F822305A4B5B
:105A10009A686FEA080322EA0801706810F4801F90
:105A200001D048EA0201544A9160D26803EA0201B7
:105A3000706810F4001F01D048EA02014E4AD1609C
:105A4000526803EA0201706810F4003F01D048EA8E
:105A50000201494A516012681340716811F4803F95
:105A600001D048EA0203444A136001340F2C7ED867
:105A70000125A540336803EA050835EA0303F4D19C
:105A8000736803F00303013B012B7FF65DAF73687E
:105A900003F00303032B0DD0B368022B3FF670AF66
:105AA000FA68610003238B4022EA0302B3688B404B
:105AB0001343FB60736803F00303022B3FF465AFED
:105AC0003A68610003238B4022EA0302736803F003
:105AD00003038B4013433B60736813F4403FC4D00F
