:020000040800F2
:1000000000000220ED380008050800080708000875
:10001000090800080B0800080D080008000000008F
:10002000000000000000000000000000512F000848
:100030000F08000800000000F12F0008B32A000894
:100040003D3900083D3900083D3900083D390008B8
:100050003D3900083D3900083D3900083D390008A8
:100060003D3900083D3900083D3900083D39000898
:100070003D3900083D3900083D3900083D39000888
:100080003D3900083D3900083D3900083D39000878
:100090003D3900083D3900083D3900083D39000868
:1000A0003D3900083D3900083D3900083D39000858
:1000B000110800083D3900083D3900083D390008A5
:1000C0003D3900083D3900083D3900083D39000838
:1000D0003D3900083D3900083D3900083D39000828
:1000E0003D3900083D3900083D3900083D39000818
:1000F0003D3900083D3900083D3900083D39000808
:100100003D3900083D3900083D3900083D390008F7
:100110003D3900083D3900083D3900083D390008E7
:100120003D3900083D3900083D3900083D390008D7
:100130003D3900083D3900083D3900083D390008C7
:100140003D3900083D3900083D3900083D390008B7
:100150003D3900083D3900083D3900083D390008A7
:100160003D3900083D3900083D3900083D39000897
:100170003D3900083D3900083D3900080000000005
:080180003D3900083D3900087B
:1001C000830730B547D0541E002A3ED0CAB203463A
:1001D00001E0013C39D303F8012B9D07F9D1032C31
:1001E0002CD9CDB205EB05250F2C05EB054535D9EE
:1001F000A4F1100222F00F0C03F1100EE6444FEAB6
:10020000121C1A46156055609560D5601032724513
:10021000F8D10CF1010214F00C0F03EB021204F000
:100220000F0C13D0ACF1040323F003030433134485
:1002300042F8045B9A42FBD10CF003042CB1C9B222
:100240001C4403F8011B9C42FBD130BD644613469D
:10025000002CF4D1F9E703461446C0E71A46A44639
:10026000E0E700BF70B50F4B0F4DAB42A3EB0506A7
:1002700007D0B610002455F8043B01349847A64235
:10028000F9D803F0ADFC094D094B5E1BAB424FEAB8
:10029000A60606D0002455F8043B01349847A64230
:1002A000F9D870BD943D0008943D0008943D0008C5
:1002B000983D0008844641EA000313F003036DD122
:1002C000403A41D351F8043B40F8043B51F8043B19
:1002D00040F8043B51F8043B40F8043B51F8043B20
:1002E00040F8043B51F8043B40F8043B51F8043B10
:1002F00040F8043B51F8043B40F8043B51F8043B00
:1003000040F8043B51F8043B40F8043B51F8043BEF
:1003100040F8043B51F8043B40F8043B51F8043BDF
:1003200040F8043B51F8043B40F8043B51F8043BCF
:1003300040F8043B51F8043B40F8043B51F8043BBF
:1003400040F8043B403ABDD2303211D351F8043B5F
:1003500040F8043B51F8043B40F8043B51F8043B9F
:1003600040F8043B51F8043B40F8043B103AEDD20E
:100370000C3205D351F8043B40F8043B043AF9D25F
:10038000043208D0D2071CBF11F8013B00F8013B32
:1003900001D30B8803806046704700BF082A13D33F
:1003A0008B078DD010F003038AD0C3F10403D21A57
:1003B000DB071CBF11F8013B00F8013B80D331F88B
:1003C000023B20F8023B7BE7043AD9D3013A11F80B
:1003D000013B00F8013BF9D20B7803704B78437076
:1003E0008B788370604670470000000000000000BA
:1003F00000000000000000000000000000000000FD
:1004000030B490F800F020F007016FF0000C10F00D
:10041000070491F820F040F048804FF000046FF09E
:100420000700D1E9002391F840F000F1080082FABA
:100430004CF2A4FA8CF283FA4CF3A2FA8CF34BBB85
:10044000D1E9022382FA4CF200F10800A4FA8CF2FE
:1004500083FA4CF3A2FA8CF3E3B9D1E9042382FACC
:100460004CF200F10800A4FA8CF283FA4CF3A2FAE1
:100470008CF37BB9D1E9062301F1200182FA4CF219
:1004800000F10800A4FA8CF283FA4CF3A2FA8CF380
:10049000002BC6D0002A04BF04301A4612BAB2FAA2
:1004A00082F200EBD20030BC7047D1E9002304F0A7
:1004B0000305C4F100004FEAC50514F0040F91F8DC
:1004C00040F00CFA05F562EA05021CBF63EA050379
:1004D00062464FF00004AAE753B94AB9002908BFA1
:1004E00000281CBF4FF0FF314FF0FF3000F00CB878
:1004F000ADF1080C6DE904CE03F021FADDF804E05B
:10050000DDE9022304B07047704700BF10B5054C09
:10051000237833B9044B13B10448AFF300800123AF
:10052000237010BD1000002000000000E03B000818
:1005300008B5034B1BB103490348AFF3008008BD66
:100540000000000014000020E03B000800B583B06C
:100550001E4B00931E4B1F4A1F49002003F05CF8FE
:100560002BE01A4C00941A4B1A4A1C49002003F045
:1005700053F801941A4C236800931A4B1A4A1B49EA
:10058000002003F049F8002323601AE00F4C009488
:100590000F4B104A1649002003F03EF80194104C0E
:1005A00023680093134B144A1449002003F034F8D5
:1005B000012323600A2002F02DFB094B1B68002B4E
:1005C000CFD1074B1B68002BE0D0F3E7243C000899
:1005D000F83B0008FC3B0008043C00082C3C0008E9
:1005E0002C000020443C0008483C0008503C000817
:1005F000703C0008883C00088C3C0008943C0008D3
:1006000008B5012002F006FBFBE7000070B592B0D0
:100610002426324600210DEB0600FFF7D1FD104BDA
:1006200009934FF400750E9508240F940DEB060204
:1006300000210C4802F078FA0B4B1860324600217A
:100640006846FFF7BDFD094B0093059506946A4681
:100650000021074802F068FA064B186012B070BD1E
:10066000B43C00084D05000834000020C43C0008DC
:10067000010600083000002008B5A82003F0FEF8AD
:1006800003F0D2F808BD08B50368B3F1804F00D07D
:1006900008BD00F009FDFBE772B6FEE700B595B0B6
:1006A0003022002108A8FFF78BFD00230393049359
:1006B0000593069307930193204A116C41F08051F2
:1006C0001164126C02F080520192019A02931C4B49
:1006D0001A6842F480421A601B6803F48043029354
:1006E000029B012308934FF48033099302220E9258
:1006F0004FF480030F9304231093A82111911292B9
:10070000139308A800F000F998B90F23039302236C
:100710000493002305934FF4A05306934FF48053A2
:100720000793052103A800F059FB20B915B05DF827
:1007300004FBFFF7B1FFFFF7AFFF00BF0038024037
:100740000070004000B583B000F094FCFFF7A6FFF6
:1007500000F024F872B6FFF759FFFFF78DFF62B67D
:100760000949002003F050F8084B0093084B094A50
:100770000949002002F050FF02F0A8F900F032F819
:1007800002F0B6F9FEE700BFD43C0008243C0008A4
:10079000F83B0008FC3B0008DC3C000882B000216C
:1007A00000910B4B1A6B42F080021A631A6B02F035
:1007B00080020092009A01911A6B42F001021A63C2
:1007C0001B6B03F001030193019B02B0704700BF54
:1007D0000038024008B5024B186802F003FAFAE745
:1007E0003800002008B5044A0021044802F09CF9B2
:1007F000034B186008BD00BF2C3D0008D50700085A
:1008000038000020FEE7FEE7FEE7FEE7FEE7704760
:1008100008B5024800F0A4FC08BD00BF3C00002061
:1008200000B583B0002200920D4B596C41F4804119
:100830005964596C01F48041009100990192196C3E
:1008400041F0805119641B6C03F080530193019BAC
:100850000F216FF0010000F0F9FB03B05DF804FB1D
:100860000038024030B589B0044600230193224B82
:100870001A6C42F001021A641B6C03F0010301932D
:10088000019B02A903A800F06FFB069BD3B900F0FF
:100890005BFB0346194AA2FB03239B0C013B184850
:1008A0004FF08042026040F2E732C26043600023B2
:1008B00003618360836100F06FFD054630B1284617
:1008C00009B030BD00F040FB4300E3E70C4800F006
:1008D000FFFB05460028F2D11C2000F0C7FB0F2CBF
:1008E00001D90125EBE7002221461C2000F0AEFBD8
:1008F000044B1C60E3E700BF0038024083DE1B436B
:100900003C00002004000020002800F0E08170B5C9
:1009100082B00446036813F0010F3BD09F4B9B68E5
:1009200003F00C03042B2CD09C4B9B6803F00C03AE
:10093000082B21D06368B3F5803F4FD0B3F5A02FCB
:1009400052D0964B1A6822F480321A601A6822F448
:1009500080221A606368002B50D000F0B1FB05467E
:100960008E4B1B6813F4003F14D100F0A9FB401B11
:100970006428F5D90320B1E1884B5B6813F4800F3C
:10098000D8D0864B1B6813F4003F03D06368002B5C
:1009900000F09F81236813F0020F54D07F4B9B68B7
:1009A00013F00C0F3ED07D4B9B6803F00C03082B1B
:1009B00033D0E368002B68D0794B01221A6000F035
:1009C0007FFB0546754B1B6813F0020F54D100F0F6
:1009D00077FB401B0228F5D903207FE16F4A13689B
:1009E00043F480331360B5E76C4B1A6842F48022FD
:1009F0001A601A6842F480321A60ABE700F060FBBC
:100A00000546664B1B6813F4003FC3D000F058FB4B
:100A1000401B6428F5D9032060E1604B5B6813F448
:100A2000800FC6D15D4B1B6813F0020F03D0E36843
:100A3000012B40F05081594A136823F0F8032169D3
:100A400043EAC1031360236813F0080F42D06369BF
:100A50006BB3534B0122C3F8802E00F031FB0546E7
:100A60004E4B5B6F13F0020F34D100F029FB401B9B
:100A70000228F5D9032031E1484A136823F0F8032E
:100A8000216943EAC1031360DDE7454B00221A6088
:100A900000F016FB0546414B1B6813F0020FD2D045
:100AA00000F00EFB401B0228F5D9032016E13C4B59
:100AB0000022C3F8802E00F003FB0546374B5B6F26
:100AC00013F0020F06D000F0FBFA401B0228F5D904
:100AD000032003E1236813F0040F77D02F4B1B6C26
:100AE00013F0805F33D1002301932C4B1A6C42F03A
:100AF00080521A641B6C03F080530193019B012503
:100B0000284B1B6813F4807F23D0A368012B34D0BB
:100B1000052B38D0214B1A6F22F001021A671A6F89
:100B200022F004021A67A368002B3DD000F0C8FA37
:100B300006461A4B1B6F13F0020F46D100F0C0FAA5
:100B4000801B41F288339842F3D90320C6E0002588
:100B5000D6E7144A136843F48073136000F0B0FAC8
:100B60000646104B1B6813F4807FCED100F0A8FA24
:100B7000801B0228F5D90320B0E0084A136F43F028
:100B800001031367CFE7054B1A6F42F004021A679F
:100B90001A6F42F001021A67C5E700BF0038024031
:100BA000000047420070004000F08AFA0646524BAF
:100BB0001B6F13F0020F08D000F082FA801B41F285
:100BC00088339842F3D9032088E0EDB9A369002B5C
:100BD00000F08380484A926802F00C02082A51D043
:100BE000022B17D0454B00221A6600F069FA044622
:100BF000414B1B6813F0007F42D000F061FA001BEC
:100C00000228F5D9032069E03B4A136C23F0805396
:100C10001364DBE7394B00221A6600F051FA0546EF
:100C2000354B1B6813F0007F06D000F049FA401BDB
:100C30000228F5D9032051E0E369226A1343626A6E
:100C400043EA8213A26A5208013A43EA0243E26A83
:100C500043EA0263284A5360284B01221A6600F0D7
:100C60002FFA0446244B1B6813F0007F06D100F0D6
:100C700027FA001B0228F5D903202FE000202DE0E1
:100C800000202BE0012B2BD01B4B5B6803F4800171
:100C9000E269914226D103F03F02216A8A4223D1C0
:100CA000616A47F6C0721A40B2EB811F1ED103F48D
:100CB0004031A26A5208013AB1EB024F18D103F059
:100CC0007063E26AB3EB026F14D1002006E00120EA
:100CD0007047012002E0012000E0002002B070BD5A
:100CE0000120FBE70120F9E70120F7E70120F5E704
:100CF0000120F3E70120F1E70038024000004742FD
:100D000008B5334B9B6803F00C03042B5BD0082B16
:100D10005BD12F4B5A6802F03F025B6813F4800FDF
:100D20002CD02B4B5868C0F388104FEA401CBCEB0A
:100D3000000C6EEB0E0E4FEA8E1343EA9C634FEAF3
:100D40008C11B1EB0C0163EB0E03DB0043EA517332
:100D5000C90011EB000C43F10003590200234FEAD4
:100D60004C2041EADC51FFF7B7FB194B5B68C3F33A
:100D7000014301335B00B0FBF3F008BD144B58682E
:100D8000C0F388104FEA401CBCEB000C6EEB0E0E5B
:100D90004FEA8E1343EA9C634FEA8C11B1EB0C01CE
:100DA00063EB0E03DB0043EA5173C90011EB000C47
:100DB00043F10003990200234FEA8C2041EA9C5141
:100DC000FFF78AFBD1E70348D7E70348D5E700BF21
:100DD0000038024000127A000024F400002800F0DD
:100DE0009B8070B50D4604464F4B1B6803F007030C
:100DF0008B4208D2CBB24C4A1370136803F007033E
:100E00008B4240F08B80236813F0020F17D013F051
:100E1000040F04D0454A936843F4E0539360236879
:100E200013F0080F04D0414A936843F46043936081
:100E30003E4A936823F0F003A1680B439360236854
:100E400013F0010F32D06368012B21D09A1E012AC2
:100E500025D9364A126812F0020F61D033498A68E8
:100E600022F0030213438B6000F02AF906462F4B51
:100E70009B6803F00C036268B3EB820F16D000F09E
:100E80001FF9801B41F288339842F0D9032042E0D9
:100E9000264A126812F4003FE0D101203BE0234AC9
:100EA000126812F0007FD9D1012034E01E4B1B687C
:100EB00003F00703AB4207D9EAB21B4B1A701B6859
:100EC00003F00703AB422DD1236813F0040F06D0C3
:100ED000164A936823F4E053E1680B439360236858
:100EE00013F0080F07D0114A936823F46043216977
:100EF00043EAC1039360FFF703FF0C4B9B68C3F306
:100F000003130B4AD35CD8400A4B18600A4B18688D
:100F1000FFF7A8FC002070BD012070470120FAE710
:100F20000120F8E70120F6E7003C024000380240CB
:100F3000583D00080800002004000020014B1868FC
:100F4000704700BF0800002008B5FFF7F7FF044B0B
:100F50009B68C3F38223034AD35CD84008BD00BF1B
:100F600000380240503D00080F2303600B4B9A6885
:100F700002F0030242609A6802F0F00282609A680E
:100F800002F4E052C2609B68DB0803F4E0530361A3
:100F9000034B1B6803F007030B60704700380240E7
:100FA000003C0240002807DB00F01F02400901233B
:100FB0009340024A42F82030704700BF00E100E051
:100FC000002808DB0901C9B200F1604000F561406A
:100FD00080F80013704700F00F000901C9B2014BFF
:100FE0001954704714ED00E000B500F00700C0F19F
:100FF000070CBCF1040F28BF4FF0040C031D062B97
:101000000FD9C31E4FF0FF3E0EFA0CF021EA00018B
:1010100099400EFA03FE22EA0E0241EA02005DF850
:1010200004FB0023EEE70000074AD36823F4E063E3
:101030001B041B0C000200F4E060034343F0BF6399
:1010400043F40033D360704700ED00E010B5044670
:10105000054BD868C0F30220FFF7C6FF01462046C3
:10106000FFF7AEFF10BD00BF00ED00E008B5FFF7D1
:1010700099FF08BD08B50B4B1A6842F400721A605C
:101080001A6842F480621A601A6842F480721A6028
:101090000320FFF7C9FF0F20FFF7E4FBFFF7C0FBBA
:1010A000002008BD003C0240034A1168034B1B7836
:1010B0000B441360704700BF840000200000002034
:1010C000014B1868704700BF840000207047000083
:1010D00090F83D30DBB2012B37D1022380F83D3050
:1010E0000268D36843F00103D3600368194A93424E
:1010F00020D0B3F1804F1DD0A2F57C42934219D08D
:1011000002F58062934215D002F58062934211D0BD
:1011100002F5784293420DD002F57052934209D005
:10112000A2F59432934205D01A6842F001021A6087
:10113000002070479A6802F00702062A07D01A6852
:1011400042F001021A600020704701207047002021
:10115000704700BF000001407047704770477047FC
:1011600070B504460368DE681D6915F0020F10D0E3
:1011700016F0020F0DD06FF002021A6101230377FF
:1011800003689B6913F0030F5ED0FFF7E6FF0023AF
:10119000237715F0040F12D016F0040F0FD0236838
:1011A0006FF004021A610223237723689B6913F40A
:1011B000407F4FD02046FFF7D0FF0023237715F064
:1011C000080F12D016F0080F0FD023686FF0080236
:1011D0001A61042323772368DB6913F0030F40D0DF
:1011E0002046FFF7BAFF0023237715F0100F12D027
:1011F00016F0100F0FD023686FF010021A61082349
:1012000023772368DB6913F4407F31D02046FFF752
:10121000A4FF0023237715F0010F02D016F0010F71
:101220002DD115F0800F02D016F0800F2FD115F0C0
:10123000400F02D016F0400F31D115F0200F02D030
:1012400016F0200F33D170BDFFF786FF2046FFF761
:1012500085FF9CE72046FFF77FFF2046FFF77EFFD4
:10126000ABE72046FFF778FF2046FFF777FFBAE7A6
:101270002046FFF771FF2046FFF770FFC9E723689C
:101280006FF001021A612046FFF7FDF9C9E72368F4
:101290006FF080021A61204600F0ABF8C7E72368C0
:1012A0006FF040021A612046FFF759FFC5E7236837
:1012B0006FF020021A61204600F09AF8C3E70000A0
:1012C0000368344A904212D0B0F1804F0FD0A2F59B
:1012D0007C4290420BD002F58062904207D002F52A
:1012E0008062904203D002F57842904203D123F00D
:1012F00070034A681343274A90422AD0B0F1804FC6
:1013000027D0A2F57C42904223D002F58062904221
:101310001FD002F5806290421BD002F578429042C5
:1013200017D002F57052904213D002F580629042BD
:101330000FD002F5806290420BD0A2F59832904215
:1013400007D002F58062904203D002F5806290429D
:1013500003D123F44073CA68134323F080034A691E
:10136000134303608B68C3620B688362094B984226
:1013700003D003F58063984201D10B690363012315
:101380004361036913F0010F03D0036923F00103E4
:10139000036170470000014040B310B5044690F867
:1013A0003D30F3B1022384F83D30214651F8040B5F
:1013B000FFF786FF012384F8463084F83E3084F836
:1013C0003F3084F8403084F8413084F8423084F86B
:1013D000433084F8443084F8453084F83D300020B0
:1013E00010BD80F83C30FFF771FEDBE7012070474D
:1013F00070477047034AD2F8883043F47003C2F84C
:101400008830704700ED00E000F1080343604FF0C2
:10141000FF328260C36003610023036070470023D2
:101420000361704743684B609A688A6051609960B5
:101430000861036801330360704730B40D68B5F18B
:10144000FF3F11D000F108031C465B681A68AA42EE
:10145000FAD963684B6099608C60616008610368C9
:101460000133036030BC70470469F2E703694168E7
:1014700082688A60416851605A68824206D00022C0
:1014800002611A68013A1A601868704782685A60E7
:10149000F5E710B5044601F06DFDA26BE36B9A42CF
:1014A00004D0002401F088FD204610BD0124F9E796
:1014B00010B5044601F05EFDA36B23B9012401F0D1
:1014C0007BFD204610BD0024F9E770B504461546A3
:1014D000866B026C5AB903681BB100200136A66303
:1014E00070BD806801F074F80023A360F6E76DB961
:1014F0004068FEF7DFFE6368226C13446360A268F5
:10150000934219D3236863602846E7E7C068FEF773
:10151000D1FEE368226C51429B1AE3602268934239
:1015200002D2A3680B44E360022D01D00020D5E76E
:1015300026B1013E0020D1E72846CFE70020CDE7C5
:101540000346026C6AB110B50846D9681144D960E7
:101550009C68A14201D31968D960D968FEF7AAFE38
:1015600010BD704738B5054601F004FD95F84540BB
:1015700064B201E0013C64B2002C0ADD6B6A43B145
:1015800005F1240000F07AFF0028F3D001F00AF8FA
:10159000F0E7FF2385F8453001F00EFD01F0EAFC8D
:1015A00095F8444064B201E0013C64B2002C0ADDCD
:1015B0002B6943B105F1100000F060FF0028F3D063
:1015C00000F0F0FFF0E7FF2385F8443001F0F4FC71
:1015D00038BD38B5E0B10D46044601F0CBFC2368B8
:1015E000E26B216C01FB0230A0600020A06363600D
:1015F000013A02FB0133E360FF2384F8443084F8AE
:101600004530FDB9236963B901F0D6FC012038BD2E
:101610004FF0500383F31188BFF36F8FBFF34F8FE9
:10162000FEE704F1100000F029FF0028ECD04FF095
:10163000E0234FF08052C3F8042DBFF34F8FBFF368
:101640006F8FE1E704F11000FFF7DEFE04F12400E4
:10165000FFF7DAFED8E738B51D46049C0B4649B9BA
:101660002460E063236401212046FFF7B2FF84F881
:101670004C5038BD2260F4E740B94FF0500383F37B
:101680001188BFF36F8FBFF34F8FFEE710B584B0A3
:101690001C46844653B192B189B94FF0500383F38D
:1016A0001188BFF36F8FBFF34F8FFEE74FF05003EA
:1016B00083F31188BFF36F8FBFF34F8FFEE76AB1DB
:1016C00050230393039B502B13D04FF0500383F30D
:1016D0001188BFF36F8FBFF34F8FFEE70029EFD064
:1016E0004FF0500383F31188BFF36F8FBFF34F8F19
:1016F000FEE7039B012384F8463000949DF81830E0
:101700006046FFF7A8FF204604B010BDF0B585B0D5
:10171000019288B10F461D460446B1B1022D20D179
:10172000E36B012B1DD04FF0500383F31188BFF3FF
:101730006F8FBFF34F8FFEE74FF0500383F3118895
:10174000BFF36F8FBFF34F8FFEE7036C002BE5D025
:101750004FF0500383F31188BFF36F8FBFF34F8FA8
:10176000FEE700F025FF064658B9019B002B48D044
:101770004FF0500383F31188BFF36F8FBFF34F8F88
:10178000FEE700263DE02A4639462046FFF79DFE4B
:10179000636A7BB948B14FF0E0234FF08052C3F841
:1017A000042DBFF34F8FBFF36F8F01F005FC0120B5
:1017B00005B0F0BD04F1240000F060FE0028F4D074
:1017C0004FF0E0234FF08052C3F8042DBFF34F8F4A
:1017D000BFF36F8FE9E701F0EFFB0020E8E702A815
:1017E00000F092FE012619E0002384F8443021E045
:1017F000002384F8453023E02046FFF7B3FE00F0D5
:101800001BFD01F0B7FBA26BE36B9A42BBD3022D29
:10181000B9D0019B002BDED0002EE0D001F0CCFB34
:1018200000F070FC01F0A6FB94F8442052B2B2F133
:10183000FF3FD9D094F8452052B2B2F1FF3FD7D044
:1018400001F0BAFB01A902A800F06AFED8B920464F
:10185000FFF71FFE0028CFD0019904F1100000F01F
:10186000D9FD2046FFF77EFE00F0E6FC0028C8D137
:101870004FF0E0234FF08052C3F8042DBFF34F8F99
:10188000BFF36F8FBDE72046FFF76CFE00F0D4FC7E
:1018900000208DE72DE9F84390B10F4616461C460F
:1018A0000546B1B1022C20D1EB6B012B1DD04FF0BE
:1018B000500383F31188BFF36F8FBFF34F8FFEE7A1
:1018C0004FF0500383F31188BFF36F8FBFF34F8F37
:1018D000FEE7036C002BE5D04FF0500383F3118833
:1018E000BFF36F8FBFF34F8FFEE701F069FCEFF39B
:1018F00011884FF0500383F31188BFF36F8FBFF34C
:101900004F8FAA6BEB6B9A4206D3022C04D00020B7
:1019100088F31188BDE8F88395F845904FFA89F966
:10192000AB6B224639462846FFF7CFFDB9F1FF3FA2
:1019300006D009F101035BB285F845300120E7E7E5
:101940006B6A0BB90120E3E705F1240000F096FD76
:1019500018B126B101203060DAE70120D8E7012074
:10196000D6E7F0B585B0019290B10F460446C1B1FB
:1019700000F01EFE064600BB019B002B5ED04FF020
:10198000500383F31188BFF36F8FBFF34F8FFEE7D0
:101990004FF0500383F31188BFF36F8FBFF34F8F66
:1019A000FEE7036C002BE3D04FF0500383F3118864
:1019B000BFF36F8FBFF34F8FFEE700263EE039463F
:1019C0002046FFF7BDFD013DA563236923B901F062
:1019D000F3FA012005B0F0BD04F1100000F04EFD57
:1019E0000028F4D04FF0E0234FF08052C3F8042DCC
:1019F000BFF34F8FBFF36F8FE9E701F0DDFA0020EF
:101A0000E8E702A800F080FD012621E0002384F829
:101A1000443029E0002384F845302BE02046FFF7CE
:101A2000A1FD00F009FC09E02046FFF79BFD00F056
:101A300003FC2046FFF73CFD00283FD101F09AFA55
:101A4000A56B002DBBD1019B002BD6D0002ED8D08A
:101A500001F0B2FA00F056FB01F08CFA94F8443031
:101A60005BB2B3F1FF3FD1D094F845305BB2B3F134
:101A7000FF3FCFD001F0A0FA01A902A800F050FD6D
:101A80000028D1D12046FFF713FD0028C6D00199C8
:101A900004F1240000F0BEFC2046FFF763FD00F0D7
:101AA000CBFB0028CAD14FF0E0234FF08052C3F89F
:101AB000042DBFF34F8FBFF36F8FBFE7002089E77F
:101AC0000023072B0CD8074A52F833200AB1013300
:101AD000F7E7044A42F8331002EBC3025060704744
:101AE000704700BF8800002070B504460D461646BA
:101AF00001F040FA94F844305BB2B3F1FF3F0DD0EF
:101B000094F845305BB2B3F1FF3F0BD001F054FACB
:101B1000A36B5BB12046FFF725FD70BD002384F861
:101B20004430EDE7002384F84530EFE7324629469C
:101B300004F1240000F086FCECE70000084B1B6871
:101B40001B6823B9074B4FF0FF321A607047044BF4
:101B50001B68DB68DB685A68024B1A60704700BF7D
:101B600038010020D00000202DE9F04780460D46C6
:101B700017469946089EDDF824A00A9C9200A521EC
:101B8000206BFEF71DFB236B07F18042013A03EB4C
:101B9000820727F00707A5B34FF0000CBCF10F0F29
:101BA00009D815F80C3004EB0C0282F8343013B16C
:101BB0000CF1010CF2E7002384F84330372E00D9F2
:101BC0003726E662E66400252565201DFFF727FC21
:101BD00004F11800FFF723FC2461C6F13806A66162
:101BE0006462656584F858504A464146384601F0BB
:101BF00099F92060BAF1000F01D0CAF80040BDE8A1
:101C0000F087002384F83430D8E7000038B500248A
:101C100007E004EB840293000E481844FFF7F4FB3E
:101C20000134372CF5D90C4D2846FFF7EDFB0B4C52
:101C30002046FFF7E9FB0A48FFF7E6FB0948FFF7F4
:101C4000E3FB0948FFF7E0FB084B1D60084B1C60F5
:101C500038BD00BF64010020500100203C0100207D
:101C6000200100200C010020F40000203801002099
:101C70003401002010B5044601F07CF9224A1368B3
:101C800001331360214B1B685BB1214B1B686BB99F
:101C90001E4B1B68DA6AE36A9A4207D81B4B1C602A
:101CA00004E01A4B1C601368012B29D0194A1368F1
:101CB000013313606364E06A174B1B68984201D9D3
:101CC000154B186000EB8000211D144B03EB8000C6
:101CD000FFF7A8FB01F070F90D4B1B687BB10B4BB4
:101CE0001B68DA6AE36A9A4209D24FF0E0234FF0A8
:101CF0008052C3F8042DBFF34F8FBFF36F8F10BD19
:101D0000FFF784FFD2E700BFF0000020C4050020E9
:101D1000E4000020D4000020E8000020640100203E
:101D200010B5044690F8593063B1012B11D0022B45
:101D30000ED04FF0500383F31188BFF36F8FBFF3C2
:101D40004F8FFEE7006B01F071F8204601F06EF84E
:101D500010BD01F06BF8FBE70F4B1B68D3B110B55A
:101D600001F008F90D4BDB68DC68201DFFF77EFBF6
:101D70000B4A1368013B1360074A1368013B136069
:101D800001F01AF92046FFF7CBFF034B1B68002B2D
:101D9000E6D110BD704700BF080100200C010020F3
:101DA000F000002008B5FFF7D7FF074B1B68012B99
:101DB000F9D94FF0E0234FF08052C3F8042DBFF360
:101DC0004F8FBFF36F8FEEE76401002070B50446BC
:101DD0000D46174B1E68174B18680430FFF746FB7B
:101DE000B4F1FF3F0DD03444124B1B685C60A64237
:101DF00010D9114B18680F4B19680431FFF71DFB00
:101E000070BD002DEFD00B4B196804310B48FFF764
:101E100009FBF5E70A4B1868064B19680431FFF710
:101E20000CFB084B1B68A342EAD9064B1C60E7E792
:101E3000EC000020C405002034010020F400002044
:101E400038010020D000002030B587B00B9C7CB159
:101E50000C9DB5B15C250495049D5C2D1AD04FF006
:101E6000500383F31188BFF36F8FBFF34F8FFEE7EB
:101E70004FF0500383F31188BFF36F8FBFF34F8F81
:101E8000FEE74FF0500383F31188BFF36F8FBFF36A
:101E90004F8FFEE7049D0C9D2C63022485F859406A
:101EA00000240394029505AC01940A9C0094FFF76A
:101EB0005BFE0C98FFF7DEFE059807B030BD2DE9FC
:101EC000F04385B00746884614461E46900000F051
:101ED0002BFF08B381465C2000F026FF0546A8B121
:101EE000C0F83090002380F85930039302900D9B86
:101EF00001930C9B00933346224641463846FFF738
:101F000033FE2846FFF7B6FE012007E0484600F002
:101F10008DFF4FF0FF3001E04FF0FF3005B0BDE81E
:101F2000F083000038B5044601F024F824B3251DE1
:101F30002846FFF79BFAA36A1BB104F11800FFF7CC
:101F400095FA1F4A1368013313601E4B1B68A342A6
:101F500015D01D4A1368013B13602046FFF7E0FED1
:101F6000FFF7ECFD01F028F8184B1B681BB1154B6F
:101F70001B68A3420CD038BD124B1C68D7E729461A
:101F80001348FFF74FFA134A136801331360E9E768
:101F9000114B1B6843B14FF0500383F31188BFF31B
:101FA0006F8FBFF34F8FFEE74FF0E0234FF080526B
:101FB000C3F8042DBFF34F8FBFF36F8FDBE700BF74
:101FC000D4000020C4050020F0000020E400002020
:101FD0000C01002008010020C8000020F8B5D0B195
:101FE00004461D4B1B6883422DD000F0C3FF65697A
:101FF0001A4B1E681A4B1F6800F0DEFFB54224D052
:10200000BD4224D0174B9D420ED0174B9D4220D08D
:10201000BDB1012018E04FF0500383F31188BFF3E6
:102020006F8FBFF34F8FFEE7A36A0BB102200BE067
:1020300094F85830DBB2012B01D0032004E00220D9
:1020400002E0042000E00020F8BD0220FCE70220AE
:10205000FAE70420F8E700BFC4050020380100209B
:1020600034010020F40000200C01002010B588B0DD
:1020700000240594069407AA06A905A800F0D8FD37
:10208000059B0293069B019300942346079A1749E8
:102090001748FFF7D9FE174B1860C0B100F04CFB92
:1020A000012815D14FF0500383F31188BFF36F8FD0
:1020B000BFF34F8F104B4FF0FF321A600F4B0122CE
:1020C0001A600F4B00221A6000F0EEFF03E00020C0
:1020D000B0F1FF3F01D008B010BD4FF0500383F3C3
:1020E0001188BFF36F8FBFF34F8FFEE7083D0008E5
:1020F000A51D0008CC000020D0000020E400002036
:10210000EC000020024A136801331360704700BFDF
:10211000C8000020014B1868704700BFEC00002089
:10212000F8B53A4B1B68002B69D1394B1D68013556
:102130001D60C5B9374B1B681B6843B14FF0500396
:1021400083F31188BFF36F8FBFF34F8FFEE7314AE0
:102150001168314B186810601960304A13680133F8
:102160001360FFF7EBFC2E4B1B68AB423DD90027F9
:102170002C4B1B68DB6A03EB83039A002A4B9B58AA
:10218000012B00D90127294B1B68002B3CD00127CC
:102190003AE001271F4B1B681B6843B31D4B1B68AC
:1021A000DB68DC6863689D4226D3261D3046FFF756
:1021B0005DF9A36A1BB104F11800FFF757F9E36A50
:1021C0001B4A1268934201D9194A136003EB830337
:1021D0009A00314614481044FFF724F9E26A114B83
:1021E0001B68DB6A9A42D4D2D4E70027D2E70C4BB3
:1021F0004FF0FF321A60BBE7094A1360B8E70D4A97
:1022000013680133136000273846F8BDC80000206A
:10221000EC0000203801002034010020D80000200C
:10222000D0000020C405002064010020DC00002054
:10223000E8000020E000002038B5354B1B6843B9AA
:102240004FF0500383F31188BFF36F8FBFF34F8FAD
:10225000FEE700F08FFE2E4B1A68013A1A601B68E9
:10226000002B4FD12B4B1B680BB900244BE00024F3
:10227000294B1B681BB3284BDB68DC6804F1180092
:10228000FFF7F4F8251D2846FFF7F0F8E06A234B26
:102290001B68984201D9214B186000EB8000294649
:1022A0001F4B03EB8000FFF7BDF8E26A1D4B1B6874
:1022B000DB6A9A42DCD31C4B01221A60D8E70CB1CE
:1022C000FFF73CFC194B1C6884B9174B1C68D4B150
:1022D0004FF0E0234FF08052C3F8042DBFF34F8F2F
:1022E000BFF36F8F01240EE0013C07D0FFF718FF0A
:1022F0000028F9D00C4B01221A60F5E70B4B0022A5
:102300001A60E2E7002400F057FE204638BD00BF07
:10231000C8000020F000002020010020E80000207C
:1023200064010020C4050020DC000020E000002043
:1023300010B5A8B10446104B1B6843B14FF05003D1
:1023400083F31188BFF36F8FBFF34F8FFEE7FFF763
:10235000D9FE00212046FFF739FDFFF76DFF48B990
:102360004FF0E0234FF08052C3F8042DBFF34F8F9E
:10237000BFF36F8F10BD00BFC8000020204B1B684B
:102380001BB1204B01221A6070471E4B00221A60BD
:102390001D4B1B6803EB83018A001C498A585AB9FC
:1023A0000BB1013BF6E74FF0500383F31188BFF305
:1023B0006F8FBFF34F8FFEE7084603EB83018A0060
:1023C000024451684968516003EB830C4FEA8C0268
:1023D0000832024491420BD003EB830291000B4A76
:1023E0000A445268D1680A4A1160074A136070476C
:1023F000486862469100054A0A445060ECE700BF15
:10240000C8000020DC000020E8000020640100205B
:10241000C405002058B110B50C46094A116818319E
:10242000FFF70BF801212046FFF7D0FC10BD4FF05D
:10243000500383F31188BFF36F8FBFF34F8FFEE715
:10244000C405002038B570B10D4614460A4A11681B
:102450001831FEF7E7FF0CB14FF0FF352146284653
:10246000FFF7B4FC38BD4FF0500383F31188BFF37E
:102470006F8FBFF34F8FFEE7C405002038B5C368E8
:10248000DC6824B304F118052846FEF7EFFF184B6B
:102490001B682BBB251D2846FEF7E8FFE06A154B9D
:1024A0001B68984201D9134B186000EB8000294645
:1024B000114B03EB8000FEF7B5FFE26A0F4B1B6880
:1024C000DB6A9A4211D901200D4B186038BD4FF0DC
:1024D000500383F31188BFF36F8FBFF34F8FFEE775
:1024E00029460848FEF79EFFE7E70020EEE700BF19
:1024F000C8000020E800002064010020C40500207E
:10250000DC00002020010020034B1B680360034B0C
:102510001B684360704700BFD8000020EC0000201B
:10252000F8B5C8B10C460546F9B100F023FD1B4BC8
:1025300019686B68C81A2268B2F1FF3F26D0184E9E
:1025400036682F68B74201D08B4224D9824215D811
:102550000023236001241AE04FF0500383F3118815
:10256000BFF36F8FBFF34F8FFEE74FF0500383F33E
:102570001188BFF36F8FBFF34F8FFEE75B1A1344D1
:1025800023602846FFF7C0FF002400E0002400F08D
:1025900013FD2046F8BD0124F9E700BFEC00002040
:1025A000D8000020014B01221A607047DC00002097
:1025B000054B1B6833B1054B1B680BB100207047FE
:1025C0000220704701207047E4000020C80000206E
:1025D00000283BD038B504461E4B1B68834208D008
:1025E0004FF0500383F31188BFF36F8FBFF34F8F0A
:1025F000FEE7036D43B94FF0500383F31188BFF337
:102600006F8FBFF34F8FFEE7013B0365C16AC26C5A
:1026100091421DD00BB1002038BD051D2846FEF7A4
:1026200025FFE06CE062C0F13803A3610A4B1B6830
:10263000984201D9084B186000EB80002946074BEF
:1026400003EB8000FEF7EEFE0120E5E70020704777
:102650000020E1E7C4050020E8000020640100201C
:10266000064B1A6813682BB90123036023B9D3689A
:10267000186870470023F8E700207047C80600205C
:1026800008B54160006191420CD8D21A83699A4220
:1026900001D3012008BD011D094B1868FEF7CDFECE
:1026A0000020F7E79A4201D2994206D2011D054B5C
:1026B0001868FEF7C2FE0020ECE70120EAE700BF41
:1026C000C4060020C806002030B583B000F052FCDC
:1026D000114B1B681BB100F06FFC03B030BD0F4DF8
:1026E0002846FEF791FE0E4C2046FEF78DFE0D4B60
:1026F0001D600D4B1C60002300930C4B0C4A1021F5
:102700000A20FEF7B9FF044B18600028E3D00949FE
:10271000FFF7D6F9DFE700BFC0060020E006002083
:10272000CC060020C8060020C4060020C8050020F2
:1027300018060020103D000810B588B0FFF7C4FF50
:10274000124B1B68CBB100240594069407AA06A976
:1027500005A800F079FA059B0293069B01930223DA
:1027600000932346079A0A490A48FFF76DFB0A4B74
:10277000186010B1012008B010BD4FF0500383F372
:102780001188BFF36F8FBFF34F8FFEE7C0060020A5
:10279000183D00089D2A0008BC060020B8B19C46E0
:1027A00003461848006858B300B585B000910192FF
:1027B000029305291CDCFFF7FBFE022810D0002342
:1027C0001A4669460F480068FEF7A0FF15E04FF073
:1027D000500383F31188BFF36F8FBFF34F8FFEE772
:1027E0000023069A694607480068FEF78FFF04E059
:1027F000002362466946FFF74DF805B05DF804FB1B
:1028000000207047C006002070B582B01B4B1B68CB
:102810001A6862B3DB681E68DC68251D2846FEF76F
:1028200025FE236A2046984794F8283013F0040FB9
:10283000ECD0A36933449E4207D2636024612946E9
:102840000E4B1868FEF7F9FDE0E7002100910B46FA
:1028500032462046FFF7A2FF0028D7D14FF05003A1
:1028600083F31188BFF36F8FBFF34F8FFEE7044AE6
:10287000106802490860136002B070BDC8060020ED
:10288000C406002038B50546FFF744FC0446074B54
:102890001B68834205D800232B60044B1C60204634
:1028A00038BDFFF7B1FF01232B60F6E7B806002023
:1028B00070B582B006460D4617490968C968CC68EC
:1028C000201DFEF7D3FD94F828C01CF0040F08D19A
:1028D0002CF0010C84F828C0236A2046984702B0E7
:1028E00070BDA16933462A4631442046FFF7C8FE31
:1028F0000028F1D0002100910B4632462046FFF718
:102900004DFF0028E8D14FF0500383F31188BFF347
:102910006F8FBFF34F8FFEE7C806002070B582B0FF
:1029200006460C46FFF7EEFB01A8FFF7ABFF019B45
:1029300033BB0546E4B9B04213D22246711B124B99
:102940001868FFF7D1F8FFF777FCD8B94FF0E0230C
:102950004FF08052C3F8042DBFF34F8FBFF36F8F3A
:1029600010E0FFF769FC29463046FFF7A1FF09E0B8
:10297000064A126812680AB90124DEE71C46DCE741
:10298000FFF75AFC02B070BDC0060020C40600204C
:1029900010B588B002E0049B002B0FDA002204A9D6
:1029A0003D4B1868FEF7DDFF002873D0049B002B19
:1029B000F1DA07990698059B9847ECE7069C63694E
:1029C00013B1201DFEF752FD03A8FFF75BFF049B28
:1029D000092BE3D8DFE803F005050530375005057E
:1029E000303794F8283043F0010384F82830059BF1
:1029F000A169024619442046FFF742FE0028CDD0C7
:102A0000236A2046984794F8283013F0040FC5D065
:102A1000A269002100910B46059802442046FFF769
:102A2000BDFE0028BAD14FF0500383F31188BFF3E5
:102A30006F8FBFF34F8FFEE794F8283023F0010328
:102A400084F82830AAE794F8283043F0010384F88A
:102A500028300599A16131B1034602460144204660
:102A6000FFF70EFE9AE74FF0500383F31188BFF390
:102A70006F8FBFF34F8FFEE794F8283013F0020FEB
:102A800004D023F0010384F8283087E7204600F0C3
:102A9000CDF983E708B010BDC006002000B583B0B3
:102AA00001A8FFF7DDFD0199FFF738FFFFF770FF81
:102AB000F6E708B54FF0E0231B69FFF779FD012821
:102AC00000D108BD00F0C6FAFBE70000EFF3058374
:102AD0002BB9064B186828B901221A6070476FF0AD
:102AE000050070474FF0FF30704700BFAC0D00206D
:102AF000EFF3058373B90A4B1B68012B0DD110B599
:102B00000024084BDC77064B02221A60FFF7AEFA6E
:102B1000204610BD6FF0050070474FF0FF30704742
:102B2000AC0D002000ED00E0F0B587B00024059466
:102B3000EFF3058474BB68B322B31568936903B9D6
:102B400018235C1E372C49D8546814F0010F47D164
:102B500056696EB14FEA960C94682CB1D7685B2F1A
:102B600002D9176907B1C6B92CB14FF0FF340EE096
:102B70004FF0800CF0E7D4688CB9146994B14FF031
:102B8000FF3404E01546002418234FF0800C012C7C
:102B90000AD0ACB1059807B0F0BD0124F7E74FF0BB
:102BA000FF34F4E70024F2E714699268029201947A
:102BB00000930B4662462946FFF746F90590E9E780
:102BC00005AA019200930B461FFA8CF22946FFF7E3
:102BD00076F90128DED000230593DBE70020DAE751
:102BE0000020D8E7EFF305835BB910B5044658B170
:102BF000FFF7F4F904280AD02046FFF793F90020E4
:102C000010BD6FF0050070476FF00300F8E76FF03C
:102C10000200F5E708B5EFF3058333B908B90020E2
:102C200008BDFFF785FB0020FAE76FF00500F7E726
:102C3000034B0360034B0B6080231360704700BF9E
:102C4000500D0020500B0020034B0360034B0B6022
:102C50004FF4807313607047F40A0020F4060020DC
:102C6000124A12F0070F1ED0D11D21F00701C1F545
:102C7000705313440A460E48026000214160134419
:102C8000083B23F007030B48036059601960991A49
:102C900051601360084B1960084B1960084B4FF0E6
:102CA00000421A6070474FF47053E4E7D00D0020E3
:102CB000C80D0020C40D0020BC0D0020C00D002058
:102CC000B00D0020164B1A461B688342FBD3516897
:102CD00002EB010C844509D0416800EB010C63450F
:102CE00009D00360904219D01060704740680144D9
:102CF00051601046F0E710B40A4C2468A3420BD090
:102D00005B681944416013681B680360904200D0FF
:102D100010605DF8044B70470460F7E7704700BF30
:102D2000C80D0020C40D002038B50446FFF7EAF9AD
:102D3000384B1B68B3B1384B1B681C4250D1002C78
:102D400050D004F1080214F0070F02D022F007025D
:102D50000832002A55D0314B1B68934253D3304977
:102D60000C6804E0FFF77CFFE5E721461C4663683A
:102D7000934202D22368002BF7D1264B1B68A34253
:102D800043D00D68083523680B6063689B1A102BCD
:102D900010D9A01810F0070F08D04FF0500383F39C
:102DA0001188BFF36F8FBFF34F8FFEE74360626000
:102DB000FFF788FF626819490B689B1A0B60194975
:102DC00009688B4201D217490B60134B1B681343F0
:102DD000636000232360144A13680133136002E028
:102DE000002500E00025FFF727FA15F0070F0ED0A9
:102DF0004FF0500383F31188BFF36F8FBFF34F8FF2
:102E0000FEE70025EFE70025EDE70025EBE7284684
:102E100038BD00BFC40D0020B00D0020C00D002043
:102E2000C80D0020BC0D0020B80D0020002834D0B3
:102E300038B50446A0F1080550F8043C174A12685A
:102E4000134208D14FF0500383F31188BFF36F8F03
:102E5000BFF34F8FFEE750F8081C41B14FF050030D
:102E600083F31188BFF36F8FBFF34F8FFEE723EA21
:102E7000020340F8043CFFF745F954F8041C084AE3
:102E800013680B4413602846FFF71CFF054A1368BC
:102E900001331360FFF7D0F938BD7047B00D002043
:102EA000C00D0020B40D002082B0002301930D4B13
:102EB0001B68B3F1FF3F08D04FF0500383F3118834
:102EC000BFF36F8FBFF34F8FFEE74FF0500383F3D5
:102ED0001188BFF36F8FBFF34F8F019B002BFCD086
:102EE00002B070470C00002008480068006880F3BA
:102EF00008884FF0000080F3148862B661B6BFF313
:102F00004F8FBFF36F8F00DF00BF000008ED00E0C0
:102F1000DFF80C00016841F47001016070470000A7
:102F200088ED00E04FF0807340F8043C21F001018F
:102F300040F8081C054B40F80C3C40F8202C6FF082
:102F4000020340F8243C4438704700BFA92E000813
:102F5000074B19680868B0E8F04F80F30988BFF3A1
:102F60006F8F4FF0000080F311887047AFF300803F
:102F7000C40500204FF0500383F31188BFF36F8F17
:102F8000BFF34F8F0B4A136801331360012B00D03E
:102F900070474FF0E023D3F8043D13F0FF0FF7D054
:102FA0004FF0500383F31188BFF36F8FBFF34F8F40
:102FB000FEE700BF0C000020094B1B6843B94FF02F
:102FC000500383F31188BFF36F8FBFF34F8FFEE77A
:102FD000013B034A13600BB983F31188704700BFAC
:102FE0000C000020000000000000000000000000B5
:102FF000EFF30980BFF36F8F154B1A681EF0100FA7
:1030000008BF20ED108A20E9F04F10602DE909007B
:103010004FF0500080F31188BFF34F8FBFF36F8FD5
:10302000FFF7ACF94FF0000080F3118809BC196874
:103030000868B0E8F04F1EF0100F08BFB0EC108A1F
:1030400080F30988BFF36F8F704700BFAFF3008034
:10305000C405002008B54FF0500383F31188BFF377
:103060006F8FBFF34F8FFFF75BF828B14FF0E0236E
:103070004FF08052C3F8042D002383F3118808BD5C
:103080004FF0E022002313619361054B1B68054953
:10309000A1FB03139B09013B536107231361704795
:1030A00008000020D34D62104FF0E023D3F8002D2C
:1030B0003D4B9A421CD04FF0E023D3F8002D3B4B00
:1030C0009A421ED030B583B0394B1A78D2B20192F1
:1030D000FF221A701B78DBB28DF803309DF80330A5
:1030E00003F05003334A1370334B07221A601BE07E
:1030F0004FF0500383F31188BFF36F8FBFF34F8FEF
:10310000FEE74FF0500383F31188BFF36F8FBFF3D7
:103110004F8FFEE7284A1368013B13609DF8033088
:103120005B00DBB28DF803309DF8033013F0800FA5
:10313000F0D1214B1B68032B08D04FF0500383F3D1
:103140001188BFF36F8FBFF34F8FFEE71B021A4A40
:10315000136003F4E0631360019BDBB2144A137045
:103160004FF0E024D4F8203D43F47003C4F8203D30
:10317000D4F8203D43F07043C4F8203DFFF780FFB2
:1031800000250E4B1D60FFF7C3FED4F8343F43F01B
:103190004043C4F8343FFFF7A7FEFFF7EFF8FFF70F
:1031A00083FE284603B030BD71C20F4170C20F418B
:1031B00000E400E0D4490020D04900200C000020A9
:1031C000EFF305830F2B0FD9114A9B5CDBB2114A39
:1031D00012789A4208D94FF0500383F31188BFF355
:1031E0006F8FBFF34F8FFEE74FF0E023D3F80C3D16
:1031F00003F4E063084A1268934208D94FF0500381
:1032000083F31188BFF36F8FBFF34F8FFEE77047D3
:10321000F0E300E0D4490020D049002010B5044676
:103220008268531C4068834205D820688154A3609B
:10323000E3680133E360A26863689A4200D010BD7E
:103240002168206900F0C6FAA368984203D04FF0C5
:10325000FF33E360F3E70023A360F0E72DE9F84FC5
:1032600081460F4615461E46DDF828A00B9A0B46F0
:103270004FF0010803E0B3FBF5F308F10108AB429E
:10328000F9D2B04500D2B04612F0010B18D1BAF114
:10329000000F15D012F0020F02D0BEB1202400E0C2
:1032A0002024BAF1000F0BD0C24509D90AF1FF3A28
:1032B00021464846FFF7B2FFD9F80C30002BF0DA70
:1032C000D9F80C30002B25DB012404E03024E8E79A
:1032D000013E05FB04F4012EFAD8B7FBF4F39D423E
:1032E000F7D900E01C46B7FBF4F304FB1377124A4E
:1032F000D15C4846FFF792FFD9F80C30002B03DB76
:10330000B4FBF5F3AC42EDD2BBF1000F02D0BAF141
:10331000000F01D1BDE8F88FBAF1000FFAD0C24515
:10332000F8D90AF1FF3A20214846FFF777FFD9F88C
:103330000C30002BF0DAEDE7683D00082DE9F0478E
:1033400082B007468846154699460A9EDDF82CA0AD
:1033500081EAE17CACEBE17C012402E09CFBF5FC22
:1033600001346545FADD4C4500D24C4636B1B8F122
:10337000000F02DB1AF0040F00D0013E1AF0020F1A
:1033800002D0B9F1000F03D01AF0010F00D1AEB98D
:10339000FB68002B0FDBB8F1000F1CDB1AF0040FE9
:1033A00020D1FB68002B06DB0AF00303022B1ED0A2
:1033B000FB68002B2DDA02B0BDE8F087002EE7D0C5
:1033C000A642E5D9013E20213846FFF727FFFB68DA
:1033D000002BF3DADCE7C8F100082D213846FFF7AF
:1033E0001DFFDEE72B213846FFF718FFD9E7B9F1BB
:1033F000000FDDD1002EDBD0002ED9D0A642D7D9C8
:10340000013E30213846FFF709FFFB68002BF3DA55
:10341000CEE7CDF804A000964B462A4641463846F2
:10342000FFF71CFFC7E70000F0B599B006460C4651
:10343000154603AB13934023149300231593179061
:1034400016938BE00020012211E040F001000134CE
:103450000CE040F00200013408E040F004000134C8
:1034600004E040F00800013400E0002212B32378A9
:10347000233B0D2BF9D801A151F823F06334000848
:103480006B3400086B3400086B3400086B340008A0
:103490006B3400086B3400086B3400085B340008A0
:1034A0006B3400084B3400086B3400086B340008A0
:1034B000533400082378A3F13001C9B2092907D891
:1034C000013402EB820203EB4203A3F13002F1E785
:1034D0002E2B02D00023217814E00134002306E0D3
:1034E000013403EB830301EB4301A1F130032178A5
:1034F000A1F1300C5FFA8CFCBCF1090FF0D9EAE7BE
:1035000014F8011F6C29FBD06829F9D025296DD04A
:1035100020D378291ED858291CD35839202919D8E6
:10352000DFE801F03D1818181818181818181811A5
:10353000271818181818181818181818571818488D
:10354000183218183D002B681A1D2A60197813A824
:10355000FFF764FE0134169B002B4CDB14F8011BB3
:10356000002948D025293FF46DAF13A8FFF756FE78
:10357000F1E729680F1D2F600968019000920A2267
:1035800013A8FFF7DBFEE5E729680F1D2F60096828
:10359000019000920A2213A8FFF760FEDAE729687B
:1035A0000F1D2F60096801900092102213A8FFF7E9
:1035B00055FECFE72B681A1D2A601F6817F8011BFC
:1035C0000029C7D013A8FFF729FE169B002BF5DAB8
:1035D000C0E72B681A1D2A6019680023019308238D
:1035E0000093102213A8FFF739FEB3E7252113A893
:1035F000FFF714FEAEE7169B002B05DD159A32B9D6
:10360000169B159A13441693169819B0F0BD03A98A
:10361000304600F0DFF8F3E70EB400B582B003AB3C
:1036200053F8041B019301AAFFF7FEFE02B05DF8F8
:1036300004EB03B070470369C268934204D8816801
:103640008A1A1344581E7047981A013870472DE99A
:10365000F843044688461646C5688768A7EB0509FF
:10366000914509D940682844FCF724FEBFF35F8FD9
:103670003544E560BDE8F88340684A462844FCF7D5
:1036800019FEED1B35442A4608EB09016068FCF77A
:1036900011FEBFF35F8FE560ECE72DE9F8430646C6
:1036A00088461746C5684FF000091AE05B1B5A1E92
:1036B000B3685C1B944228BF1446BC4228BF3C46FA
:1036C0007068224641462844FCF7F4FDA144A0441A
:1036D0003F1B2544B368AB420BD0BFF35F8FF5604F
:1036E0004FB133699D42E1D3B2685B1B1A44013A82
:1036F000DEE70025F1E74846BDE8F88310B5154C34
:10370000A82200212046FCF75BFD032323616361AF
:10371000114AA261114BE3614FF4806323620023DD
:10372000A3626362E36222660D4A62661022A266A9
:103730002367E3666367BFF35F8F06E0C3F10F02A1
:103740000849895C034AD15401330F2BF6D9BFF3E2
:103750005F8F10BDE84D0020203D0008E8490020A3
:10376000D8490020783D0008F8B50F461646441C9D
:1037700004EB4404164B03EBC40400EB400003EBE2
:10378000C003DD6A012D0ED0022D1AD0F5B92046F6
:10379000FFF751FF864212D8324639462046FFF7DE
:1037A00056FF35460BE02046FFF745FF354686427B
:1037B00028BF05462A4639462046FFF748FF2846D7
:1037C000F8BD2046FFF769FF0546F8E70025F6E754
:1037D000E84D0020F8B504460D461646094B1B7807
:1037E0006BB1EFF311874FF0200181F3118832465E
:1037F00029462046FFF7B8FF87F31188F8BDFFF789
:103800007DFFEEE7E84D002038B505460C4608463A
:10381000FCF7F6FD024621462846FFF7DBFF38BDE0
:1038200008B5FFF76BFF08BD08B5FFF7F9FF08BD46
:103830000E4B1B78C3B982B00C4B01221A700C4B93
:103840005B680193019A0B4B1B689A4203D20A4AA8
:10385000136801331360064B5A68064B1A60034B1A
:1038600000221A7002B07047704700BF904E0020CF
:10387000001000E0944E0020984E002008B5124A37
:10388000D2F8FC3043F08073C2F8FC300F4B0021BB
:1038900059601A6842F001021A600D4B03FB00F0F8
:1038A0000C4B18600C4BA3FB00239B090B4A1360C5
:1038B0000B4BA3FB0030800C0A4B18600A4B1960BD
:1038C000FFF7B6FF08BD00BF00ED00E0001000E00C
:1038D00040420F00A44E0020D34D6210A04E0020A5
:1038E00083DE1B439C4E0020984E0020DFF834D02E
:1038F000FDF780FD0C480D490D4A002302E0D45825
:10390000C4500433C4188C42F9D30A4A0A4C002329
:1039100001E013600432A242FBD3FCF7A3FCFCF7E6
:1039200011FF70470000022000000020100000205E
:103930009C3D000810000020A84E0020FEE72DE965
:10394000F04786468C460846089E1546744619463A
:10395000002B40F0C2808542B2FA82F245D94AB1CA
:10396000C2F1200300FA02FC2EFA03F3954043EA69
:103970000C0C94404FEA154EA8B2BCFBFEF8230C89
:103980000EFB18CC08FB00F943EA0C43994528D9F3
:10399000EB1808F1FF3704D2994502D9A8F10207C4
:1039A0002B44A3EB0903A4B2B3FBFEFC0EFB1C33B8
:1039B0000CFB00F044EA0344A04214D92C190CF18A
:1039C000FF3304D2A04202D9ACF102032C44241AE2
:1039D00043EA07401EB1D440002334607360BDE861
:1039E000F0874746DDE76346F1E792BB431B0121C1
:1039F0004FEA154EAFB2B3FBFEFC200C0EFB1C339E
:103A00000CFB07F840EA0343984562D9EB180CF128
:103A1000FF3004D2984502D9ACF102002B44A3EB4D
:103A20000803A4B2B3FBFEFC0EFB1C330CFB07F730
:103A300044EA0344A7424ED92C190CF1FF3304D2B7
:103A4000A74202D9ACF102032C44E41B43EA004034
:103A5000C0E7C2F1200320FA03F1954090402EFA0E
:103A600003F303434FEA154EAFB2B1FBFEFC0EFB6E
:103A70001C10190C0CFB07F841EA0041884504FAB8
:103A800002F422D969180CF1FF3004D2884502D91A
:103A9000ACF102002944A1EB08019BB2B1FBFEFC92
:103AA0000EFB1C110CFB07F743EA01439F420ED9A2
:103AB000EB180CF1FF3104D29F4202D9ACF10201A4
:103AC0002B44DB1B41EA004192E76046E3E7614695
:103AD000F7E76046A3E76346B7E7834206D916B91E
:103AE000002108467BE7C6E900E0F9E7B3FA83F76F
:103AF0008FB9834201D3724508D8BEEB020460EB54
:103B0000030301209C461EB9002168E73846FAE706
:103B1000C6E9004CF8E7C7F1200CBB4022FA0CF4D0
:103B20001C432EFA0CF120FA0CF3B84001434FEA83
:103B300014490EFA07F5B3FBF9F81FFA84FE09FBE6
:103B400018300B0C08FB0EFA43EA00439A4502FAC0
:103B500007F240D9E31808F1FF3004D29A4502D9A0
:103B6000A8F102002344A3EB0A0389B2B3FBF9F8DE
:103B700009FB183308FB0EFE41EA03418E452CD9A0
:103B8000611808F1FF3304D28E4502D9A8F102036F
:103B9000214443EA0040A0FB0298A1EB0E014145FD
:103BA000CE46434602D306D14D4504D2B9EB020EB0
:103BB00068EB04030138002EA6D0B5EB0E0261EBD2
:103BC000030101FA0CFC22FA07F34CEA0303F94063
:103BD000C6E9003198E74046C5E74346D9E700000B
:103BE000F8B500BFF8BC08BC9E467047F8B500BFEA
:083BF000F8BC08BC9E467047BA
:103BF800493A00001B5B313B33326D0020202573AE
:103C080025734C6F675461736B206973207265610B
:103C18006479210A0D0A2573000000001B5B306DD2
:103C28000000000020202573257348454C4C4F2088
:103C3800574F524C44210D0A25730000573A000093
:103C48001B5B313B33336D0020202573257346758C
:103C5800636B21746865206E756D62657220697387
:103C68002025640D0A2573002020257325734655E9
:103C7800434B20574F524C44210D0A257300000036
:103C8800453A00001B5B313B33316D002020257322
:103C980025737368697421746865206E756D626533
:103CA800722069732025640D0A2573004C6F6754D0
:103CB8006573745461736B48616E64004465627522
:103CC800675461736B48616E646C650020201B5BF0
:103CD800324A0000202025732573467265655254C8
:103CE8004F53206973205265616479210A0D0A25B2
:103CF8007300000064656661756C745461736B00D1
:103D080049444C4500000000546D72510000000009
:103D1800546D7220537663005465726D696E616CE0
:103D280000000000FC3C000800000000000000004B
:103D38000000000000000000000200001800000061
:103D48000000000000000000000000000102030461
:103D58000000000000000000010203040607080933
:103D680030313233343536373839414243444546A9
:103D78000000000000005454522052454747455364
:043D88000000000037
:083D8C0028C5FF7F01000000C3
:043D940031050008ED
:043D98000D0500080D
:103D9C0001000000100000000024F400AAAAAAAA46
:04000005080038EDCA
:00000001FF
